{"contracts/BallMain.sol":{"BallMain":{"abi":[{"inputs":[],"stateMutability":"nonpayable","type":"constructor"},{"anonymous":false,"inputs":[{"indexed":true,"internalType":"address","name":"owner","type":"address"},{"indexed":true,"internalType":"address","name":"approved","type":"address"},{"indexed":true,"internalType":"uint256","name":"tokenId","type":"uint256"}],"name":"Approval","type":"event"},{"anonymous":false,"inputs":[{"indexed":true,"internalType":"address","name":"owner","type":"address"},{"indexed":true,"internalType":"address","name":"operator","type":"address"},{"indexed":false,"internalType":"bool","name":"approved","type":"bool"}],"name":"ApprovalForAll","type":"event"},{"anonymous":false,"inputs":[{"indexed":true,"internalType":"address","name":"previousOwner","type":"address"},{"indexed":true,"internalType":"address","name":"newOwner","type":"address"}],"name":"OwnershipTransferred","type":"event"},{"anonymous":false,"inputs":[{"indexed":true,"internalType":"address","name":"from","type":"address"},{"indexed":true,"internalType":"address","name":"to","type":"address"},{"indexed":true,"internalType":"uint256","name":"tokenId","type":"uint256"}],"name":"Transfer","type":"event"},{"inputs":[{"internalType":"address","name":"to","type":"address"},{"internalType":"uint256","name":"tokenId","type":"uint256"}],"name":"approve","outputs":[],"stateMutability":"nonpayable","type":"function"},{"inputs":[{"internalType":"address","name":"owner","type":"address"}],"name":"balanceOf","outputs":[{"internalType":"uint256","name":"","type":"uint256"}],"stateMutability":"view","type":"function"},{"inputs":[{"internalType":"uint256","name":"_tokenId","type":"uint256"}],"name":"burn","outputs":[],"stateMutability":"nonpayable","type":"function"},{"inputs":[{"internalType":"uint256","name":"","type":"uint256"}],"name":"category","outputs":[{"internalType":"uint256","name":"","type":"uint256"}],"stateMutability":"view","type":"function"},{"inputs":[{"internalType":"uint256","name":"","type":"uint256"}],"name":"currentAccuracyLvl","outputs":[{"internalType":"uint256","name":"","type":"uint256"}],"stateMutability":"view","type":"function"},{"inputs":[{"internalType":"uint256","name":"","type":"uint256"}],"name":"currentPowerLvl","outputs":[{"internalType":"uint256","name":"","type":"uint256"}],"stateMutability":"view","type":"function"},{"inputs":[{"internalType":"uint256","name":"","type":"uint256"}],"name":"currentSpinLvl","outputs":[{"internalType":"uint256","name":"","type":"uint256"}],"stateMutability":"view","type":"function"},{"inputs":[{"internalType":"uint256","name":"","type":"uint256"}],"name":"currentTimeLvl","outputs":[{"internalType":"uint256","name":"","type":"uint256"}],"stateMutability":"view","type":"function"},{"inputs":[{"internalType":"uint256","name":"tokenId","type":"uint256"}],"name":"getApproved","outputs":[{"internalType":"address","name":"","type":"address"}],"stateMutability":"view","type":"function"},{"inputs":[],"name":"imageBaseURI","outputs":[{"internalType":"string","name":"","type":"string"}],"stateMutability":"view","type":"function"},{"inputs":[{"internalType":"address","name":"owner","type":"address"},{"internalType":"address","name":"operator","type":"address"}],"name":"isApprovedForAll","outputs":[{"internalType":"bool","name":"","type":"bool"}],"stateMutability":"view","type":"function"},{"inputs":[{"internalType":"uint256","name":"","type":"uint256"}],"name":"maxAccuracyLvl","outputs":[{"internalType":"uint256","name":"","type":"uint256"}],"stateMutability":"view","type":"function"},{"inputs":[{"internalType":"uint256","name":"","type":"uint256"}],"name":"maxPowerLvl","outputs":[{"internalType":"uint256","name":"","type":"uint256"}],"stateMutability":"view","type":"function"},{"inputs":[{"internalType":"uint256","name":"","type":"uint256"}],"name":"maxSpinLvl","outputs":[{"internalType":"uint256","name":"","type":"uint256"}],"stateMutability":"view","type":"function"},{"inputs":[{"internalType":"uint256","name":"","type":"uint256"}],"name":"maxTimeLvl","outputs":[{"internalType":"uint256","name":"","type":"uint256"}],"stateMutability":"view","type":"function"},{"inputs":[],"name":"mint","outputs":[],"stateMutability":"payable","type":"function"},{"inputs":[],"name":"name","outputs":[{"internalType":"string","name":"","type":"string"}],"stateMutability":"view","type":"function"},{"inputs":[],"name":"owner","outputs":[{"internalType":"address","name":"","type":"address"}],"stateMutability":"view","type":"function"},{"inputs":[{"internalType":"uint256","name":"tokenId","type":"uint256"}],"name":"ownerOf","outputs":[{"internalType":"address","name":"","type":"address"}],"stateMutability":"view","type":"function"},{"inputs":[],"name":"ownerWithdraw","outputs":[],"stateMutability":"nonpayable","type":"function"},{"inputs":[],"name":"renounceOwnership","outputs":[],"stateMutability":"nonpayable","type":"function"},{"inputs":[{"internalType":"address","name":"from","type":"address"},{"internalType":"address","name":"to","type":"address"},{"internalType":"uint256","name":"tokenId","type":"uint256"}],"name":"safeTransferFrom","outputs":[],"stateMutability":"nonpayable","type":"function"},{"inputs":[{"internalType":"address","name":"from","type":"address"},{"internalType":"address","name":"to","type":"address"},{"internalType":"uint256","name":"tokenId","type":"uint256"},{"internalType":"bytes","name":"data","type":"bytes"}],"name":"safeTransferFrom","outputs":[],"stateMutability":"nonpayable","type":"function"},{"inputs":[{"internalType":"address","name":"operator","type":"address"},{"internalType":"bool","name":"approved","type":"bool"}],"name":"setApprovalForAll","outputs":[],"stateMutability":"nonpayable","type":"function"},{"inputs":[{"internalType":"string","name":"_imageBaseURI","type":"string"}],"name":"setImageBaseUri","outputs":[],"stateMutability":"nonpayable","type":"function"},{"inputs":[{"internalType":"bytes4","name":"interfaceId","type":"bytes4"}],"name":"supportsInterface","outputs":[{"internalType":"bool","name":"","type":"bool"}],"stateMutability":"view","type":"function"},{"inputs":[],"name":"symbol","outputs":[{"internalType":"string","name":"","type":"string"}],"stateMutability":"view","type":"function"},{"inputs":[],"name":"tokenCount","outputs":[{"internalType":"uint256","name":"","type":"uint256"}],"stateMutability":"view","type":"function"},{"inputs":[{"internalType":"uint256","name":"","type":"uint256"}],"name":"tokenIdType","outputs":[{"internalType":"uint256","name":"","type":"uint256"}],"stateMutability":"view","type":"function"},{"inputs":[{"internalType":"uint256","name":"tokenId","type":"uint256"}],"name":"tokenURI","outputs":[{"internalType":"string","name":"","type":"string"}],"stateMutability":"view","type":"function"},{"inputs":[{"internalType":"address","name":"from","type":"address"},{"internalType":"address","name":"to","type":"address"},{"internalType":"uint256","name":"tokenId","type":"uint256"}],"name":"transferFrom","outputs":[],"stateMutability":"nonpayable","type":"function"},{"inputs":[{"internalType":"address","name":"newOwner","type":"address"}],"name":"transferOwnership","outputs":[],"stateMutability":"nonpayable","type":"function"},{"inputs":[{"internalType":"uint256","name":"_tokenId","type":"uint256"},{"internalType":"uint256","name":"_upgradePowerLvl","type":"uint256"},{"internalType":"uint256","name":"_upgradeAccuracyLvl","type":"uint256"},{"internalType":"uint256","name":"_upgradeSpinLvl","type":"uint256"},{"internalType":"uint256","name":"_upgradeTimeLvl","type":"uint256"}],"name":"upgrade","outputs":[],"stateMutability":"payable","type":"function"},{"inputs":[{"internalType":"address","name":"","type":"address"},{"internalType":"uint256","name":"","type":"uint256"}],"name":"userTokenIds","outputs":[{"internalType":"uint256","name":"","type":"uint256"}],"stateMutability":"view","type":"function"}],"evm":{"bytecode":{"linkReferences":{},"object":"60806040523480156200001157600080fd5b506040518060400160405280600881526020017f42616c6c4d61696e0000000000000000000000000000000000000000000000008152506040518060400160405280600381526020017f42414d00000000000000000000000000000000000000000000000000000000008152508160009080519060200190620000969291906200026b565b508060019080519060200190620000af9291906200026b565b505050620000d2620000c66200019d60201b60201c565b620001a560201b60201c565b60005b601e811015620001245760c8600b6000838152602001908152602001600020819055600a60008381526020019081526020016000208190555080806200011b9062000354565b915050620000d5565b5060005b603c81101562000185576064600b6000838152602001908152602001600020819055600a6000601e846200015d9190620003a2565b81526020019081526020016000208190555080806200017c9062000354565b91505062000128565b506000602181905550612ee060228190555062000464565b600033905090565b6000600760009054906101000a900473ffffffffffffffffffffffffffffffffffffffff16905081600760006101000a81548173ffffffffffffffffffffffffffffffffffffffff021916908373ffffffffffffffffffffffffffffffffffffffff1602179055508173ffffffffffffffffffffffffffffffffffffffff168173ffffffffffffffffffffffffffffffffffffffff167f8be0079c531659141344cd1fd0a4f28419497f9722a3daafe3b4186f6b6457e060405160405180910390a35050565b82805462000279906200042e565b90600052602060002090601f0160209004810192826200029d5760008555620002e9565b82601f10620002b857805160ff1916838001178555620002e9565b82800160010185558215620002e9579182015b82811115620002e8578251825591602001919060010190620002cb565b5b509050620002f89190620002fc565b5090565b5b8082111562000317576000816000905550600101620002fd565b5090565b7f4e487b7100000000000000000000000000000000000000000000000000000000600052601160045260246000fd5b6000819050919050565b600062000361826200034a565b91507fffffffffffffffffffffffffffffffffffffffffffffffffffffffffffffffff8214156200039757620003966200031b565b5b600182019050919050565b6000620003af826200034a565b9150620003bc836200034a565b9250827fffffffffffffffffffffffffffffffffffffffffffffffffffffffffffffffff03821115620003f457620003f36200031b565b5b828201905092915050565b7f4e487b7100000000000000000000000000000000000000000000000000000000600052602260045260246000fd5b600060028204905060018216806200044757607f821691505b602082108114156200045e576200045d620003ff565b5b50919050565b6157e080620004746000396000f3fe6080604052600436106101f95760003560e01c806370a082311161010d578063a22cb465116100a0578063c9083cd91161006f578063c9083cd914610782578063cc17e15d146107bf578063d55cae27146107fc578063e985e9c514610818578063f2fde38b14610855576101f9565b8063a22cb465146106b6578063b49f7e2d146106df578063b88d4fde1461071c578063c87b56dd14610745576101f9565b80638cc04784116100dc5780638cc04784146105f85780638da5cb5b1461063557806395d89b41146106605780639f181b5e1461068b576101f9565b806370a082311461053c578063715018a614610579578063776458391461059057806381a4b116146105bb576101f9565b80632603f287116101905780634311de8f1161015f5780634311de8f146104315780634fffbe0e1461044857806352a3302b146104855780636352211e146104c25780636f2829ba146104ff576101f9565b80632603f2871461037957806339b92bbb146103b657806342842e0e146103df57806342966c6814610408576101f9565b80631249c58b116101cc5780631249c58b146102cc57806322ea00f9146102d657806323b872dd14610313578063253eca1f1461033c576101f9565b806301ffc9a7146101fe57806306fdde031461023b578063081812fc14610266578063095ea7b3146102a3575b600080fd5b34801561020a57600080fd5b50610225600480360381019061022091906138cf565b61087e565b6040516102329190613917565b60405180910390f35b34801561024757600080fd5b50610250610960565b60405161025d91906139cb565b60405180910390f35b34801561027257600080fd5b5061028d60048036038101906102889190613a23565b6109f2565b60405161029a9190613a91565b60405180910390f35b3480156102af57600080fd5b506102ca60048036038101906102c59190613ad8565b610a38565b005b6102d4610b50565b005b3480156102e257600080fd5b506102fd60048036038101906102f89190613a23565b610f06565b60405161030a9190613b27565b60405180910390f35b34801561031f57600080fd5b5061033a60048036038101906103359190613b42565b610f1e565b005b34801561034857600080fd5b50610363600480360381019061035e9190613a23565b610f7e565b6040516103709190613b27565b60405180910390f35b34801561038557600080fd5b506103a0600480360381019061039b9190613a23565b610f96565b6040516103ad9190613b27565b60405180910390f35b3480156103c257600080fd5b506103dd60048036038101906103d89190613cca565b610fae565b005b3480156103eb57600080fd5b5061040660048036038101906104019190613b42565b610fd0565b005b34801561041457600080fd5b5061042f600480360381019061042a9190613a23565b610ff0565b005b34801561043d57600080fd5b506104466112d5565b005b34801561045457600080fd5b5061046f600480360381019061046a9190613a23565b611392565b60405161047c9190613b27565b60405180910390f35b34801561049157600080fd5b506104ac60048036038101906104a79190613a23565b6113aa565b6040516104b99190613b27565b60405180910390f35b3480156104ce57600080fd5b506104e960048036038101906104e49190613a23565b6113c2565b6040516104f69190613a91565b60405180910390f35b34801561050b57600080fd5b5061052660048036038101906105219190613a23565b611474565b6040516105339190613b27565b60405180910390f35b34801561054857600080fd5b50610563600480360381019061055e9190613d13565b61148c565b6040516105709190613b27565b60405180910390f35b34801561058557600080fd5b5061058e611544565b005b34801561059c57600080fd5b506105a5611558565b6040516105b291906139cb565b60405180910390f35b3480156105c757600080fd5b506105e260048036038101906105dd9190613a23565b6115e6565b6040516105ef9190613b27565b60405180910390f35b34801561060457600080fd5b5061061f600480360381019061061a9190613a23565b6115fe565b60405161062c9190613b27565b60405180910390f35b34801561064157600080fd5b5061064a611616565b6040516106579190613a91565b60405180910390f35b34801561066c57600080fd5b50610675611640565b60405161068291906139cb565b60405180910390f35b34801561069757600080fd5b506106a06116d2565b6040516106ad9190613b27565b60405180910390f35b3480156106c257600080fd5b506106dd60048036038101906106d89190613d6c565b6116d8565b005b3480156106eb57600080fd5b5061070660048036038101906107019190613a23565b6116ee565b6040516107139190613b27565b60405180910390f35b34801561072857600080fd5b50610743600480360381019061073e9190613e4d565b611706565b005b34801561075157600080fd5b5061076c60048036038101906107679190613a23565b611768565b60405161077991906139cb565b60405180910390f35b34801561078e57600080fd5b506107a960048036038101906107a49190613a23565b61187b565b6040516107b69190613b27565b60405180910390f35b3480156107cb57600080fd5b506107e660048036038101906107e19190613ad8565b611893565b6040516107f39190613b27565b60405180910390f35b61081660048036038101906108119190613ed0565b6118c4565b005b34801561082457600080fd5b5061083f600480360381019061083a9190613f4b565b611b68565b60405161084c9190613917565b60405180910390f35b34801561086157600080fd5b5061087c60048036038101906108779190613d13565b611bfc565b005b60007f80ac58cd000000000000000000000000000000000000000000000000000000007bffffffffffffffffffffffffffffffffffffffffffffffffffffffff1916827bffffffffffffffffffffffffffffffffffffffffffffffffffffffff1916148061094957507f5b5e139f000000000000000000000000000000000000000000000000000000007bffffffffffffffffffffffffffffffffffffffffffffffffffffffff1916827bffffffffffffffffffffffffffffffffffffffffffffffffffffffff1916145b80610959575061095882611c80565b5b9050919050565b60606000805461096f90613fba565b80601f016020809104026020016040519081016040528092919081815260200182805461099b90613fba565b80156109e85780601f106109bd576101008083540402835291602001916109e8565b820191906000526020600020905b8154815290600101906020018083116109cb57829003601f168201915b5050505050905090565b60006109fd82611cea565b6004600083815260200190815260200160002060009054906101000a900473ffffffffffffffffffffffffffffffffffffffff169050919050565b6000610a43826113c2565b90508073ffffffffffffffffffffffffffffffffffffffff168373ffffffffffffffffffffffffffffffffffffffff161415610ab4576040517f08c379a0000000000000000000000000000000000000000000000000000000008152600401610aab9061405e565b60405180910390fd5b8073ffffffffffffffffffffffffffffffffffffffff16610ad3611d35565b73ffffffffffffffffffffffffffffffffffffffff161480610b025750610b0181610afc611d35565b611b68565b5b610b41576040517f08c379a0000000000000000000000000000000000000000000000000000000008152600401610b38906140f0565b60405180910390fd5b610b4b8383611d3d565b505050565b600060225411610b5f57600080fd5b6001341015610b6d57600080fd5b60006022544233602154604051602001610b8993929190614179565b6040516020818303038152906040528051906020012060001c610bac91906141e5565b905060216000815480929190610bc190614245565b919050555060008060005b605a811015610d9457600b600082815260200190815260200160002054841115610c1657600b60008281526020019081526020016000205484610c0f919061428e565b9350610d81565b60005b600a600083815260200190815260200160002054811015610d7b5760001515600c6000848152602001908152602001600020600083815260200190815260200160002060009054906101000a900460ff1615151415610d685784831415610d5957600181600a60008581526020019081526020016000205484610c9c91906142c2565b610ca6919061431c565b610cb0919061431c565b93506001600c6000848152602001908152602001600020600083815260200190815260200160002060006101000a81548160ff02191690831515021790555060226000815480929190610d0290614372565b9190505550600b60008381526020019081526020016000206000815480929190610d2b90614372565b9190505550600182610d3d919061431c565b6009600086815260200190815260200160002081905550610d7b565b8280610d6490614245565b9350505b8080610d7390614245565b915050610c19565b50610d94565b8080610d8c90614245565b915050610bcc565b50600860003373ffffffffffffffffffffffffffffffffffffffff1673ffffffffffffffffffffffffffffffffffffffff1681526020019081526020016000208290806001815401808255809150506001900390600052602060002001600090919091909150556009600083815260200190815260200160002054601760008481526020019081526020016000208190555060016018600084815260200190815260200160002081905550600160196000848152602001908152602001600020819055506001601a6000848152602001908152602001600020819055506001601b6000848152602001908152602001600020819055506005601c6000848152602001908152602001600020819055506005601d6000848152602001908152602001600020819055506005601e6000848152602001908152602001600020819055506005601f600084815260200190815260200160002081905550610ef83383611df6565b610f0182611e14565b505050565b60196020528060005260406000206000915090505481565b610f2f610f29611d35565b82612194565b610f6e576040517f08c379a0000000000000000000000000000000000000000000000000000000008152600401610f659061440e565b60405180910390fd5b610f79838383612229565b505050565b60176020528060005260406000206000915090505481565b601b6020528060005260406000206000915090505481565b610fb6612490565b8060209080519060200190610fcc929190613780565b5050565b610feb83838360405180602001604052806000815250611706565b505050565b610ff9816113c2565b73ffffffffffffffffffffffffffffffffffffffff163373ffffffffffffffffffffffffffffffffffffffff1614611066576040517f08c379a000000000000000000000000000000000000000000000000000000000815260040161105d906144a0565b60405180910390fd5b60005b60086000611076846113c2565b73ffffffffffffffffffffffffffffffffffffffff1673ffffffffffffffffffffffffffffffffffffffff168152602001908152602001600020805490508110156112c85781600860006110c9856113c2565b73ffffffffffffffffffffffffffffffffffffffff1673ffffffffffffffffffffffffffffffffffffffff1681526020019081526020016000208281548110611115576111146144c0565b5b906000526020600020015414156112b55760086000611133846113c2565b73ffffffffffffffffffffffffffffffffffffffff1673ffffffffffffffffffffffffffffffffffffffff16815260200190815260200160002060016008600061117c866113c2565b73ffffffffffffffffffffffffffffffffffffffff1673ffffffffffffffffffffffffffffffffffffffff168152602001908152602001600020805490506111c4919061428e565b815481106111d5576111d46144c0565b5b9060005260206000200154600860006111ed856113c2565b73ffffffffffffffffffffffffffffffffffffffff1673ffffffffffffffffffffffffffffffffffffffff1681526020019081526020016000208281548110611239576112386144c0565b5b906000526020600020018190555060086000611254846113c2565b73ffffffffffffffffffffffffffffffffffffffff1673ffffffffffffffffffffffffffffffffffffffff16815260200190815260200160002080548061129e5761129d6144ef565b5b600190038181906000526020600020016000905590555b80806112c090614245565b915050611069565b506112d28161250e565b50565b6112dd612490565b600033905060008173ffffffffffffffffffffffffffffffffffffffff16476040516113089061454f565b60006040518083038185875af1925050503d8060008114611345576040519150601f19603f3d011682016040523d82523d6000602084013e61134a565b606091505b505090508061138e576040517f08c379a0000000000000000000000000000000000000000000000000000000008152600401611385906145b0565b60405180910390fd5b5050565b601d6020528060005260406000206000915090505481565b60186020528060005260406000206000915090505481565b6000806002600084815260200190815260200160002060009054906101000a900473ffffffffffffffffffffffffffffffffffffffff169050600073ffffffffffffffffffffffffffffffffffffffff168173ffffffffffffffffffffffffffffffffffffffff16141561146b576040517f08c379a00000000000000000000000000000000000000000000000000000000081526004016114629061461c565b60405180910390fd5b80915050919050565b60096020528060005260406000206000915090505481565b60008073ffffffffffffffffffffffffffffffffffffffff168273ffffffffffffffffffffffffffffffffffffffff1614156114fd576040517f08c379a00000000000000000000000000000000000000000000000000000000081526004016114f4906146ae565b60405180910390fd5b600360008373ffffffffffffffffffffffffffffffffffffffff1673ffffffffffffffffffffffffffffffffffffffff168152602001908152602001600020549050919050565b61154c612490565b6115566000612561565b565b6020805461156590613fba565b80601f016020809104026020016040519081016040528092919081815260200182805461159190613fba565b80156115de5780601f106115b3576101008083540402835291602001916115de565b820191906000526020600020905b8154815290600101906020018083116115c157829003601f168201915b505050505081565b601f6020528060005260406000206000915090505481565b601c6020528060005260406000206000915090505481565b6000600760009054906101000a900473ffffffffffffffffffffffffffffffffffffffff16905090565b60606001805461164f90613fba565b80601f016020809104026020016040519081016040528092919081815260200182805461167b90613fba565b80156116c85780601f1061169d576101008083540402835291602001916116c8565b820191906000526020600020905b8154815290600101906020018083116116ab57829003601f168201915b5050505050905090565b60225481565b6116ea6116e3611d35565b8383612627565b5050565b601a6020528060005260406000206000915090505481565b611717611711611d35565b83612194565b611756576040517f08c379a000000000000000000000000000000000000000000000000000000000815260040161174d9061440e565b60405180910390fd5b61176284848484612794565b50505050565b606061177382611cea565b600060066000848152602001908152602001600020805461179390613fba565b80601f01602080910402602001604051908101604052809291908181526020018280546117bf90613fba565b801561180c5780601f106117e15761010080835404028352916020019161180c565b820191906000526020600020905b8154815290600101906020018083116117ef57829003601f168201915b50505050509050600061181d6127f0565b9050600081511415611833578192505050611876565b60008251111561186857808260405160200161185092919061470a565b60405160208183030381529060405292505050611876565b61187184612807565b925050505b919050565b601e6020528060005260406000206000915090505481565b600860205281600052604060002081815481106118af57600080fd5b90600052602060002001600091509150505481565b6118cd856113c2565b73ffffffffffffffffffffffffffffffffffffffff163373ffffffffffffffffffffffffffffffffffffffff161461190457600080fd5b60008410158015611916575060008310155b8015611923575060008210155b8015611930575060008110155b801561196d5750601c60008681526020019081526020016000205460186000878152602001908152602001600020548561196a919061431c565b11155b80156119aa5750601d6000868152602001908152602001600020546019600087815260200190815260200160002054846119a7919061431c565b11155b80156119e75750601e600086815260200190815260200160002054601a600087815260200190815260200160002054836119e4919061431c565b11155b8015611a245750601f600086815260200190815260200160002054601b60008781526020019081526020016000205482611a21919061431c565b11155b611a63576040517f08c379a0000000000000000000000000000000000000000000000000000000008152600401611a5a906147a0565b60405180910390fd5b67016345785d8a0000600582848688611a7c919061431c565b611a86919061431c565b611a90919061431c565b611a9a91906142c2565b611aa491906142c2565b341015611ab057600080fd5b83601860008781526020019081526020016000206000828254611ad3919061431c565b9250508190555082601960008781526020019081526020016000206000828254611afd919061431c565b9250508190555081601a60008781526020019081526020016000206000828254611b27919061431c565b9250508190555080601b60008781526020019081526020016000206000828254611b51919061431c565b92505081905550611b6185611e14565b5050505050565b6000600560008473ffffffffffffffffffffffffffffffffffffffff1673ffffffffffffffffffffffffffffffffffffffff16815260200190815260200160002060008373ffffffffffffffffffffffffffffffffffffffff1673ffffffffffffffffffffffffffffffffffffffff16815260200190815260200160002060009054906101000a900460ff16905092915050565b611c04612490565b600073ffffffffffffffffffffffffffffffffffffffff168173ffffffffffffffffffffffffffffffffffffffff161415611c74576040517f08c379a0000000000000000000000000000000000000000000000000000000008152600401611c6b90614832565b60405180910390fd5b611c7d81612561565b50565b60007f01ffc9a7000000000000000000000000000000000000000000000000000000007bffffffffffffffffffffffffffffffffffffffffffffffffffffffff1916827bffffffffffffffffffffffffffffffffffffffffffffffffffffffff1916149050919050565b611cf38161286f565b611d32576040517f08c379a0000000000000000000000000000000000000000000000000000000008152600401611d299061461c565b60405180910390fd5b50565b600033905090565b816004600083815260200190815260200160002060006101000a81548173ffffffffffffffffffffffffffffffffffffffff021916908373ffffffffffffffffffffffffffffffffffffffff160217905550808273ffffffffffffffffffffffffffffffffffffffff16611db0836113c2565b73ffffffffffffffffffffffffffffffffffffffff167f8c5be1e5ebec7d5bd14f71427d1e84f3dd0314c0f7b2291e5b200ac8c7c3b92560405160405180910390a45050565b611e108282604051806020016040528060008152506128db565b5050565b6040518061014001604052806040518060400160405280600881526020017f42616c6c4d61696e0000000000000000000000000000000000000000000000008152508152602001601760008481526020019081526020016000205481526020016018600084815260200190815260200160002054815260200160196000848152602001908152602001600020548152602001601a6000848152602001908152602001600020548152602001601b6000848152602001908152602001600020548152602001601c6000848152602001908152602001600020548152602001601d6000848152602001908152602001600020548152602001601e6000848152602001908152602001600020548152602001601f600084815260200190815260200160002054815250600d6000820151816000019080519060200190611f58929190613780565b506020820151816001015560408201518160020155606082015181600301556080820151816004015560a0820151816005015560c0820151816006015560e082015181600701556101008201518160080155610120820151816009015590505060006020611fd86009600085815260200190815260200160002054612936565b604051602001611fe99291906148e6565b6040516020818303038152906040529050600061217583612009856113c2565b6040518060400160405280600581526020017f3842616c6c000000000000000000000000000000000000000000000000000000815250856040518060400160405280601781526020017f3842616c6c2069732066616e7461737469632067616d65000000000000000000815250600d6040518061014001604052908160008201805461209490613fba565b80601f01602080910402602001604051908101604052809291908181526020018280546120c090613fba565b801561210d5780601f106120e25761010080835404028352916020019161210d565b820191906000526020600020905b8154815290600101906020018083116120f057829003601f168201915b505050505081526020016001820154815260200160028201548152602001600382015481526020016004820154815260200160058201548152602001600682015481526020016007820154815260200160088201548152602001600982015481525050612a97565b9050600061218282612ae1565b905061218e8482612b12565b50505050565b6000806121a0836113c2565b90508073ffffffffffffffffffffffffffffffffffffffff168473ffffffffffffffffffffffffffffffffffffffff1614806121e257506121e18185611b68565b5b8061222057508373ffffffffffffffffffffffffffffffffffffffff16612208846109f2565b73ffffffffffffffffffffffffffffffffffffffff16145b91505092915050565b8273ffffffffffffffffffffffffffffffffffffffff16612249826113c2565b73ffffffffffffffffffffffffffffffffffffffff161461229f576040517f08c379a00000000000000000000000000000000000000000000000000000000081526004016122969061497c565b60405180910390fd5b600073ffffffffffffffffffffffffffffffffffffffff168273ffffffffffffffffffffffffffffffffffffffff16141561230f576040517f08c379a000000000000000000000000000000000000000000000000000000000815260040161230690614a0e565b60405180910390fd5b61231a838383612b86565b612325600082611d3d565b6001600360008573ffffffffffffffffffffffffffffffffffffffff1673ffffffffffffffffffffffffffffffffffffffff1681526020019081526020016000206000828254612375919061428e565b925050819055506001600360008473ffffffffffffffffffffffffffffffffffffffff1673ffffffffffffffffffffffffffffffffffffffff16815260200190815260200160002060008282546123cc919061431c565b92505081905550816002600083815260200190815260200160002060006101000a81548173ffffffffffffffffffffffffffffffffffffffff021916908373ffffffffffffffffffffffffffffffffffffffff160217905550808273ffffffffffffffffffffffffffffffffffffffff168473ffffffffffffffffffffffffffffffffffffffff167fddf252ad1be2c89b69c2b068fc378daa952ba7f163c4a11628f55a4df523b3ef60405160405180910390a461248b838383612b8b565b505050565b612498611d35565b73ffffffffffffffffffffffffffffffffffffffff166124b6611616565b73ffffffffffffffffffffffffffffffffffffffff161461250c576040517f08c379a000000000000000000000000000000000000000000000000000000000815260040161250390614a7a565b60405180910390fd5b565b61251781612b90565b600060066000838152602001908152602001600020805461253790613fba565b90501461255e5760066000828152602001908152602001600020600061255d9190613806565b5b50565b6000600760009054906101000a900473ffffffffffffffffffffffffffffffffffffffff16905081600760006101000a81548173ffffffffffffffffffffffffffffffffffffffff021916908373ffffffffffffffffffffffffffffffffffffffff1602179055508173ffffffffffffffffffffffffffffffffffffffff168173ffffffffffffffffffffffffffffffffffffffff167f8be0079c531659141344cd1fd0a4f28419497f9722a3daafe3b4186f6b6457e060405160405180910390a35050565b8173ffffffffffffffffffffffffffffffffffffffff168373ffffffffffffffffffffffffffffffffffffffff161415612696576040517f08c379a000000000000000000000000000000000000000000000000000000000815260040161268d90614ae6565b60405180910390fd5b80600560008573ffffffffffffffffffffffffffffffffffffffff1673ffffffffffffffffffffffffffffffffffffffff16815260200190815260200160002060008473ffffffffffffffffffffffffffffffffffffffff1673ffffffffffffffffffffffffffffffffffffffff16815260200190815260200160002060006101000a81548160ff0219169083151502179055508173ffffffffffffffffffffffffffffffffffffffff168373ffffffffffffffffffffffffffffffffffffffff167f17307eab39ab6107e8899845ad3d59bd9653f200f220920489ca2b5937696c31836040516127879190613917565b60405180910390a3505050565b61279f848484612229565b6127ab84848484612cad565b6127ea576040517f08c379a00000000000000000000000000000000000000000000000000000000081526004016127e190614b78565b60405180910390fd5b50505050565b606060405180602001604052806000815250905090565b606061281282611cea565b600061281c6127f0565b9050600081511161283c5760405180602001604052806000815250612867565b8061284684612936565b60405160200161285792919061470a565b6040516020818303038152906040525b915050919050565b60008073ffffffffffffffffffffffffffffffffffffffff166002600084815260200190815260200160002060009054906101000a900473ffffffffffffffffffffffffffffffffffffffff1673ffffffffffffffffffffffffffffffffffffffff1614159050919050565b6128e58383612e44565b6128f26000848484612cad565b612931576040517f08c379a000000000000000000000000000000000000000000000000000000000815260040161292890614b78565b60405180910390fd5b505050565b6060600082141561297e576040518060400160405280600181526020017f30000000000000000000000000000000000000000000000000000000000000008152509050612a92565b600082905060005b600082146129b057808061299990614245565b915050600a826129a99190614b98565b9150612986565b60008167ffffffffffffffff8111156129cc576129cb613b9f565b5b6040519080825280601f01601f1916602001820160405280156129fe5781602001600182028036833780820191505090505b5090505b60008514612a8b57600182612a17919061428e565b9150600a85612a2691906141e5565b6030612a32919061431c565b60f81b818381518110612a4857612a476144c0565b5b60200101907effffffffffffffffffffffffffffffffffffffffffffffffffffffffffffff1916908160001a905350600a85612a849190614b98565b9450612a02565b8093505050505b919050565b60606000612aa8888888888861301e565b905080612ab484613079565b604051602001612ac5929190614c61565b6040516020818303038152906040529150509695505050505050565b6060612aec82613165565b604051602001612afc9190614ce7565b6040516020818303038152906040529050919050565b612b1b8261286f565b612b5a576040517f08c379a0000000000000000000000000000000000000000000000000000000008152600401612b5190614d7b565b60405180910390fd5b80600660008481526020019081526020016000209080519060200190612b81929190613780565b505050565b505050565b505050565b6000612b9b826113c2565b9050612ba981600084612b86565b612bb4600083611d3d565b6001600360008373ffffffffffffffffffffffffffffffffffffffff1673ffffffffffffffffffffffffffffffffffffffff1681526020019081526020016000206000828254612c04919061428e565b925050819055506002600083815260200190815260200160002060006101000a81549073ffffffffffffffffffffffffffffffffffffffff021916905581600073ffffffffffffffffffffffffffffffffffffffff168273ffffffffffffffffffffffffffffffffffffffff167fddf252ad1be2c89b69c2b068fc378daa952ba7f163c4a11628f55a4df523b3ef60405160405180910390a4612ca981600084612b8b565b5050565b6000612cce8473ffffffffffffffffffffffffffffffffffffffff166132c9565b15612e37578373ffffffffffffffffffffffffffffffffffffffff1663150b7a02612cf7611d35565b8786866040518563ffffffff1660e01b8152600401612d199493929190614df0565b602060405180830381600087803b158015612d3357600080fd5b505af1925050508015612d6457506040513d601f19601f82011682018060405250810190612d619190614e51565b60015b612de7573d8060008114612d94576040519150601f19603f3d011682016040523d82523d6000602084013e612d99565b606091505b50600081511415612ddf576040517f08c379a0000000000000000000000000000000000000000000000000000000008152600401612dd690614b78565b60405180910390fd5b805181602001fd5b63150b7a0260e01b7bffffffffffffffffffffffffffffffffffffffffffffffffffffffff1916817bffffffffffffffffffffffffffffffffffffffffffffffffffffffff191614915050612e3c565b600190505b949350505050565b600073ffffffffffffffffffffffffffffffffffffffff168273ffffffffffffffffffffffffffffffffffffffff161415612eb4576040517f08c379a0000000000000000000000000000000000000000000000000000000008152600401612eab90614eca565b60405180910390fd5b612ebd8161286f565b15612efd576040517f08c379a0000000000000000000000000000000000000000000000000000000008152600401612ef490614f36565b60405180910390fd5b612f0960008383612b86565b6001600360008473ffffffffffffffffffffffffffffffffffffffff1673ffffffffffffffffffffffffffffffffffffffff1681526020019081526020016000206000828254612f59919061431c565b92505081905550816002600083815260200190815260200160002060006101000a81548173ffffffffffffffffffffffffffffffffffffffff021916908373ffffffffffffffffffffffffffffffffffffffff160217905550808273ffffffffffffffffffffffffffffffffffffffff16600073ffffffffffffffffffffffffffffffffffffffff167fddf252ad1be2c89b69c2b068fc378daa952ba7f163c4a11628f55a4df523b3ef60405160405180910390a461301a60008383612b8b565b5050565b60608361302a876132ec565b838561304b8973ffffffffffffffffffffffffffffffffffffffff166133c4565b60405160200161305f95949392919061511e565b604051602081830303815290604052905095945050505050565b6060600060405180602001604052806000815250905060008184600001516130a486602001516132ec565b6130b187604001516132ec565b6130be88606001516132ec565b6130cb89608001516132ec565b6130d88a60a001516132ec565b6130e58b60c001516132ec565b6130f28c60e001516132ec565b6131008d61010001516132ec565b61310e8e61012001516132ec565b6040516020016131289b9a9998979695949392919061551b565b60405160208183030381529060405290508091508160405160200161314d91906156dc565b60405160208183030381529060405292505050919050565b6060600082511415613188576040518060200160405280600081525090506132c4565b600060405180606001604052806040815260200161576b60409139905060006003600285516131b7919061431c565b6131c19190614b98565b60046131cd91906142c2565b67ffffffffffffffff8111156131e6576131e5613b9f565b5b6040519080825280601f01601f1916602001820160405280156132185781602001600182028036833780820191505090505b509050600182016020820185865187015b80821015613284576003820191508151603f8160121c168501518453600184019350603f81600c1c168501518453600184019350603f8160061c168501518453600184019350603f8116850151845360018401935050613229565b50506003865106600181146132a057600281146132b3576132bb565b603d6001830353603d60028303536132bb565b603d60018303535b50505080925050505b919050565b6000808273ffffffffffffffffffffffffffffffffffffffff163b119050919050565b6060600060016132fb846133f1565b01905060008167ffffffffffffffff81111561331a57613319613b9f565b5b6040519080825280601f01601f19166020018201604052801561334c5781602001600182028036833780820191505090505b509050600082602001820190505b6001156133b9578080600190039150507f3031323334353637383961626364656600000000000000000000000000000000600a86061a8153600a85816133a3576133a26141b6565b5b04945060008514156133b4576133b9565b61335a565b819350505050919050565b60606133ea8273ffffffffffffffffffffffffffffffffffffffff16601460ff16613544565b9050919050565b600080600090507a184f03e93ff9f4daa797ed6e38ed64bf6a1f010000000000000000831061344f577a184f03e93ff9f4daa797ed6e38ed64bf6a1f0100000000000000008381613445576134446141b6565b5b0492506040810190505b6d04ee2d6d415b85acef8100000000831061348c576d04ee2d6d415b85acef81000000008381613482576134816141b6565b5b0492506020810190505b662386f26fc1000083106134bb57662386f26fc1000083816134b1576134b06141b6565b5b0492506010810190505b6305f5e10083106134e4576305f5e10083816134da576134d96141b6565b5b0492506008810190505b61271083106135095761271083816134ff576134fe6141b6565b5b0492506004810190505b6064831061352c5760648381613522576135216141b6565b5b0492506002810190505b600a831061353b576001810190505b80915050919050565b60606000600283600261355791906142c2565b613561919061431c565b67ffffffffffffffff81111561357a57613579613b9f565b5b6040519080825280601f01601f1916602001820160405280156135ac5781602001600182028036833780820191505090505b5090507f3000000000000000000000000000000000000000000000000000000000000000816000815181106135e4576135e36144c0565b5b60200101907effffffffffffffffffffffffffffffffffffffffffffffffffffffffffffff1916908160001a9053507f780000000000000000000000000000000000000000000000000000000000000081600181518110613648576136476144c0565b5b60200101907effffffffffffffffffffffffffffffffffffffffffffffffffffffffffffff1916908160001a9053506000600184600261368891906142c2565b613692919061431c565b90505b6001811115613732577f3031323334353637383961626364656600000000000000000000000000000000600f8616601081106136d4576136d36144c0565b5b1a60f81b8282815181106136eb576136ea6144c0565b5b60200101907effffffffffffffffffffffffffffffffffffffffffffffffffffffffffffff1916908160001a905350600485901c94508061372b90614372565b9050613695565b5060008414613776576040517f08c379a000000000000000000000000000000000000000000000000000000000815260040161376d9061574a565b60405180910390fd5b8091505092915050565b82805461378c90613fba565b90600052602060002090601f0160209004810192826137ae57600085556137f5565b82601f106137c757805160ff19168380011785556137f5565b828001600101855582156137f5579182015b828111156137f45782518255916020019190600101906137d9565b5b5090506138029190613846565b5090565b50805461381290613fba565b6000825580601f106138245750613843565b601f0160209004906000526020600020908101906138429190613846565b5b50565b5b8082111561385f576000816000905550600101613847565b5090565b6000604051905090565b600080fd5b600080fd5b60007fffffffff0000000000000000000000000000000000000000000000000000000082169050919050565b6138ac81613877565b81146138b757600080fd5b50565b6000813590506138c9816138a3565b92915050565b6000602082840312156138e5576138e461386d565b5b60006138f3848285016138ba565b91505092915050565b60008115159050919050565b613911816138fc565b82525050565b600060208201905061392c6000830184613908565b92915050565b600081519050919050565b600082825260208201905092915050565b60005b8381101561396c578082015181840152602081019050613951565b8381111561397b576000848401525b50505050565b6000601f19601f8301169050919050565b600061399d82613932565b6139a7818561393d565b93506139b781856020860161394e565b6139c081613981565b840191505092915050565b600060208201905081810360008301526139e58184613992565b905092915050565b6000819050919050565b613a00816139ed565b8114613a0b57600080fd5b50565b600081359050613a1d816139f7565b92915050565b600060208284031215613a3957613a3861386d565b5b6000613a4784828501613a0e565b91505092915050565b600073ffffffffffffffffffffffffffffffffffffffff82169050919050565b6000613a7b82613a50565b9050919050565b613a8b81613a70565b82525050565b6000602082019050613aa66000830184613a82565b92915050565b613ab581613a70565b8114613ac057600080fd5b50565b600081359050613ad281613aac565b92915050565b60008060408385031215613aef57613aee61386d565b5b6000613afd85828601613ac3565b9250506020613b0e85828601613a0e565b9150509250929050565b613b21816139ed565b82525050565b6000602082019050613b3c6000830184613b18565b92915050565b600080600060608486031215613b5b57613b5a61386d565b5b6000613b6986828701613ac3565b9350506020613b7a86828701613ac3565b9250506040613b8b86828701613a0e565b9150509250925092565b600080fd5b600080fd5b7f4e487b7100000000000000000000000000000000000000000000000000000000600052604160045260246000fd5b613bd782613981565b810181811067ffffffffffffffff82111715613bf657613bf5613b9f565b5b80604052505050565b6000613c09613863565b9050613c158282613bce565b919050565b600067ffffffffffffffff821115613c3557613c34613b9f565b5b613c3e82613981565b9050602081019050919050565b82818337600083830152505050565b6000613c6d613c6884613c1a565b613bff565b905082815260208101848484011115613c8957613c88613b9a565b5b613c94848285613c4b565b509392505050565b600082601f830112613cb157613cb0613b95565b5b8135613cc1848260208601613c5a565b91505092915050565b600060208284031215613ce057613cdf61386d565b5b600082013567ffffffffffffffff811115613cfe57613cfd613872565b5b613d0a84828501613c9c565b91505092915050565b600060208284031215613d2957613d2861386d565b5b6000613d3784828501613ac3565b91505092915050565b613d49816138fc565b8114613d5457600080fd5b50565b600081359050613d6681613d40565b92915050565b60008060408385031215613d8357613d8261386d565b5b6000613d9185828601613ac3565b9250506020613da285828601613d57565b9150509250929050565b600067ffffffffffffffff821115613dc757613dc6613b9f565b5b613dd082613981565b9050602081019050919050565b6000613df0613deb84613dac565b613bff565b905082815260208101848484011115613e0c57613e0b613b9a565b5b613e17848285613c4b565b509392505050565b600082601f830112613e3457613e33613b95565b5b8135613e44848260208601613ddd565b91505092915050565b60008060008060808587031215613e6757613e6661386d565b5b6000613e7587828801613ac3565b9450506020613e8687828801613ac3565b9350506040613e9787828801613a0e565b925050606085013567ffffffffffffffff811115613eb857613eb7613872565b5b613ec487828801613e1f565b91505092959194509250565b600080600080600060a08688031215613eec57613eeb61386d565b5b6000613efa88828901613a0e565b9550506020613f0b88828901613a0e565b9450506040613f1c88828901613a0e565b9350506060613f2d88828901613a0e565b9250506080613f3e88828901613a0e565b9150509295509295909350565b60008060408385031215613f6257613f6161386d565b5b6000613f7085828601613ac3565b9250506020613f8185828601613ac3565b9150509250929050565b7f4e487b7100000000000000000000000000000000000000000000000000000000600052602260045260246000fd5b60006002820490506001821680613fd257607f821691505b60208210811415613fe657613fe5613f8b565b5b50919050565b7f4552433732313a20617070726f76616c20746f2063757272656e74206f776e6560008201527f7200000000000000000000000000000000000000000000000000000000000000602082015250565b600061404860218361393d565b915061405382613fec565b604082019050919050565b600060208201905081810360008301526140778161403b565b9050919050565b7f4552433732313a20617070726f76652063616c6c6572206973206e6f7420746f60008201527f6b656e206f776e6572206e6f7220617070726f76656420666f7220616c6c0000602082015250565b60006140da603e8361393d565b91506140e58261407e565b604082019050919050565b60006020820190508181036000830152614109816140cd565b9050919050565b6000819050919050565b61412b614126826139ed565b614110565b82525050565b60008160601b9050919050565b600061414982614131565b9050919050565b600061415b8261413e565b9050919050565b61417361416e82613a70565b614150565b82525050565b6000614185828661411a565b6020820191506141958285614162565b6014820191506141a5828461411a565b602082019150819050949350505050565b7f4e487b7100000000000000000000000000000000000000000000000000000000600052601260045260246000fd5b60006141f0826139ed565b91506141fb836139ed565b92508261420b5761420a6141b6565b5b828206905092915050565b7f4e487b7100000000000000000000000000000000000000000000000000000000600052601160045260246000fd5b6000614250826139ed565b91507fffffffffffffffffffffffffffffffffffffffffffffffffffffffffffffffff82141561428357614282614216565b5b600182019050919050565b6000614299826139ed565b91506142a4836139ed565b9250828210156142b7576142b6614216565b5b828203905092915050565b60006142cd826139ed565b91506142d8836139ed565b9250817fffffffffffffffffffffffffffffffffffffffffffffffffffffffffffffffff048311821515161561431157614310614216565b5b828202905092915050565b6000614327826139ed565b9150614332836139ed565b9250827fffffffffffffffffffffffffffffffffffffffffffffffffffffffffffffffff0382111561436757614366614216565b5b828201905092915050565b600061437d826139ed565b9150600082141561439157614390614216565b5b600182039050919050565b7f4552433732313a2063616c6c6572206973206e6f7420746f6b656e206f776e6560008201527f72206e6f7220617070726f766564000000000000000000000000000000000000602082015250565b60006143f8602e8361393d565b91506144038261439c565b604082019050919050565b60006020820190508181036000830152614427816143eb565b9050919050565b7f4f6e6c7920746865206f776e6572206f66204e46542063616e207472616e736660008201527f6572206f722062756e7420697400000000000000000000000000000000000000602082015250565b600061448a602d8361393d565b91506144958261442e565b604082019050919050565b600060208201905081810360008301526144b98161447d565b9050919050565b7f4e487b7100000000000000000000000000000000000000000000000000000000600052603260045260246000fd5b7f4e487b7100000000000000000000000000000000000000000000000000000000600052603160045260246000fd5b600081905092915050565b50565b600061453960008361451e565b915061454482614529565b600082019050919050565b600061455a8261452c565b9150819050919050565b7f5769746864726177206661696c00000000000000000000000000000000000000600082015250565b600061459a600d8361393d565b91506145a582614564565b602082019050919050565b600060208201905081810360008301526145c98161458d565b9050919050565b7f4552433732313a20696e76616c696420746f6b656e2049440000000000000000600082015250565b600061460660188361393d565b9150614611826145d0565b602082019050919050565b60006020820190508181036000830152614635816145f9565b9050919050565b7f4552433732313a2061646472657373207a65726f206973206e6f74206120766160008201527f6c6964206f776e65720000000000000000000000000000000000000000000000602082015250565b600061469860298361393d565b91506146a38261463c565b604082019050919050565b600060208201905081810360008301526146c78161468b565b9050919050565b600081905092915050565b60006146e482613932565b6146ee81856146ce565b93506146fe81856020860161394e565b80840191505092915050565b600061471682856146d9565b915061472282846146d9565b91508190509392505050565b7f557067726164652076616c65206d757374206265206d6f7265207468616e203060008201527f20616e64206c657373207468616e206d61782076616c75650000000000000000602082015250565b600061478a60388361393d565b91506147958261472e565b604082019050919050565b600060208201905081810360008301526147b98161477d565b9050919050565b7f4f776e61626c653a206e6577206f776e657220697320746865207a65726f206160008201527f6464726573730000000000000000000000000000000000000000000000000000602082015250565b600061481c60268361393d565b9150614827826147c0565b604082019050919050565b6000602082019050818103600083015261484b8161480f565b9050919050565b60008190508160005260206000209050919050565b6000815461487481613fba565b61487e81866146ce565b9450600182166000811461489957600181146148aa576148dd565b60ff198316865281860193506148dd565b6148b385614852565b60005b838110156148d5578154818901526001820191506020810190506148b6565b838801955050505b50505092915050565b60006148f28285614867565b91506148fe82846146d9565b91508190509392505050565b7f4552433732313a207472616e736665722066726f6d20696e636f72726563742060008201527f6f776e6572000000000000000000000000000000000000000000000000000000602082015250565b600061496660258361393d565b91506149718261490a565b604082019050919050565b6000602082019050818103600083015261499581614959565b9050919050565b7f4552433732313a207472616e7366657220746f20746865207a65726f2061646460008201527f7265737300000000000000000000000000000000000000000000000000000000602082015250565b60006149f860248361393d565b9150614a038261499c565b604082019050919050565b60006020820190508181036000830152614a27816149eb565b9050919050565b7f4f776e61626c653a2063616c6c6572206973206e6f7420746865206f776e6572600082015250565b6000614a6460208361393d565b9150614a6f82614a2e565b602082019050919050565b60006020820190508181036000830152614a9381614a57565b9050919050565b7f4552433732313a20617070726f766520746f2063616c6c657200000000000000600082015250565b6000614ad060198361393d565b9150614adb82614a9a565b602082019050919050565b60006020820190508181036000830152614aff81614ac3565b9050919050565b7f4552433732313a207472616e7366657220746f206e6f6e20455243373231526560008201527f63656976657220696d706c656d656e7465720000000000000000000000000000602082015250565b6000614b6260328361393d565b9150614b6d82614b06565b604082019050919050565b60006020820190508181036000830152614b9181614b55565b9050919050565b6000614ba3826139ed565b9150614bae836139ed565b925082614bbe57614bbd6141b6565b5b828204905092915050565b7f7b00000000000000000000000000000000000000000000000000000000000000600082015250565b6000614bff6001836146ce565b9150614c0a82614bc9565b600182019050919050565b7f7d00000000000000000000000000000000000000000000000000000000000000600082015250565b6000614c4b6001836146ce565b9150614c5682614c15565b600182019050919050565b6000614c6c82614bf2565b9150614c7882856146d9565b9150614c8482846146d9565b9150614c8f82614c3e565b91508190509392505050565b7f646174613a6170706c69636174696f6e2f6a736f6e3b6261736536342c000000600082015250565b6000614cd1601d836146ce565b9150614cdc82614c9b565b601d82019050919050565b6000614cf282614cc4565b9150614cfe82846146d9565b915081905092915050565b7f45524337323155524953746f726167653a2055524920736574206f66206e6f6e60008201527f6578697374656e7420746f6b656e000000000000000000000000000000000000602082015250565b6000614d65602e8361393d565b9150614d7082614d09565b604082019050919050565b60006020820190508181036000830152614d9481614d58565b9050919050565b600081519050919050565b600082825260208201905092915050565b6000614dc282614d9b565b614dcc8185614da6565b9350614ddc81856020860161394e565b614de581613981565b840191505092915050565b6000608082019050614e056000830187613a82565b614e126020830186613a82565b614e1f6040830185613b18565b8181036060830152614e318184614db7565b905095945050505050565b600081519050614e4b816138a3565b92915050565b600060208284031215614e6757614e6661386d565b5b6000614e7584828501614e3c565b91505092915050565b7f4552433732313a206d696e7420746f20746865207a65726f2061646472657373600082015250565b6000614eb460208361393d565b9150614ebf82614e7e565b602082019050919050565b60006020820190508181036000830152614ee381614ea7565b9050919050565b7f4552433732313a20746f6b656e20616c7265616479206d696e74656400000000600082015250565b6000614f20601c8361393d565b9150614f2b82614eea565b602082019050919050565b60006020820190508181036000830152614f4f81614f13565b9050919050565b7f226e616d65223a22000000000000000000000000000000000000000000000000600082015250565b6000614f8c6008836146ce565b9150614f9782614f56565b600882019050919050565b7f222c000000000000000000000000000000000000000000000000000000000000600082015250565b6000614fd86002836146ce565b9150614fe382614fa2565b600282019050919050565b7f22746f6b656e4964223a22000000000000000000000000000000000000000000600082015250565b6000615024600b836146ce565b915061502f82614fee565b600b82019050919050565b7f226465736372697074696f6e223a220000000000000000000000000000000000600082015250565b6000615070600f836146ce565b915061507b8261503a565b600f82019050919050565b7f22696d616765223a220000000000000000000000000000000000000000000000600082015250565b60006150bc6009836146ce565b91506150c782615086565b600982019050919050565b7f226f776e6572223a220000000000000000000000000000000000000000000000600082015250565b60006151086009836146ce565b9150615113826150d2565b600982019050919050565b600061512982614f7f565b915061513582886146d9565b915061514082614fcb565b915061514b82615017565b915061515782876146d9565b915061516282614fcb565b915061516d82615063565b915061517982866146d9565b915061518482614fcb565b915061518f826150af565b915061519b82856146d9565b91506151a682614fcb565b91506151b1826150fb565b91506151bd82846146d9565b91506151c882614fcb565b91508190509695505050505050565b7f7b226d696e7454797065223a2200000000000000000000000000000000000000600082015250565b600061520d600d836146ce565b9150615218826151d7565b600d82019050919050565b7f2263617465676f7279223a000000000000000000000000000000000000000000600082015250565b6000615259600b836146ce565b915061526482615223565b600b82019050919050565b7f2c00000000000000000000000000000000000000000000000000000000000000600082015250565b60006152a56001836146ce565b91506152b08261526f565b600182019050919050565b7f2263757272656e74506f7765724c766c223a0000000000000000000000000000600082015250565b60006152f16012836146ce565b91506152fc826152bb565b601282019050919050565b7f2263757272656e7441636375726163794c766c223a0000000000000000000000600082015250565b600061533d6015836146ce565b915061534882615307565b601582019050919050565b7f2263757272656e745370696e4c766c223a000000000000000000000000000000600082015250565b60006153896011836146ce565b915061539482615353565b601182019050919050565b7f2263757272656e7454696d654c766c223a000000000000000000000000000000600082015250565b60006153d56011836146ce565b91506153e08261539f565b601182019050919050565b7f226d6178506f7765724c766c223a000000000000000000000000000000000000600082015250565b6000615421600e836146ce565b915061542c826153eb565b600e82019050919050565b7f226d617841636375726163794c766c223a000000000000000000000000000000600082015250565b600061546d6011836146ce565b915061547882615437565b601182019050919050565b7f226d61785370696e4c766c223a00000000000000000000000000000000000000600082015250565b60006154b9600d836146ce565b91506154c482615483565b600d82019050919050565b7f226d617854696d654c766c223a00000000000000000000000000000000000000600082015250565b6000615505600d836146ce565b9150615510826154cf565b600d82019050919050565b6000615527828e6146d9565b915061553282615200565b915061553e828d6146d9565b915061554982614fcb565b91506155548261524c565b9150615560828c6146d9565b915061556b82615298565b9150615576826152e4565b9150615582828b6146d9565b915061558d82615298565b915061559882615330565b91506155a4828a6146d9565b91506155af82615298565b91506155ba8261537c565b91506155c682896146d9565b91506155d182615298565b91506155dc826153c8565b91506155e882886146d9565b91506155f382615298565b91506155fe82615414565b915061560a82876146d9565b915061561582615298565b915061562082615460565b915061562c82866146d9565b915061563782615298565b9150615642826154ac565b915061564e82856146d9565b915061565982615298565b9150615664826154f8565b915061567082846146d9565b915061567b82614c3e565b91508190509c9b505050505050505050505050565b7f2261747472696275746573223a00000000000000000000000000000000000000600082015250565b60006156c6600d836146ce565b91506156d182615690565b600d82019050919050565b60006156e7826156b9565b91506156f382846146d9565b915081905092915050565b7f537472696e67733a20686578206c656e67746820696e73756666696369656e74600082015250565b600061573460208361393d565b915061573f826156fe565b602082019050919050565b6000602082019050818103600083015261576381615727565b905091905056fe4142434445464748494a4b4c4d4e4f505152535455565758595a6162636465666768696a6b6c6d6e6f707172737475767778797a303132333435363738392b2fa264697066735822122038a53e3b8edeb64dc80674742b82ca94b1446f14aa7a2d36c43da9c150e4a19e64736f6c63430008090033","opcodes":"PUSH1 0x80 PUSH1 0x40 MSTORE CALLVALUE DUP1 ISZERO PUSH3 0x11 JUMPI PUSH1 0x0 DUP1 REVERT JUMPDEST POP PUSH1 0x40 MLOAD DUP1 PUSH1 0x40 ADD PUSH1 0x40 MSTORE DUP1 PUSH1 0x8 DUP2 MSTORE PUSH1 0x20 ADD PUSH32 0x42616C6C4D61696E000000000000000000000000000000000000000000000000 DUP2 MSTORE POP PUSH1 0x40 MLOAD DUP1 PUSH1 0x40 ADD PUSH1 0x40 MSTORE DUP1 PUSH1 0x3 DUP2 MSTORE PUSH1 0x20 ADD PUSH32 0x42414D0000000000000000000000000000000000000000000000000000000000 DUP2 MSTORE POP DUP2 PUSH1 0x0 SWAP1 DUP1 MLOAD SWAP1 PUSH1 0x20 ADD SWAP1 PUSH3 0x96 SWAP3 SWAP2 SWAP1 PUSH3 0x26B JUMP JUMPDEST POP DUP1 PUSH1 0x1 SWAP1 DUP1 MLOAD SWAP1 PUSH1 0x20 ADD SWAP1 PUSH3 0xAF SWAP3 SWAP2 SWAP1 PUSH3 0x26B JUMP JUMPDEST POP POP POP PUSH3 0xD2 PUSH3 0xC6 PUSH3 0x19D PUSH1 0x20 SHL PUSH1 0x20 SHR JUMP JUMPDEST PUSH3 0x1A5 PUSH1 0x20 SHL PUSH1 0x20 SHR JUMP JUMPDEST PUSH1 0x0 JUMPDEST PUSH1 0x1E DUP2 LT ISZERO PUSH3 0x124 JUMPI PUSH1 0xC8 PUSH1 0xB PUSH1 0x0 DUP4 DUP2 MSTORE PUSH1 0x20 ADD SWAP1 DUP2 MSTORE PUSH1 0x20 ADD PUSH1 0x0 KECCAK256 DUP2 SWAP1 SSTORE PUSH1 0xA PUSH1 0x0 DUP4 DUP2 MSTORE PUSH1 0x20 ADD SWAP1 DUP2 MSTORE PUSH1 0x20 ADD PUSH1 0x0 KECCAK256 DUP2 SWAP1 SSTORE POP DUP1 DUP1 PUSH3 0x11B SWAP1 PUSH3 0x354 JUMP JUMPDEST SWAP2 POP POP PUSH3 0xD5 JUMP JUMPDEST POP PUSH1 0x0 JUMPDEST PUSH1 0x3C DUP2 LT ISZERO PUSH3 0x185 JUMPI PUSH1 0x64 PUSH1 0xB PUSH1 0x0 DUP4 DUP2 MSTORE PUSH1 0x20 ADD SWAP1 DUP2 MSTORE PUSH1 0x20 ADD PUSH1 0x0 KECCAK256 DUP2 SWAP1 SSTORE PUSH1 0xA PUSH1 0x0 PUSH1 0x1E DUP5 PUSH3 0x15D SWAP2 SWAP1 PUSH3 0x3A2 JUMP JUMPDEST DUP2 MSTORE PUSH1 0x20 ADD SWAP1 DUP2 MSTORE PUSH1 0x20 ADD PUSH1 0x0 KECCAK256 DUP2 SWAP1 SSTORE POP DUP1 DUP1 PUSH3 0x17C SWAP1 PUSH3 0x354 JUMP JUMPDEST SWAP2 POP POP PUSH3 0x128 JUMP JUMPDEST POP PUSH1 0x0 PUSH1 0x21 DUP2 SWAP1 SSTORE POP PUSH2 0x2EE0 PUSH1 0x22 DUP2 SWAP1 SSTORE POP PUSH3 0x464 JUMP JUMPDEST PUSH1 0x0 CALLER SWAP1 POP SWAP1 JUMP JUMPDEST PUSH1 0x0 PUSH1 0x7 PUSH1 0x0 SWAP1 SLOAD SWAP1 PUSH2 0x100 EXP SWAP1 DIV PUSH20 0xFFFFFFFFFFFFFFFFFFFFFFFFFFFFFFFFFFFFFFFF AND SWAP1 POP DUP2 PUSH1 0x7 PUSH1 0x0 PUSH2 0x100 EXP DUP2 SLOAD DUP2 PUSH20 0xFFFFFFFFFFFFFFFFFFFFFFFFFFFFFFFFFFFFFFFF MUL NOT AND SWAP1 DUP4 PUSH20 0xFFFFFFFFFFFFFFFFFFFFFFFFFFFFFFFFFFFFFFFF AND MUL OR SWAP1 SSTORE POP DUP2 PUSH20 0xFFFFFFFFFFFFFFFFFFFFFFFFFFFFFFFFFFFFFFFF AND DUP2 PUSH20 0xFFFFFFFFFFFFFFFFFFFFFFFFFFFFFFFFFFFFFFFF AND PUSH32 0x8BE0079C531659141344CD1FD0A4F28419497F9722A3DAAFE3B4186F6B6457E0 PUSH1 0x40 MLOAD PUSH1 0x40 MLOAD DUP1 SWAP2 SUB SWAP1 LOG3 POP POP JUMP JUMPDEST DUP3 DUP1 SLOAD PUSH3 0x279 SWAP1 PUSH3 0x42E JUMP JUMPDEST SWAP1 PUSH1 0x0 MSTORE PUSH1 0x20 PUSH1 0x0 KECCAK256 SWAP1 PUSH1 0x1F ADD PUSH1 0x20 SWAP1 DIV DUP2 ADD SWAP3 DUP3 PUSH3 0x29D JUMPI PUSH1 0x0 DUP6 SSTORE PUSH3 0x2E9 JUMP JUMPDEST DUP3 PUSH1 0x1F LT PUSH3 0x2B8 JUMPI DUP1 MLOAD PUSH1 0xFF NOT AND DUP4 DUP1 ADD OR DUP6 SSTORE PUSH3 0x2E9 JUMP JUMPDEST DUP3 DUP1 ADD PUSH1 0x1 ADD DUP6 SSTORE DUP3 ISZERO PUSH3 0x2E9 JUMPI SWAP2 DUP3 ADD JUMPDEST DUP3 DUP2 GT ISZERO PUSH3 0x2E8 JUMPI DUP3 MLOAD DUP3 SSTORE SWAP2 PUSH1 0x20 ADD SWAP2 SWAP1 PUSH1 0x1 ADD SWAP1 PUSH3 0x2CB JUMP JUMPDEST JUMPDEST POP SWAP1 POP PUSH3 0x2F8 SWAP2 SWAP1 PUSH3 0x2FC JUMP JUMPDEST POP SWAP1 JUMP JUMPDEST JUMPDEST DUP1 DUP3 GT ISZERO PUSH3 0x317 JUMPI PUSH1 0x0 DUP2 PUSH1 0x0 SWAP1 SSTORE POP PUSH1 0x1 ADD PUSH3 0x2FD JUMP JUMPDEST POP SWAP1 JUMP JUMPDEST PUSH32 0x4E487B7100000000000000000000000000000000000000000000000000000000 PUSH1 0x0 MSTORE PUSH1 0x11 PUSH1 0x4 MSTORE PUSH1 0x24 PUSH1 0x0 REVERT JUMPDEST PUSH1 0x0 DUP2 SWAP1 POP SWAP2 SWAP1 POP JUMP JUMPDEST PUSH1 0x0 PUSH3 0x361 DUP3 PUSH3 0x34A JUMP JUMPDEST SWAP2 POP PUSH32 0xFFFFFFFFFFFFFFFFFFFFFFFFFFFFFFFFFFFFFFFFFFFFFFFFFFFFFFFFFFFFFFFF DUP3 EQ ISZERO PUSH3 0x397 JUMPI PUSH3 0x396 PUSH3 0x31B JUMP JUMPDEST JUMPDEST PUSH1 0x1 DUP3 ADD SWAP1 POP SWAP2 SWAP1 POP JUMP JUMPDEST PUSH1 0x0 PUSH3 0x3AF DUP3 PUSH3 0x34A JUMP JUMPDEST SWAP2 POP PUSH3 0x3BC DUP4 PUSH3 0x34A JUMP JUMPDEST SWAP3 POP DUP3 PUSH32 0xFFFFFFFFFFFFFFFFFFFFFFFFFFFFFFFFFFFFFFFFFFFFFFFFFFFFFFFFFFFFFFFF SUB DUP3 GT ISZERO PUSH3 0x3F4 JUMPI PUSH3 0x3F3 PUSH3 0x31B JUMP JUMPDEST JUMPDEST DUP3 DUP3 ADD SWAP1 POP SWAP3 SWAP2 POP POP JUMP JUMPDEST PUSH32 0x4E487B7100000000000000000000000000000000000000000000000000000000 PUSH1 0x0 MSTORE PUSH1 0x22 PUSH1 0x4 MSTORE PUSH1 0x24 PUSH1 0x0 REVERT JUMPDEST PUSH1 0x0 PUSH1 0x2 DUP3 DIV SWAP1 POP PUSH1 0x1 DUP3 AND DUP1 PUSH3 0x447 JUMPI PUSH1 0x7F DUP3 AND SWAP2 POP JUMPDEST PUSH1 0x20 DUP3 LT DUP2 EQ ISZERO PUSH3 0x45E JUMPI PUSH3 0x45D PUSH3 0x3FF JUMP JUMPDEST JUMPDEST POP SWAP2 SWAP1 POP JUMP JUMPDEST PUSH2 0x57E0 DUP1 PUSH3 0x474 PUSH1 0x0 CODECOPY PUSH1 0x0 RETURN INVALID PUSH1 0x80 PUSH1 0x40 MSTORE PUSH1 0x4 CALLDATASIZE LT PUSH2 0x1F9 JUMPI PUSH1 0x0 CALLDATALOAD PUSH1 0xE0 SHR DUP1 PUSH4 0x70A08231 GT PUSH2 0x10D JUMPI DUP1 PUSH4 0xA22CB465 GT PUSH2 0xA0 JUMPI DUP1 PUSH4 0xC9083CD9 GT PUSH2 0x6F JUMPI DUP1 PUSH4 0xC9083CD9 EQ PUSH2 0x782 JUMPI DUP1 PUSH4 0xCC17E15D EQ PUSH2 0x7BF JUMPI DUP1 PUSH4 0xD55CAE27 EQ PUSH2 0x7FC JUMPI DUP1 PUSH4 0xE985E9C5 EQ PUSH2 0x818 JUMPI DUP1 PUSH4 0xF2FDE38B EQ PUSH2 0x855 JUMPI PUSH2 0x1F9 JUMP JUMPDEST DUP1 PUSH4 0xA22CB465 EQ PUSH2 0x6B6 JUMPI DUP1 PUSH4 0xB49F7E2D EQ PUSH2 0x6DF JUMPI DUP1 PUSH4 0xB88D4FDE EQ PUSH2 0x71C JUMPI DUP1 PUSH4 0xC87B56DD EQ PUSH2 0x745 JUMPI PUSH2 0x1F9 JUMP JUMPDEST DUP1 PUSH4 0x8CC04784 GT PUSH2 0xDC JUMPI DUP1 PUSH4 0x8CC04784 EQ PUSH2 0x5F8 JUMPI DUP1 PUSH4 0x8DA5CB5B EQ PUSH2 0x635 JUMPI DUP1 PUSH4 0x95D89B41 EQ PUSH2 0x660 JUMPI DUP1 PUSH4 0x9F181B5E EQ PUSH2 0x68B JUMPI PUSH2 0x1F9 JUMP JUMPDEST DUP1 PUSH4 0x70A08231 EQ PUSH2 0x53C JUMPI DUP1 PUSH4 0x715018A6 EQ PUSH2 0x579 JUMPI DUP1 PUSH4 0x77645839 EQ PUSH2 0x590 JUMPI DUP1 PUSH4 0x81A4B116 EQ PUSH2 0x5BB JUMPI PUSH2 0x1F9 JUMP JUMPDEST DUP1 PUSH4 0x2603F287 GT PUSH2 0x190 JUMPI DUP1 PUSH4 0x4311DE8F GT PUSH2 0x15F JUMPI DUP1 PUSH4 0x4311DE8F EQ PUSH2 0x431 JUMPI DUP1 PUSH4 0x4FFFBE0E EQ PUSH2 0x448 JUMPI DUP1 PUSH4 0x52A3302B EQ PUSH2 0x485 JUMPI DUP1 PUSH4 0x6352211E EQ PUSH2 0x4C2 JUMPI DUP1 PUSH4 0x6F2829BA EQ PUSH2 0x4FF JUMPI PUSH2 0x1F9 JUMP JUMPDEST DUP1 PUSH4 0x2603F287 EQ PUSH2 0x379 JUMPI DUP1 PUSH4 0x39B92BBB EQ PUSH2 0x3B6 JUMPI DUP1 PUSH4 0x42842E0E EQ PUSH2 0x3DF JUMPI DUP1 PUSH4 0x42966C68 EQ PUSH2 0x408 JUMPI PUSH2 0x1F9 JUMP JUMPDEST DUP1 PUSH4 0x1249C58B GT PUSH2 0x1CC JUMPI DUP1 PUSH4 0x1249C58B EQ PUSH2 0x2CC JUMPI DUP1 PUSH4 0x22EA00F9 EQ PUSH2 0x2D6 JUMPI DUP1 PUSH4 0x23B872DD EQ PUSH2 0x313 JUMPI DUP1 PUSH4 0x253ECA1F EQ PUSH2 0x33C JUMPI PUSH2 0x1F9 JUMP JUMPDEST DUP1 PUSH4 0x1FFC9A7 EQ PUSH2 0x1FE JUMPI DUP1 PUSH4 0x6FDDE03 EQ PUSH2 0x23B JUMPI DUP1 PUSH4 0x81812FC EQ PUSH2 0x266 JUMPI DUP1 PUSH4 0x95EA7B3 EQ PUSH2 0x2A3 JUMPI JUMPDEST PUSH1 0x0 DUP1 REVERT JUMPDEST CALLVALUE DUP1 ISZERO PUSH2 0x20A JUMPI PUSH1 0x0 DUP1 REVERT JUMPDEST POP PUSH2 0x225 PUSH1 0x4 DUP1 CALLDATASIZE SUB DUP2 ADD SWAP1 PUSH2 0x220 SWAP2 SWAP1 PUSH2 0x38CF JUMP JUMPDEST PUSH2 0x87E JUMP JUMPDEST PUSH1 0x40 MLOAD PUSH2 0x232 SWAP2 SWAP1 PUSH2 0x3917 JUMP JUMPDEST PUSH1 0x40 MLOAD DUP1 SWAP2 SUB SWAP1 RETURN JUMPDEST CALLVALUE DUP1 ISZERO PUSH2 0x247 JUMPI PUSH1 0x0 DUP1 REVERT JUMPDEST POP PUSH2 0x250 PUSH2 0x960 JUMP JUMPDEST PUSH1 0x40 MLOAD PUSH2 0x25D SWAP2 SWAP1 PUSH2 0x39CB JUMP JUMPDEST PUSH1 0x40 MLOAD DUP1 SWAP2 SUB SWAP1 RETURN JUMPDEST CALLVALUE DUP1 ISZERO PUSH2 0x272 JUMPI PUSH1 0x0 DUP1 REVERT JUMPDEST POP PUSH2 0x28D PUSH1 0x4 DUP1 CALLDATASIZE SUB DUP2 ADD SWAP1 PUSH2 0x288 SWAP2 SWAP1 PUSH2 0x3A23 JUMP JUMPDEST PUSH2 0x9F2 JUMP JUMPDEST PUSH1 0x40 MLOAD PUSH2 0x29A SWAP2 SWAP1 PUSH2 0x3A91 JUMP JUMPDEST PUSH1 0x40 MLOAD DUP1 SWAP2 SUB SWAP1 RETURN JUMPDEST CALLVALUE DUP1 ISZERO PUSH2 0x2AF JUMPI PUSH1 0x0 DUP1 REVERT JUMPDEST POP PUSH2 0x2CA PUSH1 0x4 DUP1 CALLDATASIZE SUB DUP2 ADD SWAP1 PUSH2 0x2C5 SWAP2 SWAP1 PUSH2 0x3AD8 JUMP JUMPDEST PUSH2 0xA38 JUMP JUMPDEST STOP JUMPDEST PUSH2 0x2D4 PUSH2 0xB50 JUMP JUMPDEST STOP JUMPDEST CALLVALUE DUP1 ISZERO PUSH2 0x2E2 JUMPI PUSH1 0x0 DUP1 REVERT JUMPDEST POP PUSH2 0x2FD PUSH1 0x4 DUP1 CALLDATASIZE SUB DUP2 ADD SWAP1 PUSH2 0x2F8 SWAP2 SWAP1 PUSH2 0x3A23 JUMP JUMPDEST PUSH2 0xF06 JUMP JUMPDEST PUSH1 0x40 MLOAD PUSH2 0x30A SWAP2 SWAP1 PUSH2 0x3B27 JUMP JUMPDEST PUSH1 0x40 MLOAD DUP1 SWAP2 SUB SWAP1 RETURN JUMPDEST CALLVALUE DUP1 ISZERO PUSH2 0x31F JUMPI PUSH1 0x0 DUP1 REVERT JUMPDEST POP PUSH2 0x33A PUSH1 0x4 DUP1 CALLDATASIZE SUB DUP2 ADD SWAP1 PUSH2 0x335 SWAP2 SWAP1 PUSH2 0x3B42 JUMP JUMPDEST PUSH2 0xF1E JUMP JUMPDEST STOP JUMPDEST CALLVALUE DUP1 ISZERO PUSH2 0x348 JUMPI PUSH1 0x0 DUP1 REVERT JUMPDEST POP PUSH2 0x363 PUSH1 0x4 DUP1 CALLDATASIZE SUB DUP2 ADD SWAP1 PUSH2 0x35E SWAP2 SWAP1 PUSH2 0x3A23 JUMP JUMPDEST PUSH2 0xF7E JUMP JUMPDEST PUSH1 0x40 MLOAD PUSH2 0x370 SWAP2 SWAP1 PUSH2 0x3B27 JUMP JUMPDEST PUSH1 0x40 MLOAD DUP1 SWAP2 SUB SWAP1 RETURN JUMPDEST CALLVALUE DUP1 ISZERO PUSH2 0x385 JUMPI PUSH1 0x0 DUP1 REVERT JUMPDEST POP PUSH2 0x3A0 PUSH1 0x4 DUP1 CALLDATASIZE SUB DUP2 ADD SWAP1 PUSH2 0x39B SWAP2 SWAP1 PUSH2 0x3A23 JUMP JUMPDEST PUSH2 0xF96 JUMP JUMPDEST PUSH1 0x40 MLOAD PUSH2 0x3AD SWAP2 SWAP1 PUSH2 0x3B27 JUMP JUMPDEST PUSH1 0x40 MLOAD DUP1 SWAP2 SUB SWAP1 RETURN JUMPDEST CALLVALUE DUP1 ISZERO PUSH2 0x3C2 JUMPI PUSH1 0x0 DUP1 REVERT JUMPDEST POP PUSH2 0x3DD PUSH1 0x4 DUP1 CALLDATASIZE SUB DUP2 ADD SWAP1 PUSH2 0x3D8 SWAP2 SWAP1 PUSH2 0x3CCA JUMP JUMPDEST PUSH2 0xFAE JUMP JUMPDEST STOP JUMPDEST CALLVALUE DUP1 ISZERO PUSH2 0x3EB JUMPI PUSH1 0x0 DUP1 REVERT JUMPDEST POP PUSH2 0x406 PUSH1 0x4 DUP1 CALLDATASIZE SUB DUP2 ADD SWAP1 PUSH2 0x401 SWAP2 SWAP1 PUSH2 0x3B42 JUMP JUMPDEST PUSH2 0xFD0 JUMP JUMPDEST STOP JUMPDEST CALLVALUE DUP1 ISZERO PUSH2 0x414 JUMPI PUSH1 0x0 DUP1 REVERT JUMPDEST POP PUSH2 0x42F PUSH1 0x4 DUP1 CALLDATASIZE SUB DUP2 ADD SWAP1 PUSH2 0x42A SWAP2 SWAP1 PUSH2 0x3A23 JUMP JUMPDEST PUSH2 0xFF0 JUMP JUMPDEST STOP JUMPDEST CALLVALUE DUP1 ISZERO PUSH2 0x43D JUMPI PUSH1 0x0 DUP1 REVERT JUMPDEST POP PUSH2 0x446 PUSH2 0x12D5 JUMP JUMPDEST STOP JUMPDEST CALLVALUE DUP1 ISZERO PUSH2 0x454 JUMPI PUSH1 0x0 DUP1 REVERT JUMPDEST POP PUSH2 0x46F PUSH1 0x4 DUP1 CALLDATASIZE SUB DUP2 ADD SWAP1 PUSH2 0x46A SWAP2 SWAP1 PUSH2 0x3A23 JUMP JUMPDEST PUSH2 0x1392 JUMP JUMPDEST PUSH1 0x40 MLOAD PUSH2 0x47C SWAP2 SWAP1 PUSH2 0x3B27 JUMP JUMPDEST PUSH1 0x40 MLOAD DUP1 SWAP2 SUB SWAP1 RETURN JUMPDEST CALLVALUE DUP1 ISZERO PUSH2 0x491 JUMPI PUSH1 0x0 DUP1 REVERT JUMPDEST POP PUSH2 0x4AC PUSH1 0x4 DUP1 CALLDATASIZE SUB DUP2 ADD SWAP1 PUSH2 0x4A7 SWAP2 SWAP1 PUSH2 0x3A23 JUMP JUMPDEST PUSH2 0x13AA JUMP JUMPDEST PUSH1 0x40 MLOAD PUSH2 0x4B9 SWAP2 SWAP1 PUSH2 0x3B27 JUMP JUMPDEST PUSH1 0x40 MLOAD DUP1 SWAP2 SUB SWAP1 RETURN JUMPDEST CALLVALUE DUP1 ISZERO PUSH2 0x4CE JUMPI PUSH1 0x0 DUP1 REVERT JUMPDEST POP PUSH2 0x4E9 PUSH1 0x4 DUP1 CALLDATASIZE SUB DUP2 ADD SWAP1 PUSH2 0x4E4 SWAP2 SWAP1 PUSH2 0x3A23 JUMP JUMPDEST PUSH2 0x13C2 JUMP JUMPDEST PUSH1 0x40 MLOAD PUSH2 0x4F6 SWAP2 SWAP1 PUSH2 0x3A91 JUMP JUMPDEST PUSH1 0x40 MLOAD DUP1 SWAP2 SUB SWAP1 RETURN JUMPDEST CALLVALUE DUP1 ISZERO PUSH2 0x50B JUMPI PUSH1 0x0 DUP1 REVERT JUMPDEST POP PUSH2 0x526 PUSH1 0x4 DUP1 CALLDATASIZE SUB DUP2 ADD SWAP1 PUSH2 0x521 SWAP2 SWAP1 PUSH2 0x3A23 JUMP JUMPDEST PUSH2 0x1474 JUMP JUMPDEST PUSH1 0x40 MLOAD PUSH2 0x533 SWAP2 SWAP1 PUSH2 0x3B27 JUMP JUMPDEST PUSH1 0x40 MLOAD DUP1 SWAP2 SUB SWAP1 RETURN JUMPDEST CALLVALUE DUP1 ISZERO PUSH2 0x548 JUMPI PUSH1 0x0 DUP1 REVERT JUMPDEST POP PUSH2 0x563 PUSH1 0x4 DUP1 CALLDATASIZE SUB DUP2 ADD SWAP1 PUSH2 0x55E SWAP2 SWAP1 PUSH2 0x3D13 JUMP JUMPDEST PUSH2 0x148C JUMP JUMPDEST PUSH1 0x40 MLOAD PUSH2 0x570 SWAP2 SWAP1 PUSH2 0x3B27 JUMP JUMPDEST PUSH1 0x40 MLOAD DUP1 SWAP2 SUB SWAP1 RETURN JUMPDEST CALLVALUE DUP1 ISZERO PUSH2 0x585 JUMPI PUSH1 0x0 DUP1 REVERT JUMPDEST POP PUSH2 0x58E PUSH2 0x1544 JUMP JUMPDEST STOP JUMPDEST CALLVALUE DUP1 ISZERO PUSH2 0x59C JUMPI PUSH1 0x0 DUP1 REVERT JUMPDEST POP PUSH2 0x5A5 PUSH2 0x1558 JUMP JUMPDEST PUSH1 0x40 MLOAD PUSH2 0x5B2 SWAP2 SWAP1 PUSH2 0x39CB JUMP JUMPDEST PUSH1 0x40 MLOAD DUP1 SWAP2 SUB SWAP1 RETURN JUMPDEST CALLVALUE DUP1 ISZERO PUSH2 0x5C7 JUMPI PUSH1 0x0 DUP1 REVERT JUMPDEST POP PUSH2 0x5E2 PUSH1 0x4 DUP1 CALLDATASIZE SUB DUP2 ADD SWAP1 PUSH2 0x5DD SWAP2 SWAP1 PUSH2 0x3A23 JUMP JUMPDEST PUSH2 0x15E6 JUMP JUMPDEST PUSH1 0x40 MLOAD PUSH2 0x5EF SWAP2 SWAP1 PUSH2 0x3B27 JUMP JUMPDEST PUSH1 0x40 MLOAD DUP1 SWAP2 SUB SWAP1 RETURN JUMPDEST CALLVALUE DUP1 ISZERO PUSH2 0x604 JUMPI PUSH1 0x0 DUP1 REVERT JUMPDEST POP PUSH2 0x61F PUSH1 0x4 DUP1 CALLDATASIZE SUB DUP2 ADD SWAP1 PUSH2 0x61A SWAP2 SWAP1 PUSH2 0x3A23 JUMP JUMPDEST PUSH2 0x15FE JUMP JUMPDEST PUSH1 0x40 MLOAD PUSH2 0x62C SWAP2 SWAP1 PUSH2 0x3B27 JUMP JUMPDEST PUSH1 0x40 MLOAD DUP1 SWAP2 SUB SWAP1 RETURN JUMPDEST CALLVALUE DUP1 ISZERO PUSH2 0x641 JUMPI PUSH1 0x0 DUP1 REVERT JUMPDEST POP PUSH2 0x64A PUSH2 0x1616 JUMP JUMPDEST PUSH1 0x40 MLOAD PUSH2 0x657 SWAP2 SWAP1 PUSH2 0x3A91 JUMP JUMPDEST PUSH1 0x40 MLOAD DUP1 SWAP2 SUB SWAP1 RETURN JUMPDEST CALLVALUE DUP1 ISZERO PUSH2 0x66C JUMPI PUSH1 0x0 DUP1 REVERT JUMPDEST POP PUSH2 0x675 PUSH2 0x1640 JUMP JUMPDEST PUSH1 0x40 MLOAD PUSH2 0x682 SWAP2 SWAP1 PUSH2 0x39CB JUMP JUMPDEST PUSH1 0x40 MLOAD DUP1 SWAP2 SUB SWAP1 RETURN JUMPDEST CALLVALUE DUP1 ISZERO PUSH2 0x697 JUMPI PUSH1 0x0 DUP1 REVERT JUMPDEST POP PUSH2 0x6A0 PUSH2 0x16D2 JUMP JUMPDEST PUSH1 0x40 MLOAD PUSH2 0x6AD SWAP2 SWAP1 PUSH2 0x3B27 JUMP JUMPDEST PUSH1 0x40 MLOAD DUP1 SWAP2 SUB SWAP1 RETURN JUMPDEST CALLVALUE DUP1 ISZERO PUSH2 0x6C2 JUMPI PUSH1 0x0 DUP1 REVERT JUMPDEST POP PUSH2 0x6DD PUSH1 0x4 DUP1 CALLDATASIZE SUB DUP2 ADD SWAP1 PUSH2 0x6D8 SWAP2 SWAP1 PUSH2 0x3D6C JUMP JUMPDEST PUSH2 0x16D8 JUMP JUMPDEST STOP JUMPDEST CALLVALUE DUP1 ISZERO PUSH2 0x6EB JUMPI PUSH1 0x0 DUP1 REVERT JUMPDEST POP PUSH2 0x706 PUSH1 0x4 DUP1 CALLDATASIZE SUB DUP2 ADD SWAP1 PUSH2 0x701 SWAP2 SWAP1 PUSH2 0x3A23 JUMP JUMPDEST PUSH2 0x16EE JUMP JUMPDEST PUSH1 0x40 MLOAD PUSH2 0x713 SWAP2 SWAP1 PUSH2 0x3B27 JUMP JUMPDEST PUSH1 0x40 MLOAD DUP1 SWAP2 SUB SWAP1 RETURN JUMPDEST CALLVALUE DUP1 ISZERO PUSH2 0x728 JUMPI PUSH1 0x0 DUP1 REVERT JUMPDEST POP PUSH2 0x743 PUSH1 0x4 DUP1 CALLDATASIZE SUB DUP2 ADD SWAP1 PUSH2 0x73E SWAP2 SWAP1 PUSH2 0x3E4D JUMP JUMPDEST PUSH2 0x1706 JUMP JUMPDEST STOP JUMPDEST CALLVALUE DUP1 ISZERO PUSH2 0x751 JUMPI PUSH1 0x0 DUP1 REVERT JUMPDEST POP PUSH2 0x76C PUSH1 0x4 DUP1 CALLDATASIZE SUB DUP2 ADD SWAP1 PUSH2 0x767 SWAP2 SWAP1 PUSH2 0x3A23 JUMP JUMPDEST PUSH2 0x1768 JUMP JUMPDEST PUSH1 0x40 MLOAD PUSH2 0x779 SWAP2 SWAP1 PUSH2 0x39CB JUMP JUMPDEST PUSH1 0x40 MLOAD DUP1 SWAP2 SUB SWAP1 RETURN JUMPDEST CALLVALUE DUP1 ISZERO PUSH2 0x78E JUMPI PUSH1 0x0 DUP1 REVERT JUMPDEST POP PUSH2 0x7A9 PUSH1 0x4 DUP1 CALLDATASIZE SUB DUP2 ADD SWAP1 PUSH2 0x7A4 SWAP2 SWAP1 PUSH2 0x3A23 JUMP JUMPDEST PUSH2 0x187B JUMP JUMPDEST PUSH1 0x40 MLOAD PUSH2 0x7B6 SWAP2 SWAP1 PUSH2 0x3B27 JUMP JUMPDEST PUSH1 0x40 MLOAD DUP1 SWAP2 SUB SWAP1 RETURN JUMPDEST CALLVALUE DUP1 ISZERO PUSH2 0x7CB JUMPI PUSH1 0x0 DUP1 REVERT JUMPDEST POP PUSH2 0x7E6 PUSH1 0x4 DUP1 CALLDATASIZE SUB DUP2 ADD SWAP1 PUSH2 0x7E1 SWAP2 SWAP1 PUSH2 0x3AD8 JUMP JUMPDEST PUSH2 0x1893 JUMP JUMPDEST PUSH1 0x40 MLOAD PUSH2 0x7F3 SWAP2 SWAP1 PUSH2 0x3B27 JUMP JUMPDEST PUSH1 0x40 MLOAD DUP1 SWAP2 SUB SWAP1 RETURN JUMPDEST PUSH2 0x816 PUSH1 0x4 DUP1 CALLDATASIZE SUB DUP2 ADD SWAP1 PUSH2 0x811 SWAP2 SWAP1 PUSH2 0x3ED0 JUMP JUMPDEST PUSH2 0x18C4 JUMP JUMPDEST STOP JUMPDEST CALLVALUE DUP1 ISZERO PUSH2 0x824 JUMPI PUSH1 0x0 DUP1 REVERT JUMPDEST POP PUSH2 0x83F PUSH1 0x4 DUP1 CALLDATASIZE SUB DUP2 ADD SWAP1 PUSH2 0x83A SWAP2 SWAP1 PUSH2 0x3F4B JUMP JUMPDEST PUSH2 0x1B68 JUMP JUMPDEST PUSH1 0x40 MLOAD PUSH2 0x84C SWAP2 SWAP1 PUSH2 0x3917 JUMP JUMPDEST PUSH1 0x40 MLOAD DUP1 SWAP2 SUB SWAP1 RETURN JUMPDEST CALLVALUE DUP1 ISZERO PUSH2 0x861 JUMPI PUSH1 0x0 DUP1 REVERT JUMPDEST POP PUSH2 0x87C PUSH1 0x4 DUP1 CALLDATASIZE SUB DUP2 ADD SWAP1 PUSH2 0x877 SWAP2 SWAP1 PUSH2 0x3D13 JUMP JUMPDEST PUSH2 0x1BFC JUMP JUMPDEST STOP JUMPDEST PUSH1 0x0 PUSH32 0x80AC58CD00000000000000000000000000000000000000000000000000000000 PUSH28 0xFFFFFFFFFFFFFFFFFFFFFFFFFFFFFFFFFFFFFFFFFFFFFFFFFFFFFFFF NOT AND DUP3 PUSH28 0xFFFFFFFFFFFFFFFFFFFFFFFFFFFFFFFFFFFFFFFFFFFFFFFFFFFFFFFF NOT AND EQ DUP1 PUSH2 0x949 JUMPI POP PUSH32 0x5B5E139F00000000000000000000000000000000000000000000000000000000 PUSH28 0xFFFFFFFFFFFFFFFFFFFFFFFFFFFFFFFFFFFFFFFFFFFFFFFFFFFFFFFF NOT AND DUP3 PUSH28 0xFFFFFFFFFFFFFFFFFFFFFFFFFFFFFFFFFFFFFFFFFFFFFFFFFFFFFFFF NOT AND EQ JUMPDEST DUP1 PUSH2 0x959 JUMPI POP PUSH2 0x958 DUP3 PUSH2 0x1C80 JUMP JUMPDEST JUMPDEST SWAP1 POP SWAP2 SWAP1 POP JUMP JUMPDEST PUSH1 0x60 PUSH1 0x0 DUP1 SLOAD PUSH2 0x96F SWAP1 PUSH2 0x3FBA JUMP JUMPDEST DUP1 PUSH1 0x1F ADD PUSH1 0x20 DUP1 SWAP2 DIV MUL PUSH1 0x20 ADD PUSH1 0x40 MLOAD SWAP1 DUP2 ADD PUSH1 0x40 MSTORE DUP1 SWAP3 SWAP2 SWAP1 DUP2 DUP2 MSTORE PUSH1 0x20 ADD DUP3 DUP1 SLOAD PUSH2 0x99B SWAP1 PUSH2 0x3FBA JUMP JUMPDEST DUP1 ISZERO PUSH2 0x9E8 JUMPI DUP1 PUSH1 0x1F LT PUSH2 0x9BD JUMPI PUSH2 0x100 DUP1 DUP4 SLOAD DIV MUL DUP4 MSTORE SWAP2 PUSH1 0x20 ADD SWAP2 PUSH2 0x9E8 JUMP JUMPDEST DUP3 ADD SWAP2 SWAP1 PUSH1 0x0 MSTORE PUSH1 0x20 PUSH1 0x0 KECCAK256 SWAP1 JUMPDEST DUP2 SLOAD DUP2 MSTORE SWAP1 PUSH1 0x1 ADD SWAP1 PUSH1 0x20 ADD DUP1 DUP4 GT PUSH2 0x9CB JUMPI DUP3 SWAP1 SUB PUSH1 0x1F AND DUP3 ADD SWAP2 JUMPDEST POP POP POP POP POP SWAP1 POP SWAP1 JUMP JUMPDEST PUSH1 0x0 PUSH2 0x9FD DUP3 PUSH2 0x1CEA JUMP JUMPDEST PUSH1 0x4 PUSH1 0x0 DUP4 DUP2 MSTORE PUSH1 0x20 ADD SWAP1 DUP2 MSTORE PUSH1 0x20 ADD PUSH1 0x0 KECCAK256 PUSH1 0x0 SWAP1 SLOAD SWAP1 PUSH2 0x100 EXP SWAP1 DIV PUSH20 0xFFFFFFFFFFFFFFFFFFFFFFFFFFFFFFFFFFFFFFFF AND SWAP1 POP SWAP2 SWAP1 POP JUMP JUMPDEST PUSH1 0x0 PUSH2 0xA43 DUP3 PUSH2 0x13C2 JUMP JUMPDEST SWAP1 POP DUP1 PUSH20 0xFFFFFFFFFFFFFFFFFFFFFFFFFFFFFFFFFFFFFFFF AND DUP4 PUSH20 0xFFFFFFFFFFFFFFFFFFFFFFFFFFFFFFFFFFFFFFFF AND EQ ISZERO PUSH2 0xAB4 JUMPI PUSH1 0x40 MLOAD PUSH32 0x8C379A000000000000000000000000000000000000000000000000000000000 DUP2 MSTORE PUSH1 0x4 ADD PUSH2 0xAAB SWAP1 PUSH2 0x405E JUMP JUMPDEST PUSH1 0x40 MLOAD DUP1 SWAP2 SUB SWAP1 REVERT JUMPDEST DUP1 PUSH20 0xFFFFFFFFFFFFFFFFFFFFFFFFFFFFFFFFFFFFFFFF AND PUSH2 0xAD3 PUSH2 0x1D35 JUMP JUMPDEST PUSH20 0xFFFFFFFFFFFFFFFFFFFFFFFFFFFFFFFFFFFFFFFF AND EQ DUP1 PUSH2 0xB02 JUMPI POP PUSH2 0xB01 DUP2 PUSH2 0xAFC PUSH2 0x1D35 JUMP JUMPDEST PUSH2 0x1B68 JUMP JUMPDEST JUMPDEST PUSH2 0xB41 JUMPI PUSH1 0x40 MLOAD PUSH32 0x8C379A000000000000000000000000000000000000000000000000000000000 DUP2 MSTORE PUSH1 0x4 ADD PUSH2 0xB38 SWAP1 PUSH2 0x40F0 JUMP JUMPDEST PUSH1 0x40 MLOAD DUP1 SWAP2 SUB SWAP1 REVERT JUMPDEST PUSH2 0xB4B DUP4 DUP4 PUSH2 0x1D3D JUMP JUMPDEST POP POP POP JUMP JUMPDEST PUSH1 0x0 PUSH1 0x22 SLOAD GT PUSH2 0xB5F JUMPI PUSH1 0x0 DUP1 REVERT JUMPDEST PUSH1 0x1 CALLVALUE LT ISZERO PUSH2 0xB6D JUMPI PUSH1 0x0 DUP1 REVERT JUMPDEST PUSH1 0x0 PUSH1 0x22 SLOAD TIMESTAMP CALLER PUSH1 0x21 SLOAD PUSH1 0x40 MLOAD PUSH1 0x20 ADD PUSH2 0xB89 SWAP4 SWAP3 SWAP2 SWAP1 PUSH2 0x4179 JUMP JUMPDEST PUSH1 0x40 MLOAD PUSH1 0x20 DUP2 DUP4 SUB SUB DUP2 MSTORE SWAP1 PUSH1 0x40 MSTORE DUP1 MLOAD SWAP1 PUSH1 0x20 ADD KECCAK256 PUSH1 0x0 SHR PUSH2 0xBAC SWAP2 SWAP1 PUSH2 0x41E5 JUMP JUMPDEST SWAP1 POP PUSH1 0x21 PUSH1 0x0 DUP2 SLOAD DUP1 SWAP3 SWAP2 SWAP1 PUSH2 0xBC1 SWAP1 PUSH2 0x4245 JUMP JUMPDEST SWAP2 SWAP1 POP SSTORE POP PUSH1 0x0 DUP1 PUSH1 0x0 JUMPDEST PUSH1 0x5A DUP2 LT ISZERO PUSH2 0xD94 JUMPI PUSH1 0xB PUSH1 0x0 DUP3 DUP2 MSTORE PUSH1 0x20 ADD SWAP1 DUP2 MSTORE PUSH1 0x20 ADD PUSH1 0x0 KECCAK256 SLOAD DUP5 GT ISZERO PUSH2 0xC16 JUMPI PUSH1 0xB PUSH1 0x0 DUP3 DUP2 MSTORE PUSH1 0x20 ADD SWAP1 DUP2 MSTORE PUSH1 0x20 ADD PUSH1 0x0 KECCAK256 SLOAD DUP5 PUSH2 0xC0F SWAP2 SWAP1 PUSH2 0x428E JUMP JUMPDEST SWAP4 POP PUSH2 0xD81 JUMP JUMPDEST PUSH1 0x0 JUMPDEST PUSH1 0xA PUSH1 0x0 DUP4 DUP2 MSTORE PUSH1 0x20 ADD SWAP1 DUP2 MSTORE PUSH1 0x20 ADD PUSH1 0x0 KECCAK256 SLOAD DUP2 LT ISZERO PUSH2 0xD7B JUMPI PUSH1 0x0 ISZERO ISZERO PUSH1 0xC PUSH1 0x0 DUP5 DUP2 MSTORE PUSH1 0x20 ADD SWAP1 DUP2 MSTORE PUSH1 0x20 ADD PUSH1 0x0 KECCAK256 PUSH1 0x0 DUP4 DUP2 MSTORE PUSH1 0x20 ADD SWAP1 DUP2 MSTORE PUSH1 0x20 ADD PUSH1 0x0 KECCAK256 PUSH1 0x0 SWAP1 SLOAD SWAP1 PUSH2 0x100 EXP SWAP1 DIV PUSH1 0xFF AND ISZERO ISZERO EQ ISZERO PUSH2 0xD68 JUMPI DUP5 DUP4 EQ ISZERO PUSH2 0xD59 JUMPI PUSH1 0x1 DUP2 PUSH1 0xA PUSH1 0x0 DUP6 DUP2 MSTORE PUSH1 0x20 ADD SWAP1 DUP2 MSTORE PUSH1 0x20 ADD PUSH1 0x0 KECCAK256 SLOAD DUP5 PUSH2 0xC9C SWAP2 SWAP1 PUSH2 0x42C2 JUMP JUMPDEST PUSH2 0xCA6 SWAP2 SWAP1 PUSH2 0x431C JUMP JUMPDEST PUSH2 0xCB0 SWAP2 SWAP1 PUSH2 0x431C JUMP JUMPDEST SWAP4 POP PUSH1 0x1 PUSH1 0xC PUSH1 0x0 DUP5 DUP2 MSTORE PUSH1 0x20 ADD SWAP1 DUP2 MSTORE PUSH1 0x20 ADD PUSH1 0x0 KECCAK256 PUSH1 0x0 DUP4 DUP2 MSTORE PUSH1 0x20 ADD SWAP1 DUP2 MSTORE PUSH1 0x20 ADD PUSH1 0x0 KECCAK256 PUSH1 0x0 PUSH2 0x100 EXP DUP2 SLOAD DUP2 PUSH1 0xFF MUL NOT AND SWAP1 DUP4 ISZERO ISZERO MUL OR SWAP1 SSTORE POP PUSH1 0x22 PUSH1 0x0 DUP2 SLOAD DUP1 SWAP3 SWAP2 SWAP1 PUSH2 0xD02 SWAP1 PUSH2 0x4372 JUMP JUMPDEST SWAP2 SWAP1 POP SSTORE POP PUSH1 0xB PUSH1 0x0 DUP4 DUP2 MSTORE PUSH1 0x20 ADD SWAP1 DUP2 MSTORE PUSH1 0x20 ADD PUSH1 0x0 KECCAK256 PUSH1 0x0 DUP2 SLOAD DUP1 SWAP3 SWAP2 SWAP1 PUSH2 0xD2B SWAP1 PUSH2 0x4372 JUMP JUMPDEST SWAP2 SWAP1 POP SSTORE POP PUSH1 0x1 DUP3 PUSH2 0xD3D SWAP2 SWAP1 PUSH2 0x431C JUMP JUMPDEST PUSH1 0x9 PUSH1 0x0 DUP7 DUP2 MSTORE PUSH1 0x20 ADD SWAP1 DUP2 MSTORE PUSH1 0x20 ADD PUSH1 0x0 KECCAK256 DUP2 SWAP1 SSTORE POP PUSH2 0xD7B JUMP JUMPDEST DUP3 DUP1 PUSH2 0xD64 SWAP1 PUSH2 0x4245 JUMP JUMPDEST SWAP4 POP POP JUMPDEST DUP1 DUP1 PUSH2 0xD73 SWAP1 PUSH2 0x4245 JUMP JUMPDEST SWAP2 POP POP PUSH2 0xC19 JUMP JUMPDEST POP PUSH2 0xD94 JUMP JUMPDEST DUP1 DUP1 PUSH2 0xD8C SWAP1 PUSH2 0x4245 JUMP JUMPDEST SWAP2 POP POP PUSH2 0xBCC JUMP JUMPDEST POP PUSH1 0x8 PUSH1 0x0 CALLER PUSH20 0xFFFFFFFFFFFFFFFFFFFFFFFFFFFFFFFFFFFFFFFF AND PUSH20 0xFFFFFFFFFFFFFFFFFFFFFFFFFFFFFFFFFFFFFFFF AND DUP2 MSTORE PUSH1 0x20 ADD SWAP1 DUP2 MSTORE PUSH1 0x20 ADD PUSH1 0x0 KECCAK256 DUP3 SWAP1 DUP1 PUSH1 0x1 DUP2 SLOAD ADD DUP1 DUP3 SSTORE DUP1 SWAP2 POP POP PUSH1 0x1 SWAP1 SUB SWAP1 PUSH1 0x0 MSTORE PUSH1 0x20 PUSH1 0x0 KECCAK256 ADD PUSH1 0x0 SWAP1 SWAP2 SWAP1 SWAP2 SWAP1 SWAP2 POP SSTORE PUSH1 0x9 PUSH1 0x0 DUP4 DUP2 MSTORE PUSH1 0x20 ADD SWAP1 DUP2 MSTORE PUSH1 0x20 ADD PUSH1 0x0 KECCAK256 SLOAD PUSH1 0x17 PUSH1 0x0 DUP5 DUP2 MSTORE PUSH1 0x20 ADD SWAP1 DUP2 MSTORE PUSH1 0x20 ADD PUSH1 0x0 KECCAK256 DUP2 SWAP1 SSTORE POP PUSH1 0x1 PUSH1 0x18 PUSH1 0x0 DUP5 DUP2 MSTORE PUSH1 0x20 ADD SWAP1 DUP2 MSTORE PUSH1 0x20 ADD PUSH1 0x0 KECCAK256 DUP2 SWAP1 SSTORE POP PUSH1 0x1 PUSH1 0x19 PUSH1 0x0 DUP5 DUP2 MSTORE PUSH1 0x20 ADD SWAP1 DUP2 MSTORE PUSH1 0x20 ADD PUSH1 0x0 KECCAK256 DUP2 SWAP1 SSTORE POP PUSH1 0x1 PUSH1 0x1A PUSH1 0x0 DUP5 DUP2 MSTORE PUSH1 0x20 ADD SWAP1 DUP2 MSTORE PUSH1 0x20 ADD PUSH1 0x0 KECCAK256 DUP2 SWAP1 SSTORE POP PUSH1 0x1 PUSH1 0x1B PUSH1 0x0 DUP5 DUP2 MSTORE PUSH1 0x20 ADD SWAP1 DUP2 MSTORE PUSH1 0x20 ADD PUSH1 0x0 KECCAK256 DUP2 SWAP1 SSTORE POP PUSH1 0x5 PUSH1 0x1C PUSH1 0x0 DUP5 DUP2 MSTORE PUSH1 0x20 ADD SWAP1 DUP2 MSTORE PUSH1 0x20 ADD PUSH1 0x0 KECCAK256 DUP2 SWAP1 SSTORE POP PUSH1 0x5 PUSH1 0x1D PUSH1 0x0 DUP5 DUP2 MSTORE PUSH1 0x20 ADD SWAP1 DUP2 MSTORE PUSH1 0x20 ADD PUSH1 0x0 KECCAK256 DUP2 SWAP1 SSTORE POP PUSH1 0x5 PUSH1 0x1E PUSH1 0x0 DUP5 DUP2 MSTORE PUSH1 0x20 ADD SWAP1 DUP2 MSTORE PUSH1 0x20 ADD PUSH1 0x0 KECCAK256 DUP2 SWAP1 SSTORE POP PUSH1 0x5 PUSH1 0x1F PUSH1 0x0 DUP5 DUP2 MSTORE PUSH1 0x20 ADD SWAP1 DUP2 MSTORE PUSH1 0x20 ADD PUSH1 0x0 KECCAK256 DUP2 SWAP1 SSTORE POP PUSH2 0xEF8 CALLER DUP4 PUSH2 0x1DF6 JUMP JUMPDEST PUSH2 0xF01 DUP3 PUSH2 0x1E14 JUMP JUMPDEST POP POP POP JUMP JUMPDEST PUSH1 0x19 PUSH1 0x20 MSTORE DUP1 PUSH1 0x0 MSTORE PUSH1 0x40 PUSH1 0x0 KECCAK256 PUSH1 0x0 SWAP2 POP SWAP1 POP SLOAD DUP2 JUMP JUMPDEST PUSH2 0xF2F PUSH2 0xF29 PUSH2 0x1D35 JUMP JUMPDEST DUP3 PUSH2 0x2194 JUMP JUMPDEST PUSH2 0xF6E JUMPI PUSH1 0x40 MLOAD PUSH32 0x8C379A000000000000000000000000000000000000000000000000000000000 DUP2 MSTORE PUSH1 0x4 ADD PUSH2 0xF65 SWAP1 PUSH2 0x440E JUMP JUMPDEST PUSH1 0x40 MLOAD DUP1 SWAP2 SUB SWAP1 REVERT JUMPDEST PUSH2 0xF79 DUP4 DUP4 DUP4 PUSH2 0x2229 JUMP JUMPDEST POP POP POP JUMP JUMPDEST PUSH1 0x17 PUSH1 0x20 MSTORE DUP1 PUSH1 0x0 MSTORE PUSH1 0x40 PUSH1 0x0 KECCAK256 PUSH1 0x0 SWAP2 POP SWAP1 POP SLOAD DUP2 JUMP JUMPDEST PUSH1 0x1B PUSH1 0x20 MSTORE DUP1 PUSH1 0x0 MSTORE PUSH1 0x40 PUSH1 0x0 KECCAK256 PUSH1 0x0 SWAP2 POP SWAP1 POP SLOAD DUP2 JUMP JUMPDEST PUSH2 0xFB6 PUSH2 0x2490 JUMP JUMPDEST DUP1 PUSH1 0x20 SWAP1 DUP1 MLOAD SWAP1 PUSH1 0x20 ADD SWAP1 PUSH2 0xFCC SWAP3 SWAP2 SWAP1 PUSH2 0x3780 JUMP JUMPDEST POP POP JUMP JUMPDEST PUSH2 0xFEB DUP4 DUP4 DUP4 PUSH1 0x40 MLOAD DUP1 PUSH1 0x20 ADD PUSH1 0x40 MSTORE DUP1 PUSH1 0x0 DUP2 MSTORE POP PUSH2 0x1706 JUMP JUMPDEST POP POP POP JUMP JUMPDEST PUSH2 0xFF9 DUP2 PUSH2 0x13C2 JUMP JUMPDEST PUSH20 0xFFFFFFFFFFFFFFFFFFFFFFFFFFFFFFFFFFFFFFFF AND CALLER PUSH20 0xFFFFFFFFFFFFFFFFFFFFFFFFFFFFFFFFFFFFFFFF AND EQ PUSH2 0x1066 JUMPI PUSH1 0x40 MLOAD PUSH32 0x8C379A000000000000000000000000000000000000000000000000000000000 DUP2 MSTORE PUSH1 0x4 ADD PUSH2 0x105D SWAP1 PUSH2 0x44A0 JUMP JUMPDEST PUSH1 0x40 MLOAD DUP1 SWAP2 SUB SWAP1 REVERT JUMPDEST PUSH1 0x0 JUMPDEST PUSH1 0x8 PUSH1 0x0 PUSH2 0x1076 DUP5 PUSH2 0x13C2 JUMP JUMPDEST PUSH20 0xFFFFFFFFFFFFFFFFFFFFFFFFFFFFFFFFFFFFFFFF AND PUSH20 0xFFFFFFFFFFFFFFFFFFFFFFFFFFFFFFFFFFFFFFFF AND DUP2 MSTORE PUSH1 0x20 ADD SWAP1 DUP2 MSTORE PUSH1 0x20 ADD PUSH1 0x0 KECCAK256 DUP1 SLOAD SWAP1 POP DUP2 LT ISZERO PUSH2 0x12C8 JUMPI DUP2 PUSH1 0x8 PUSH1 0x0 PUSH2 0x10C9 DUP6 PUSH2 0x13C2 JUMP JUMPDEST PUSH20 0xFFFFFFFFFFFFFFFFFFFFFFFFFFFFFFFFFFFFFFFF AND PUSH20 0xFFFFFFFFFFFFFFFFFFFFFFFFFFFFFFFFFFFFFFFF AND DUP2 MSTORE PUSH1 0x20 ADD SWAP1 DUP2 MSTORE PUSH1 0x20 ADD PUSH1 0x0 KECCAK256 DUP3 DUP2 SLOAD DUP2 LT PUSH2 0x1115 JUMPI PUSH2 0x1114 PUSH2 0x44C0 JUMP JUMPDEST JUMPDEST SWAP1 PUSH1 0x0 MSTORE PUSH1 0x20 PUSH1 0x0 KECCAK256 ADD SLOAD EQ ISZERO PUSH2 0x12B5 JUMPI PUSH1 0x8 PUSH1 0x0 PUSH2 0x1133 DUP5 PUSH2 0x13C2 JUMP JUMPDEST PUSH20 0xFFFFFFFFFFFFFFFFFFFFFFFFFFFFFFFFFFFFFFFF AND PUSH20 0xFFFFFFFFFFFFFFFFFFFFFFFFFFFFFFFFFFFFFFFF AND DUP2 MSTORE PUSH1 0x20 ADD SWAP1 DUP2 MSTORE PUSH1 0x20 ADD PUSH1 0x0 KECCAK256 PUSH1 0x1 PUSH1 0x8 PUSH1 0x0 PUSH2 0x117C DUP7 PUSH2 0x13C2 JUMP JUMPDEST PUSH20 0xFFFFFFFFFFFFFFFFFFFFFFFFFFFFFFFFFFFFFFFF AND PUSH20 0xFFFFFFFFFFFFFFFFFFFFFFFFFFFFFFFFFFFFFFFF AND DUP2 MSTORE PUSH1 0x20 ADD SWAP1 DUP2 MSTORE PUSH1 0x20 ADD PUSH1 0x0 KECCAK256 DUP1 SLOAD SWAP1 POP PUSH2 0x11C4 SWAP2 SWAP1 PUSH2 0x428E JUMP JUMPDEST DUP2 SLOAD DUP2 LT PUSH2 0x11D5 JUMPI PUSH2 0x11D4 PUSH2 0x44C0 JUMP JUMPDEST JUMPDEST SWAP1 PUSH1 0x0 MSTORE PUSH1 0x20 PUSH1 0x0 KECCAK256 ADD SLOAD PUSH1 0x8 PUSH1 0x0 PUSH2 0x11ED DUP6 PUSH2 0x13C2 JUMP JUMPDEST PUSH20 0xFFFFFFFFFFFFFFFFFFFFFFFFFFFFFFFFFFFFFFFF AND PUSH20 0xFFFFFFFFFFFFFFFFFFFFFFFFFFFFFFFFFFFFFFFF AND DUP2 MSTORE PUSH1 0x20 ADD SWAP1 DUP2 MSTORE PUSH1 0x20 ADD PUSH1 0x0 KECCAK256 DUP3 DUP2 SLOAD DUP2 LT PUSH2 0x1239 JUMPI PUSH2 0x1238 PUSH2 0x44C0 JUMP JUMPDEST JUMPDEST SWAP1 PUSH1 0x0 MSTORE PUSH1 0x20 PUSH1 0x0 KECCAK256 ADD DUP2 SWAP1 SSTORE POP PUSH1 0x8 PUSH1 0x0 PUSH2 0x1254 DUP5 PUSH2 0x13C2 JUMP JUMPDEST PUSH20 0xFFFFFFFFFFFFFFFFFFFFFFFFFFFFFFFFFFFFFFFF AND PUSH20 0xFFFFFFFFFFFFFFFFFFFFFFFFFFFFFFFFFFFFFFFF AND DUP2 MSTORE PUSH1 0x20 ADD SWAP1 DUP2 MSTORE PUSH1 0x20 ADD PUSH1 0x0 KECCAK256 DUP1 SLOAD DUP1 PUSH2 0x129E JUMPI PUSH2 0x129D PUSH2 0x44EF JUMP JUMPDEST JUMPDEST PUSH1 0x1 SWAP1 SUB DUP2 DUP2 SWAP1 PUSH1 0x0 MSTORE PUSH1 0x20 PUSH1 0x0 KECCAK256 ADD PUSH1 0x0 SWAP1 SSTORE SWAP1 SSTORE JUMPDEST DUP1 DUP1 PUSH2 0x12C0 SWAP1 PUSH2 0x4245 JUMP JUMPDEST SWAP2 POP POP PUSH2 0x1069 JUMP JUMPDEST POP PUSH2 0x12D2 DUP2 PUSH2 0x250E JUMP JUMPDEST POP JUMP JUMPDEST PUSH2 0x12DD PUSH2 0x2490 JUMP JUMPDEST PUSH1 0x0 CALLER SWAP1 POP PUSH1 0x0 DUP2 PUSH20 0xFFFFFFFFFFFFFFFFFFFFFFFFFFFFFFFFFFFFFFFF AND SELFBALANCE PUSH1 0x40 MLOAD PUSH2 0x1308 SWAP1 PUSH2 0x454F JUMP JUMPDEST PUSH1 0x0 PUSH1 0x40 MLOAD DUP1 DUP4 SUB DUP2 DUP6 DUP8 GAS CALL SWAP3 POP POP POP RETURNDATASIZE DUP1 PUSH1 0x0 DUP2 EQ PUSH2 0x1345 JUMPI PUSH1 0x40 MLOAD SWAP2 POP PUSH1 0x1F NOT PUSH1 0x3F RETURNDATASIZE ADD AND DUP3 ADD PUSH1 0x40 MSTORE RETURNDATASIZE DUP3 MSTORE RETURNDATASIZE PUSH1 0x0 PUSH1 0x20 DUP5 ADD RETURNDATACOPY PUSH2 0x134A JUMP JUMPDEST PUSH1 0x60 SWAP2 POP JUMPDEST POP POP SWAP1 POP DUP1 PUSH2 0x138E JUMPI PUSH1 0x40 MLOAD PUSH32 0x8C379A000000000000000000000000000000000000000000000000000000000 DUP2 MSTORE PUSH1 0x4 ADD PUSH2 0x1385 SWAP1 PUSH2 0x45B0 JUMP JUMPDEST PUSH1 0x40 MLOAD DUP1 SWAP2 SUB SWAP1 REVERT JUMPDEST POP POP JUMP JUMPDEST PUSH1 0x1D PUSH1 0x20 MSTORE DUP1 PUSH1 0x0 MSTORE PUSH1 0x40 PUSH1 0x0 KECCAK256 PUSH1 0x0 SWAP2 POP SWAP1 POP SLOAD DUP2 JUMP JUMPDEST PUSH1 0x18 PUSH1 0x20 MSTORE DUP1 PUSH1 0x0 MSTORE PUSH1 0x40 PUSH1 0x0 KECCAK256 PUSH1 0x0 SWAP2 POP SWAP1 POP SLOAD DUP2 JUMP JUMPDEST PUSH1 0x0 DUP1 PUSH1 0x2 PUSH1 0x0 DUP5 DUP2 MSTORE PUSH1 0x20 ADD SWAP1 DUP2 MSTORE PUSH1 0x20 ADD PUSH1 0x0 KECCAK256 PUSH1 0x0 SWAP1 SLOAD SWAP1 PUSH2 0x100 EXP SWAP1 DIV PUSH20 0xFFFFFFFFFFFFFFFFFFFFFFFFFFFFFFFFFFFFFFFF AND SWAP1 POP PUSH1 0x0 PUSH20 0xFFFFFFFFFFFFFFFFFFFFFFFFFFFFFFFFFFFFFFFF AND DUP2 PUSH20 0xFFFFFFFFFFFFFFFFFFFFFFFFFFFFFFFFFFFFFFFF AND EQ ISZERO PUSH2 0x146B JUMPI PUSH1 0x40 MLOAD PUSH32 0x8C379A000000000000000000000000000000000000000000000000000000000 DUP2 MSTORE PUSH1 0x4 ADD PUSH2 0x1462 SWAP1 PUSH2 0x461C JUMP JUMPDEST PUSH1 0x40 MLOAD DUP1 SWAP2 SUB SWAP1 REVERT JUMPDEST DUP1 SWAP2 POP POP SWAP2 SWAP1 POP JUMP JUMPDEST PUSH1 0x9 PUSH1 0x20 MSTORE DUP1 PUSH1 0x0 MSTORE PUSH1 0x40 PUSH1 0x0 KECCAK256 PUSH1 0x0 SWAP2 POP SWAP1 POP SLOAD DUP2 JUMP JUMPDEST PUSH1 0x0 DUP1 PUSH20 0xFFFFFFFFFFFFFFFFFFFFFFFFFFFFFFFFFFFFFFFF AND DUP3 PUSH20 0xFFFFFFFFFFFFFFFFFFFFFFFFFFFFFFFFFFFFFFFF AND EQ ISZERO PUSH2 0x14FD JUMPI PUSH1 0x40 MLOAD PUSH32 0x8C379A000000000000000000000000000000000000000000000000000000000 DUP2 MSTORE PUSH1 0x4 ADD PUSH2 0x14F4 SWAP1 PUSH2 0x46AE JUMP JUMPDEST PUSH1 0x40 MLOAD DUP1 SWAP2 SUB SWAP1 REVERT JUMPDEST PUSH1 0x3 PUSH1 0x0 DUP4 PUSH20 0xFFFFFFFFFFFFFFFFFFFFFFFFFFFFFFFFFFFFFFFF AND PUSH20 0xFFFFFFFFFFFFFFFFFFFFFFFFFFFFFFFFFFFFFFFF AND DUP2 MSTORE PUSH1 0x20 ADD SWAP1 DUP2 MSTORE PUSH1 0x20 ADD PUSH1 0x0 KECCAK256 SLOAD SWAP1 POP SWAP2 SWAP1 POP JUMP JUMPDEST PUSH2 0x154C PUSH2 0x2490 JUMP JUMPDEST PUSH2 0x1556 PUSH1 0x0 PUSH2 0x2561 JUMP JUMPDEST JUMP JUMPDEST PUSH1 0x20 DUP1 SLOAD PUSH2 0x1565 SWAP1 PUSH2 0x3FBA JUMP JUMPDEST DUP1 PUSH1 0x1F ADD PUSH1 0x20 DUP1 SWAP2 DIV MUL PUSH1 0x20 ADD PUSH1 0x40 MLOAD SWAP1 DUP2 ADD PUSH1 0x40 MSTORE DUP1 SWAP3 SWAP2 SWAP1 DUP2 DUP2 MSTORE PUSH1 0x20 ADD DUP3 DUP1 SLOAD PUSH2 0x1591 SWAP1 PUSH2 0x3FBA JUMP JUMPDEST DUP1 ISZERO PUSH2 0x15DE JUMPI DUP1 PUSH1 0x1F LT PUSH2 0x15B3 JUMPI PUSH2 0x100 DUP1 DUP4 SLOAD DIV MUL DUP4 MSTORE SWAP2 PUSH1 0x20 ADD SWAP2 PUSH2 0x15DE JUMP JUMPDEST DUP3 ADD SWAP2 SWAP1 PUSH1 0x0 MSTORE PUSH1 0x20 PUSH1 0x0 KECCAK256 SWAP1 JUMPDEST DUP2 SLOAD DUP2 MSTORE SWAP1 PUSH1 0x1 ADD SWAP1 PUSH1 0x20 ADD DUP1 DUP4 GT PUSH2 0x15C1 JUMPI DUP3 SWAP1 SUB PUSH1 0x1F AND DUP3 ADD SWAP2 JUMPDEST POP POP POP POP POP DUP2 JUMP JUMPDEST PUSH1 0x1F PUSH1 0x20 MSTORE DUP1 PUSH1 0x0 MSTORE PUSH1 0x40 PUSH1 0x0 KECCAK256 PUSH1 0x0 SWAP2 POP SWAP1 POP SLOAD DUP2 JUMP JUMPDEST PUSH1 0x1C PUSH1 0x20 MSTORE DUP1 PUSH1 0x0 MSTORE PUSH1 0x40 PUSH1 0x0 KECCAK256 PUSH1 0x0 SWAP2 POP SWAP1 POP SLOAD DUP2 JUMP JUMPDEST PUSH1 0x0 PUSH1 0x7 PUSH1 0x0 SWAP1 SLOAD SWAP1 PUSH2 0x100 EXP SWAP1 DIV PUSH20 0xFFFFFFFFFFFFFFFFFFFFFFFFFFFFFFFFFFFFFFFF AND SWAP1 POP SWAP1 JUMP JUMPDEST PUSH1 0x60 PUSH1 0x1 DUP1 SLOAD PUSH2 0x164F SWAP1 PUSH2 0x3FBA JUMP JUMPDEST DUP1 PUSH1 0x1F ADD PUSH1 0x20 DUP1 SWAP2 DIV MUL PUSH1 0x20 ADD PUSH1 0x40 MLOAD SWAP1 DUP2 ADD PUSH1 0x40 MSTORE DUP1 SWAP3 SWAP2 SWAP1 DUP2 DUP2 MSTORE PUSH1 0x20 ADD DUP3 DUP1 SLOAD PUSH2 0x167B SWAP1 PUSH2 0x3FBA JUMP JUMPDEST DUP1 ISZERO PUSH2 0x16C8 JUMPI DUP1 PUSH1 0x1F LT PUSH2 0x169D JUMPI PUSH2 0x100 DUP1 DUP4 SLOAD DIV MUL DUP4 MSTORE SWAP2 PUSH1 0x20 ADD SWAP2 PUSH2 0x16C8 JUMP JUMPDEST DUP3 ADD SWAP2 SWAP1 PUSH1 0x0 MSTORE PUSH1 0x20 PUSH1 0x0 KECCAK256 SWAP1 JUMPDEST DUP2 SLOAD DUP2 MSTORE SWAP1 PUSH1 0x1 ADD SWAP1 PUSH1 0x20 ADD DUP1 DUP4 GT PUSH2 0x16AB JUMPI DUP3 SWAP1 SUB PUSH1 0x1F AND DUP3 ADD SWAP2 JUMPDEST POP POP POP POP POP SWAP1 POP SWAP1 JUMP JUMPDEST PUSH1 0x22 SLOAD DUP2 JUMP JUMPDEST PUSH2 0x16EA PUSH2 0x16E3 PUSH2 0x1D35 JUMP JUMPDEST DUP4 DUP4 PUSH2 0x2627 JUMP JUMPDEST POP POP JUMP JUMPDEST PUSH1 0x1A PUSH1 0x20 MSTORE DUP1 PUSH1 0x0 MSTORE PUSH1 0x40 PUSH1 0x0 KECCAK256 PUSH1 0x0 SWAP2 POP SWAP1 POP SLOAD DUP2 JUMP JUMPDEST PUSH2 0x1717 PUSH2 0x1711 PUSH2 0x1D35 JUMP JUMPDEST DUP4 PUSH2 0x2194 JUMP JUMPDEST PUSH2 0x1756 JUMPI PUSH1 0x40 MLOAD PUSH32 0x8C379A000000000000000000000000000000000000000000000000000000000 DUP2 MSTORE PUSH1 0x4 ADD PUSH2 0x174D SWAP1 PUSH2 0x440E JUMP JUMPDEST PUSH1 0x40 MLOAD DUP1 SWAP2 SUB SWAP1 REVERT JUMPDEST PUSH2 0x1762 DUP5 DUP5 DUP5 DUP5 PUSH2 0x2794 JUMP JUMPDEST POP POP POP POP JUMP JUMPDEST PUSH1 0x60 PUSH2 0x1773 DUP3 PUSH2 0x1CEA JUMP JUMPDEST PUSH1 0x0 PUSH1 0x6 PUSH1 0x0 DUP5 DUP2 MSTORE PUSH1 0x20 ADD SWAP1 DUP2 MSTORE PUSH1 0x20 ADD PUSH1 0x0 KECCAK256 DUP1 SLOAD PUSH2 0x1793 SWAP1 PUSH2 0x3FBA JUMP JUMPDEST DUP1 PUSH1 0x1F ADD PUSH1 0x20 DUP1 SWAP2 DIV MUL PUSH1 0x20 ADD PUSH1 0x40 MLOAD SWAP1 DUP2 ADD PUSH1 0x40 MSTORE DUP1 SWAP3 SWAP2 SWAP1 DUP2 DUP2 MSTORE PUSH1 0x20 ADD DUP3 DUP1 SLOAD PUSH2 0x17BF SWAP1 PUSH2 0x3FBA JUMP JUMPDEST DUP1 ISZERO PUSH2 0x180C JUMPI DUP1 PUSH1 0x1F LT PUSH2 0x17E1 JUMPI PUSH2 0x100 DUP1 DUP4 SLOAD DIV MUL DUP4 MSTORE SWAP2 PUSH1 0x20 ADD SWAP2 PUSH2 0x180C JUMP JUMPDEST DUP3 ADD SWAP2 SWAP1 PUSH1 0x0 MSTORE PUSH1 0x20 PUSH1 0x0 KECCAK256 SWAP1 JUMPDEST DUP2 SLOAD DUP2 MSTORE SWAP1 PUSH1 0x1 ADD SWAP1 PUSH1 0x20 ADD DUP1 DUP4 GT PUSH2 0x17EF JUMPI DUP3 SWAP1 SUB PUSH1 0x1F AND DUP3 ADD SWAP2 JUMPDEST POP POP POP POP POP SWAP1 POP PUSH1 0x0 PUSH2 0x181D PUSH2 0x27F0 JUMP JUMPDEST SWAP1 POP PUSH1 0x0 DUP2 MLOAD EQ ISZERO PUSH2 0x1833 JUMPI DUP2 SWAP3 POP POP POP PUSH2 0x1876 JUMP JUMPDEST PUSH1 0x0 DUP3 MLOAD GT ISZERO PUSH2 0x1868 JUMPI DUP1 DUP3 PUSH1 0x40 MLOAD PUSH1 0x20 ADD PUSH2 0x1850 SWAP3 SWAP2 SWAP1 PUSH2 0x470A JUMP JUMPDEST PUSH1 0x40 MLOAD PUSH1 0x20 DUP2 DUP4 SUB SUB DUP2 MSTORE SWAP1 PUSH1 0x40 MSTORE SWAP3 POP POP POP PUSH2 0x1876 JUMP JUMPDEST PUSH2 0x1871 DUP5 PUSH2 0x2807 JUMP JUMPDEST SWAP3 POP POP POP JUMPDEST SWAP2 SWAP1 POP JUMP JUMPDEST PUSH1 0x1E PUSH1 0x20 MSTORE DUP1 PUSH1 0x0 MSTORE PUSH1 0x40 PUSH1 0x0 KECCAK256 PUSH1 0x0 SWAP2 POP SWAP1 POP SLOAD DUP2 JUMP JUMPDEST PUSH1 0x8 PUSH1 0x20 MSTORE DUP2 PUSH1 0x0 MSTORE PUSH1 0x40 PUSH1 0x0 KECCAK256 DUP2 DUP2 SLOAD DUP2 LT PUSH2 0x18AF JUMPI PUSH1 0x0 DUP1 REVERT JUMPDEST SWAP1 PUSH1 0x0 MSTORE PUSH1 0x20 PUSH1 0x0 KECCAK256 ADD PUSH1 0x0 SWAP2 POP SWAP2 POP POP SLOAD DUP2 JUMP JUMPDEST PUSH2 0x18CD DUP6 PUSH2 0x13C2 JUMP JUMPDEST PUSH20 0xFFFFFFFFFFFFFFFFFFFFFFFFFFFFFFFFFFFFFFFF AND CALLER PUSH20 0xFFFFFFFFFFFFFFFFFFFFFFFFFFFFFFFFFFFFFFFF AND EQ PUSH2 0x1904 JUMPI PUSH1 0x0 DUP1 REVERT JUMPDEST PUSH1 0x0 DUP5 LT ISZERO DUP1 ISZERO PUSH2 0x1916 JUMPI POP PUSH1 0x0 DUP4 LT ISZERO JUMPDEST DUP1 ISZERO PUSH2 0x1923 JUMPI POP PUSH1 0x0 DUP3 LT ISZERO JUMPDEST DUP1 ISZERO PUSH2 0x1930 JUMPI POP PUSH1 0x0 DUP2 LT ISZERO JUMPDEST DUP1 ISZERO PUSH2 0x196D JUMPI POP PUSH1 0x1C PUSH1 0x0 DUP7 DUP2 MSTORE PUSH1 0x20 ADD SWAP1 DUP2 MSTORE PUSH1 0x20 ADD PUSH1 0x0 KECCAK256 SLOAD PUSH1 0x18 PUSH1 0x0 DUP8 DUP2 MSTORE PUSH1 0x20 ADD SWAP1 DUP2 MSTORE PUSH1 0x20 ADD PUSH1 0x0 KECCAK256 SLOAD DUP6 PUSH2 0x196A SWAP2 SWAP1 PUSH2 0x431C JUMP JUMPDEST GT ISZERO JUMPDEST DUP1 ISZERO PUSH2 0x19AA JUMPI POP PUSH1 0x1D PUSH1 0x0 DUP7 DUP2 MSTORE PUSH1 0x20 ADD SWAP1 DUP2 MSTORE PUSH1 0x20 ADD PUSH1 0x0 KECCAK256 SLOAD PUSH1 0x19 PUSH1 0x0 DUP8 DUP2 MSTORE PUSH1 0x20 ADD SWAP1 DUP2 MSTORE PUSH1 0x20 ADD PUSH1 0x0 KECCAK256 SLOAD DUP5 PUSH2 0x19A7 SWAP2 SWAP1 PUSH2 0x431C JUMP JUMPDEST GT ISZERO JUMPDEST DUP1 ISZERO PUSH2 0x19E7 JUMPI POP PUSH1 0x1E PUSH1 0x0 DUP7 DUP2 MSTORE PUSH1 0x20 ADD SWAP1 DUP2 MSTORE PUSH1 0x20 ADD PUSH1 0x0 KECCAK256 SLOAD PUSH1 0x1A PUSH1 0x0 DUP8 DUP2 MSTORE PUSH1 0x20 ADD SWAP1 DUP2 MSTORE PUSH1 0x20 ADD PUSH1 0x0 KECCAK256 SLOAD DUP4 PUSH2 0x19E4 SWAP2 SWAP1 PUSH2 0x431C JUMP JUMPDEST GT ISZERO JUMPDEST DUP1 ISZERO PUSH2 0x1A24 JUMPI POP PUSH1 0x1F PUSH1 0x0 DUP7 DUP2 MSTORE PUSH1 0x20 ADD SWAP1 DUP2 MSTORE PUSH1 0x20 ADD PUSH1 0x0 KECCAK256 SLOAD PUSH1 0x1B PUSH1 0x0 DUP8 DUP2 MSTORE PUSH1 0x20 ADD SWAP1 DUP2 MSTORE PUSH1 0x20 ADD PUSH1 0x0 KECCAK256 SLOAD DUP3 PUSH2 0x1A21 SWAP2 SWAP1 PUSH2 0x431C JUMP JUMPDEST GT ISZERO JUMPDEST PUSH2 0x1A63 JUMPI PUSH1 0x40 MLOAD PUSH32 0x8C379A000000000000000000000000000000000000000000000000000000000 DUP2 MSTORE PUSH1 0x4 ADD PUSH2 0x1A5A SWAP1 PUSH2 0x47A0 JUMP JUMPDEST PUSH1 0x40 MLOAD DUP1 SWAP2 SUB SWAP1 REVERT JUMPDEST PUSH8 0x16345785D8A0000 PUSH1 0x5 DUP3 DUP5 DUP7 DUP9 PUSH2 0x1A7C SWAP2 SWAP1 PUSH2 0x431C JUMP JUMPDEST PUSH2 0x1A86 SWAP2 SWAP1 PUSH2 0x431C JUMP JUMPDEST PUSH2 0x1A90 SWAP2 SWAP1 PUSH2 0x431C JUMP JUMPDEST PUSH2 0x1A9A SWAP2 SWAP1 PUSH2 0x42C2 JUMP JUMPDEST PUSH2 0x1AA4 SWAP2 SWAP1 PUSH2 0x42C2 JUMP JUMPDEST CALLVALUE LT ISZERO PUSH2 0x1AB0 JUMPI PUSH1 0x0 DUP1 REVERT JUMPDEST DUP4 PUSH1 0x18 PUSH1 0x0 DUP8 DUP2 MSTORE PUSH1 0x20 ADD SWAP1 DUP2 MSTORE PUSH1 0x20 ADD PUSH1 0x0 KECCAK256 PUSH1 0x0 DUP3 DUP3 SLOAD PUSH2 0x1AD3 SWAP2 SWAP1 PUSH2 0x431C JUMP JUMPDEST SWAP3 POP POP DUP2 SWAP1 SSTORE POP DUP3 PUSH1 0x19 PUSH1 0x0 DUP8 DUP2 MSTORE PUSH1 0x20 ADD SWAP1 DUP2 MSTORE PUSH1 0x20 ADD PUSH1 0x0 KECCAK256 PUSH1 0x0 DUP3 DUP3 SLOAD PUSH2 0x1AFD SWAP2 SWAP1 PUSH2 0x431C JUMP JUMPDEST SWAP3 POP POP DUP2 SWAP1 SSTORE POP DUP2 PUSH1 0x1A PUSH1 0x0 DUP8 DUP2 MSTORE PUSH1 0x20 ADD SWAP1 DUP2 MSTORE PUSH1 0x20 ADD PUSH1 0x0 KECCAK256 PUSH1 0x0 DUP3 DUP3 SLOAD PUSH2 0x1B27 SWAP2 SWAP1 PUSH2 0x431C JUMP JUMPDEST SWAP3 POP POP DUP2 SWAP1 SSTORE POP DUP1 PUSH1 0x1B PUSH1 0x0 DUP8 DUP2 MSTORE PUSH1 0x20 ADD SWAP1 DUP2 MSTORE PUSH1 0x20 ADD PUSH1 0x0 KECCAK256 PUSH1 0x0 DUP3 DUP3 SLOAD PUSH2 0x1B51 SWAP2 SWAP1 PUSH2 0x431C JUMP JUMPDEST SWAP3 POP POP DUP2 SWAP1 SSTORE POP PUSH2 0x1B61 DUP6 PUSH2 0x1E14 JUMP JUMPDEST POP POP POP POP POP JUMP JUMPDEST PUSH1 0x0 PUSH1 0x5 PUSH1 0x0 DUP5 PUSH20 0xFFFFFFFFFFFFFFFFFFFFFFFFFFFFFFFFFFFFFFFF AND PUSH20 0xFFFFFFFFFFFFFFFFFFFFFFFFFFFFFFFFFFFFFFFF AND DUP2 MSTORE PUSH1 0x20 ADD SWAP1 DUP2 MSTORE PUSH1 0x20 ADD PUSH1 0x0 KECCAK256 PUSH1 0x0 DUP4 PUSH20 0xFFFFFFFFFFFFFFFFFFFFFFFFFFFFFFFFFFFFFFFF AND PUSH20 0xFFFFFFFFFFFFFFFFFFFFFFFFFFFFFFFFFFFFFFFF AND DUP2 MSTORE PUSH1 0x20 ADD SWAP1 DUP2 MSTORE PUSH1 0x20 ADD PUSH1 0x0 KECCAK256 PUSH1 0x0 SWAP1 SLOAD SWAP1 PUSH2 0x100 EXP SWAP1 DIV PUSH1 0xFF AND SWAP1 POP SWAP3 SWAP2 POP POP JUMP JUMPDEST PUSH2 0x1C04 PUSH2 0x2490 JUMP JUMPDEST PUSH1 0x0 PUSH20 0xFFFFFFFFFFFFFFFFFFFFFFFFFFFFFFFFFFFFFFFF AND DUP2 PUSH20 0xFFFFFFFFFFFFFFFFFFFFFFFFFFFFFFFFFFFFFFFF AND EQ ISZERO PUSH2 0x1C74 JUMPI PUSH1 0x40 MLOAD PUSH32 0x8C379A000000000000000000000000000000000000000000000000000000000 DUP2 MSTORE PUSH1 0x4 ADD PUSH2 0x1C6B SWAP1 PUSH2 0x4832 JUMP JUMPDEST PUSH1 0x40 MLOAD DUP1 SWAP2 SUB SWAP1 REVERT JUMPDEST PUSH2 0x1C7D DUP2 PUSH2 0x2561 JUMP JUMPDEST POP JUMP JUMPDEST PUSH1 0x0 PUSH32 0x1FFC9A700000000000000000000000000000000000000000000000000000000 PUSH28 0xFFFFFFFFFFFFFFFFFFFFFFFFFFFFFFFFFFFFFFFFFFFFFFFFFFFFFFFF NOT AND DUP3 PUSH28 0xFFFFFFFFFFFFFFFFFFFFFFFFFFFFFFFFFFFFFFFFFFFFFFFFFFFFFFFF NOT AND EQ SWAP1 POP SWAP2 SWAP1 POP JUMP JUMPDEST PUSH2 0x1CF3 DUP2 PUSH2 0x286F JUMP JUMPDEST PUSH2 0x1D32 JUMPI PUSH1 0x40 MLOAD PUSH32 0x8C379A000000000000000000000000000000000000000000000000000000000 DUP2 MSTORE PUSH1 0x4 ADD PUSH2 0x1D29 SWAP1 PUSH2 0x461C JUMP JUMPDEST PUSH1 0x40 MLOAD DUP1 SWAP2 SUB SWAP1 REVERT JUMPDEST POP JUMP JUMPDEST PUSH1 0x0 CALLER SWAP1 POP SWAP1 JUMP JUMPDEST DUP2 PUSH1 0x4 PUSH1 0x0 DUP4 DUP2 MSTORE PUSH1 0x20 ADD SWAP1 DUP2 MSTORE PUSH1 0x20 ADD PUSH1 0x0 KECCAK256 PUSH1 0x0 PUSH2 0x100 EXP DUP2 SLOAD DUP2 PUSH20 0xFFFFFFFFFFFFFFFFFFFFFFFFFFFFFFFFFFFFFFFF MUL NOT AND SWAP1 DUP4 PUSH20 0xFFFFFFFFFFFFFFFFFFFFFFFFFFFFFFFFFFFFFFFF AND MUL OR SWAP1 SSTORE POP DUP1 DUP3 PUSH20 0xFFFFFFFFFFFFFFFFFFFFFFFFFFFFFFFFFFFFFFFF AND PUSH2 0x1DB0 DUP4 PUSH2 0x13C2 JUMP JUMPDEST PUSH20 0xFFFFFFFFFFFFFFFFFFFFFFFFFFFFFFFFFFFFFFFF AND PUSH32 0x8C5BE1E5EBEC7D5BD14F71427D1E84F3DD0314C0F7B2291E5B200AC8C7C3B925 PUSH1 0x40 MLOAD PUSH1 0x40 MLOAD DUP1 SWAP2 SUB SWAP1 LOG4 POP POP JUMP JUMPDEST PUSH2 0x1E10 DUP3 DUP3 PUSH1 0x40 MLOAD DUP1 PUSH1 0x20 ADD PUSH1 0x40 MSTORE DUP1 PUSH1 0x0 DUP2 MSTORE POP PUSH2 0x28DB JUMP JUMPDEST POP POP JUMP JUMPDEST PUSH1 0x40 MLOAD DUP1 PUSH2 0x140 ADD PUSH1 0x40 MSTORE DUP1 PUSH1 0x40 MLOAD DUP1 PUSH1 0x40 ADD PUSH1 0x40 MSTORE DUP1 PUSH1 0x8 DUP2 MSTORE PUSH1 0x20 ADD PUSH32 0x42616C6C4D61696E000000000000000000000000000000000000000000000000 DUP2 MSTORE POP DUP2 MSTORE PUSH1 0x20 ADD PUSH1 0x17 PUSH1 0x0 DUP5 DUP2 MSTORE PUSH1 0x20 ADD SWAP1 DUP2 MSTORE PUSH1 0x20 ADD PUSH1 0x0 KECCAK256 SLOAD DUP2 MSTORE PUSH1 0x20 ADD PUSH1 0x18 PUSH1 0x0 DUP5 DUP2 MSTORE PUSH1 0x20 ADD SWAP1 DUP2 MSTORE PUSH1 0x20 ADD PUSH1 0x0 KECCAK256 SLOAD DUP2 MSTORE PUSH1 0x20 ADD PUSH1 0x19 PUSH1 0x0 DUP5 DUP2 MSTORE PUSH1 0x20 ADD SWAP1 DUP2 MSTORE PUSH1 0x20 ADD PUSH1 0x0 KECCAK256 SLOAD DUP2 MSTORE PUSH1 0x20 ADD PUSH1 0x1A PUSH1 0x0 DUP5 DUP2 MSTORE PUSH1 0x20 ADD SWAP1 DUP2 MSTORE PUSH1 0x20 ADD PUSH1 0x0 KECCAK256 SLOAD DUP2 MSTORE PUSH1 0x20 ADD PUSH1 0x1B PUSH1 0x0 DUP5 DUP2 MSTORE PUSH1 0x20 ADD SWAP1 DUP2 MSTORE PUSH1 0x20 ADD PUSH1 0x0 KECCAK256 SLOAD DUP2 MSTORE PUSH1 0x20 ADD PUSH1 0x1C PUSH1 0x0 DUP5 DUP2 MSTORE PUSH1 0x20 ADD SWAP1 DUP2 MSTORE PUSH1 0x20 ADD PUSH1 0x0 KECCAK256 SLOAD DUP2 MSTORE PUSH1 0x20 ADD PUSH1 0x1D PUSH1 0x0 DUP5 DUP2 MSTORE PUSH1 0x20 ADD SWAP1 DUP2 MSTORE PUSH1 0x20 ADD PUSH1 0x0 KECCAK256 SLOAD DUP2 MSTORE PUSH1 0x20 ADD PUSH1 0x1E PUSH1 0x0 DUP5 DUP2 MSTORE PUSH1 0x20 ADD SWAP1 DUP2 MSTORE PUSH1 0x20 ADD PUSH1 0x0 KECCAK256 SLOAD DUP2 MSTORE PUSH1 0x20 ADD PUSH1 0x1F PUSH1 0x0 DUP5 DUP2 MSTORE PUSH1 0x20 ADD SWAP1 DUP2 MSTORE PUSH1 0x20 ADD PUSH1 0x0 KECCAK256 SLOAD DUP2 MSTORE POP PUSH1 0xD PUSH1 0x0 DUP3 ADD MLOAD DUP2 PUSH1 0x0 ADD SWAP1 DUP1 MLOAD SWAP1 PUSH1 0x20 ADD SWAP1 PUSH2 0x1F58 SWAP3 SWAP2 SWAP1 PUSH2 0x3780 JUMP JUMPDEST POP PUSH1 0x20 DUP3 ADD MLOAD DUP2 PUSH1 0x1 ADD SSTORE PUSH1 0x40 DUP3 ADD MLOAD DUP2 PUSH1 0x2 ADD SSTORE PUSH1 0x60 DUP3 ADD MLOAD DUP2 PUSH1 0x3 ADD SSTORE PUSH1 0x80 DUP3 ADD MLOAD DUP2 PUSH1 0x4 ADD SSTORE PUSH1 0xA0 DUP3 ADD MLOAD DUP2 PUSH1 0x5 ADD SSTORE PUSH1 0xC0 DUP3 ADD MLOAD DUP2 PUSH1 0x6 ADD SSTORE PUSH1 0xE0 DUP3 ADD MLOAD DUP2 PUSH1 0x7 ADD SSTORE PUSH2 0x100 DUP3 ADD MLOAD DUP2 PUSH1 0x8 ADD SSTORE PUSH2 0x120 DUP3 ADD MLOAD DUP2 PUSH1 0x9 ADD SSTORE SWAP1 POP POP PUSH1 0x0 PUSH1 0x20 PUSH2 0x1FD8 PUSH1 0x9 PUSH1 0x0 DUP6 DUP2 MSTORE PUSH1 0x20 ADD SWAP1 DUP2 MSTORE PUSH1 0x20 ADD PUSH1 0x0 KECCAK256 SLOAD PUSH2 0x2936 JUMP JUMPDEST PUSH1 0x40 MLOAD PUSH1 0x20 ADD PUSH2 0x1FE9 SWAP3 SWAP2 SWAP1 PUSH2 0x48E6 JUMP JUMPDEST PUSH1 0x40 MLOAD PUSH1 0x20 DUP2 DUP4 SUB SUB DUP2 MSTORE SWAP1 PUSH1 0x40 MSTORE SWAP1 POP PUSH1 0x0 PUSH2 0x2175 DUP4 PUSH2 0x2009 DUP6 PUSH2 0x13C2 JUMP JUMPDEST PUSH1 0x40 MLOAD DUP1 PUSH1 0x40 ADD PUSH1 0x40 MSTORE DUP1 PUSH1 0x5 DUP2 MSTORE PUSH1 0x20 ADD PUSH32 0x3842616C6C000000000000000000000000000000000000000000000000000000 DUP2 MSTORE POP DUP6 PUSH1 0x40 MLOAD DUP1 PUSH1 0x40 ADD PUSH1 0x40 MSTORE DUP1 PUSH1 0x17 DUP2 MSTORE PUSH1 0x20 ADD PUSH32 0x3842616C6C2069732066616E7461737469632067616D65000000000000000000 DUP2 MSTORE POP PUSH1 0xD PUSH1 0x40 MLOAD DUP1 PUSH2 0x140 ADD PUSH1 0x40 MSTORE SWAP1 DUP2 PUSH1 0x0 DUP3 ADD DUP1 SLOAD PUSH2 0x2094 SWAP1 PUSH2 0x3FBA JUMP JUMPDEST DUP1 PUSH1 0x1F ADD PUSH1 0x20 DUP1 SWAP2 DIV MUL PUSH1 0x20 ADD PUSH1 0x40 MLOAD SWAP1 DUP2 ADD PUSH1 0x40 MSTORE DUP1 SWAP3 SWAP2 SWAP1 DUP2 DUP2 MSTORE PUSH1 0x20 ADD DUP3 DUP1 SLOAD PUSH2 0x20C0 SWAP1 PUSH2 0x3FBA JUMP JUMPDEST DUP1 ISZERO PUSH2 0x210D JUMPI DUP1 PUSH1 0x1F LT PUSH2 0x20E2 JUMPI PUSH2 0x100 DUP1 DUP4 SLOAD DIV MUL DUP4 MSTORE SWAP2 PUSH1 0x20 ADD SWAP2 PUSH2 0x210D JUMP JUMPDEST DUP3 ADD SWAP2 SWAP1 PUSH1 0x0 MSTORE PUSH1 0x20 PUSH1 0x0 KECCAK256 SWAP1 JUMPDEST DUP2 SLOAD DUP2 MSTORE SWAP1 PUSH1 0x1 ADD SWAP1 PUSH1 0x20 ADD DUP1 DUP4 GT PUSH2 0x20F0 JUMPI DUP3 SWAP1 SUB PUSH1 0x1F AND DUP3 ADD SWAP2 JUMPDEST POP POP POP POP POP DUP2 MSTORE PUSH1 0x20 ADD PUSH1 0x1 DUP3 ADD SLOAD DUP2 MSTORE PUSH1 0x20 ADD PUSH1 0x2 DUP3 ADD SLOAD DUP2 MSTORE PUSH1 0x20 ADD PUSH1 0x3 DUP3 ADD SLOAD DUP2 MSTORE PUSH1 0x20 ADD PUSH1 0x4 DUP3 ADD SLOAD DUP2 MSTORE PUSH1 0x20 ADD PUSH1 0x5 DUP3 ADD SLOAD DUP2 MSTORE PUSH1 0x20 ADD PUSH1 0x6 DUP3 ADD SLOAD DUP2 MSTORE PUSH1 0x20 ADD PUSH1 0x7 DUP3 ADD SLOAD DUP2 MSTORE PUSH1 0x20 ADD PUSH1 0x8 DUP3 ADD SLOAD DUP2 MSTORE PUSH1 0x20 ADD PUSH1 0x9 DUP3 ADD SLOAD DUP2 MSTORE POP POP PUSH2 0x2A97 JUMP JUMPDEST SWAP1 POP PUSH1 0x0 PUSH2 0x2182 DUP3 PUSH2 0x2AE1 JUMP JUMPDEST SWAP1 POP PUSH2 0x218E DUP5 DUP3 PUSH2 0x2B12 JUMP JUMPDEST POP POP POP POP JUMP JUMPDEST PUSH1 0x0 DUP1 PUSH2 0x21A0 DUP4 PUSH2 0x13C2 JUMP JUMPDEST SWAP1 POP DUP1 PUSH20 0xFFFFFFFFFFFFFFFFFFFFFFFFFFFFFFFFFFFFFFFF AND DUP5 PUSH20 0xFFFFFFFFFFFFFFFFFFFFFFFFFFFFFFFFFFFFFFFF AND EQ DUP1 PUSH2 0x21E2 JUMPI POP PUSH2 0x21E1 DUP2 DUP6 PUSH2 0x1B68 JUMP JUMPDEST JUMPDEST DUP1 PUSH2 0x2220 JUMPI POP DUP4 PUSH20 0xFFFFFFFFFFFFFFFFFFFFFFFFFFFFFFFFFFFFFFFF AND PUSH2 0x2208 DUP5 PUSH2 0x9F2 JUMP JUMPDEST PUSH20 0xFFFFFFFFFFFFFFFFFFFFFFFFFFFFFFFFFFFFFFFF AND EQ JUMPDEST SWAP2 POP POP SWAP3 SWAP2 POP POP JUMP JUMPDEST DUP3 PUSH20 0xFFFFFFFFFFFFFFFFFFFFFFFFFFFFFFFFFFFFFFFF AND PUSH2 0x2249 DUP3 PUSH2 0x13C2 JUMP JUMPDEST PUSH20 0xFFFFFFFFFFFFFFFFFFFFFFFFFFFFFFFFFFFFFFFF AND EQ PUSH2 0x229F JUMPI PUSH1 0x40 MLOAD PUSH32 0x8C379A000000000000000000000000000000000000000000000000000000000 DUP2 MSTORE PUSH1 0x4 ADD PUSH2 0x2296 SWAP1 PUSH2 0x497C JUMP JUMPDEST PUSH1 0x40 MLOAD DUP1 SWAP2 SUB SWAP1 REVERT JUMPDEST PUSH1 0x0 PUSH20 0xFFFFFFFFFFFFFFFFFFFFFFFFFFFFFFFFFFFFFFFF AND DUP3 PUSH20 0xFFFFFFFFFFFFFFFFFFFFFFFFFFFFFFFFFFFFFFFF AND EQ ISZERO PUSH2 0x230F JUMPI PUSH1 0x40 MLOAD PUSH32 0x8C379A000000000000000000000000000000000000000000000000000000000 DUP2 MSTORE PUSH1 0x4 ADD PUSH2 0x2306 SWAP1 PUSH2 0x4A0E JUMP JUMPDEST PUSH1 0x40 MLOAD DUP1 SWAP2 SUB SWAP1 REVERT JUMPDEST PUSH2 0x231A DUP4 DUP4 DUP4 PUSH2 0x2B86 JUMP JUMPDEST PUSH2 0x2325 PUSH1 0x0 DUP3 PUSH2 0x1D3D JUMP JUMPDEST PUSH1 0x1 PUSH1 0x3 PUSH1 0x0 DUP6 PUSH20 0xFFFFFFFFFFFFFFFFFFFFFFFFFFFFFFFFFFFFFFFF AND PUSH20 0xFFFFFFFFFFFFFFFFFFFFFFFFFFFFFFFFFFFFFFFF AND DUP2 MSTORE PUSH1 0x20 ADD SWAP1 DUP2 MSTORE PUSH1 0x20 ADD PUSH1 0x0 KECCAK256 PUSH1 0x0 DUP3 DUP3 SLOAD PUSH2 0x2375 SWAP2 SWAP1 PUSH2 0x428E JUMP JUMPDEST SWAP3 POP POP DUP2 SWAP1 SSTORE POP PUSH1 0x1 PUSH1 0x3 PUSH1 0x0 DUP5 PUSH20 0xFFFFFFFFFFFFFFFFFFFFFFFFFFFFFFFFFFFFFFFF AND PUSH20 0xFFFFFFFFFFFFFFFFFFFFFFFFFFFFFFFFFFFFFFFF AND DUP2 MSTORE PUSH1 0x20 ADD SWAP1 DUP2 MSTORE PUSH1 0x20 ADD PUSH1 0x0 KECCAK256 PUSH1 0x0 DUP3 DUP3 SLOAD PUSH2 0x23CC SWAP2 SWAP1 PUSH2 0x431C JUMP JUMPDEST SWAP3 POP POP DUP2 SWAP1 SSTORE POP DUP2 PUSH1 0x2 PUSH1 0x0 DUP4 DUP2 MSTORE PUSH1 0x20 ADD SWAP1 DUP2 MSTORE PUSH1 0x20 ADD PUSH1 0x0 KECCAK256 PUSH1 0x0 PUSH2 0x100 EXP DUP2 SLOAD DUP2 PUSH20 0xFFFFFFFFFFFFFFFFFFFFFFFFFFFFFFFFFFFFFFFF MUL NOT AND SWAP1 DUP4 PUSH20 0xFFFFFFFFFFFFFFFFFFFFFFFFFFFFFFFFFFFFFFFF AND MUL OR SWAP1 SSTORE POP DUP1 DUP3 PUSH20 0xFFFFFFFFFFFFFFFFFFFFFFFFFFFFFFFFFFFFFFFF AND DUP5 PUSH20 0xFFFFFFFFFFFFFFFFFFFFFFFFFFFFFFFFFFFFFFFF AND PUSH32 0xDDF252AD1BE2C89B69C2B068FC378DAA952BA7F163C4A11628F55A4DF523B3EF PUSH1 0x40 MLOAD PUSH1 0x40 MLOAD DUP1 SWAP2 SUB SWAP1 LOG4 PUSH2 0x248B DUP4 DUP4 DUP4 PUSH2 0x2B8B JUMP JUMPDEST POP POP POP JUMP JUMPDEST PUSH2 0x2498 PUSH2 0x1D35 JUMP JUMPDEST PUSH20 0xFFFFFFFFFFFFFFFFFFFFFFFFFFFFFFFFFFFFFFFF AND PUSH2 0x24B6 PUSH2 0x1616 JUMP JUMPDEST PUSH20 0xFFFFFFFFFFFFFFFFFFFFFFFFFFFFFFFFFFFFFFFF AND EQ PUSH2 0x250C JUMPI PUSH1 0x40 MLOAD PUSH32 0x8C379A000000000000000000000000000000000000000000000000000000000 DUP2 MSTORE PUSH1 0x4 ADD PUSH2 0x2503 SWAP1 PUSH2 0x4A7A JUMP JUMPDEST PUSH1 0x40 MLOAD DUP1 SWAP2 SUB SWAP1 REVERT JUMPDEST JUMP JUMPDEST PUSH2 0x2517 DUP2 PUSH2 0x2B90 JUMP JUMPDEST PUSH1 0x0 PUSH1 0x6 PUSH1 0x0 DUP4 DUP2 MSTORE PUSH1 0x20 ADD SWAP1 DUP2 MSTORE PUSH1 0x20 ADD PUSH1 0x0 KECCAK256 DUP1 SLOAD PUSH2 0x2537 SWAP1 PUSH2 0x3FBA JUMP JUMPDEST SWAP1 POP EQ PUSH2 0x255E JUMPI PUSH1 0x6 PUSH1 0x0 DUP3 DUP2 MSTORE PUSH1 0x20 ADD SWAP1 DUP2 MSTORE PUSH1 0x20 ADD PUSH1 0x0 KECCAK256 PUSH1 0x0 PUSH2 0x255D SWAP2 SWAP1 PUSH2 0x3806 JUMP JUMPDEST JUMPDEST POP JUMP JUMPDEST PUSH1 0x0 PUSH1 0x7 PUSH1 0x0 SWAP1 SLOAD SWAP1 PUSH2 0x100 EXP SWAP1 DIV PUSH20 0xFFFFFFFFFFFFFFFFFFFFFFFFFFFFFFFFFFFFFFFF AND SWAP1 POP DUP2 PUSH1 0x7 PUSH1 0x0 PUSH2 0x100 EXP DUP2 SLOAD DUP2 PUSH20 0xFFFFFFFFFFFFFFFFFFFFFFFFFFFFFFFFFFFFFFFF MUL NOT AND SWAP1 DUP4 PUSH20 0xFFFFFFFFFFFFFFFFFFFFFFFFFFFFFFFFFFFFFFFF AND MUL OR SWAP1 SSTORE POP DUP2 PUSH20 0xFFFFFFFFFFFFFFFFFFFFFFFFFFFFFFFFFFFFFFFF AND DUP2 PUSH20 0xFFFFFFFFFFFFFFFFFFFFFFFFFFFFFFFFFFFFFFFF AND PUSH32 0x8BE0079C531659141344CD1FD0A4F28419497F9722A3DAAFE3B4186F6B6457E0 PUSH1 0x40 MLOAD PUSH1 0x40 MLOAD DUP1 SWAP2 SUB SWAP1 LOG3 POP POP JUMP JUMPDEST DUP2 PUSH20 0xFFFFFFFFFFFFFFFFFFFFFFFFFFFFFFFFFFFFFFFF AND DUP4 PUSH20 0xFFFFFFFFFFFFFFFFFFFFFFFFFFFFFFFFFFFFFFFF AND EQ ISZERO PUSH2 0x2696 JUMPI PUSH1 0x40 MLOAD PUSH32 0x8C379A000000000000000000000000000000000000000000000000000000000 DUP2 MSTORE PUSH1 0x4 ADD PUSH2 0x268D SWAP1 PUSH2 0x4AE6 JUMP JUMPDEST PUSH1 0x40 MLOAD DUP1 SWAP2 SUB SWAP1 REVERT JUMPDEST DUP1 PUSH1 0x5 PUSH1 0x0 DUP6 PUSH20 0xFFFFFFFFFFFFFFFFFFFFFFFFFFFFFFFFFFFFFFFF AND PUSH20 0xFFFFFFFFFFFFFFFFFFFFFFFFFFFFFFFFFFFFFFFF AND DUP2 MSTORE PUSH1 0x20 ADD SWAP1 DUP2 MSTORE PUSH1 0x20 ADD PUSH1 0x0 KECCAK256 PUSH1 0x0 DUP5 PUSH20 0xFFFFFFFFFFFFFFFFFFFFFFFFFFFFFFFFFFFFFFFF AND PUSH20 0xFFFFFFFFFFFFFFFFFFFFFFFFFFFFFFFFFFFFFFFF AND DUP2 MSTORE PUSH1 0x20 ADD SWAP1 DUP2 MSTORE PUSH1 0x20 ADD PUSH1 0x0 KECCAK256 PUSH1 0x0 PUSH2 0x100 EXP DUP2 SLOAD DUP2 PUSH1 0xFF MUL NOT AND SWAP1 DUP4 ISZERO ISZERO MUL OR SWAP1 SSTORE POP DUP2 PUSH20 0xFFFFFFFFFFFFFFFFFFFFFFFFFFFFFFFFFFFFFFFF AND DUP4 PUSH20 0xFFFFFFFFFFFFFFFFFFFFFFFFFFFFFFFFFFFFFFFF AND PUSH32 0x17307EAB39AB6107E8899845AD3D59BD9653F200F220920489CA2B5937696C31 DUP4 PUSH1 0x40 MLOAD PUSH2 0x2787 SWAP2 SWAP1 PUSH2 0x3917 JUMP JUMPDEST PUSH1 0x40 MLOAD DUP1 SWAP2 SUB SWAP1 LOG3 POP POP POP JUMP JUMPDEST PUSH2 0x279F DUP5 DUP5 DUP5 PUSH2 0x2229 JUMP JUMPDEST PUSH2 0x27AB DUP5 DUP5 DUP5 DUP5 PUSH2 0x2CAD JUMP JUMPDEST PUSH2 0x27EA JUMPI PUSH1 0x40 MLOAD PUSH32 0x8C379A000000000000000000000000000000000000000000000000000000000 DUP2 MSTORE PUSH1 0x4 ADD PUSH2 0x27E1 SWAP1 PUSH2 0x4B78 JUMP JUMPDEST PUSH1 0x40 MLOAD DUP1 SWAP2 SUB SWAP1 REVERT JUMPDEST POP POP POP POP JUMP JUMPDEST PUSH1 0x60 PUSH1 0x40 MLOAD DUP1 PUSH1 0x20 ADD PUSH1 0x40 MSTORE DUP1 PUSH1 0x0 DUP2 MSTORE POP SWAP1 POP SWAP1 JUMP JUMPDEST PUSH1 0x60 PUSH2 0x2812 DUP3 PUSH2 0x1CEA JUMP JUMPDEST PUSH1 0x0 PUSH2 0x281C PUSH2 0x27F0 JUMP JUMPDEST SWAP1 POP PUSH1 0x0 DUP2 MLOAD GT PUSH2 0x283C JUMPI PUSH1 0x40 MLOAD DUP1 PUSH1 0x20 ADD PUSH1 0x40 MSTORE DUP1 PUSH1 0x0 DUP2 MSTORE POP PUSH2 0x2867 JUMP JUMPDEST DUP1 PUSH2 0x2846 DUP5 PUSH2 0x2936 JUMP JUMPDEST PUSH1 0x40 MLOAD PUSH1 0x20 ADD PUSH2 0x2857 SWAP3 SWAP2 SWAP1 PUSH2 0x470A JUMP JUMPDEST PUSH1 0x40 MLOAD PUSH1 0x20 DUP2 DUP4 SUB SUB DUP2 MSTORE SWAP1 PUSH1 0x40 MSTORE JUMPDEST SWAP2 POP POP SWAP2 SWAP1 POP JUMP JUMPDEST PUSH1 0x0 DUP1 PUSH20 0xFFFFFFFFFFFFFFFFFFFFFFFFFFFFFFFFFFFFFFFF AND PUSH1 0x2 PUSH1 0x0 DUP5 DUP2 MSTORE PUSH1 0x20 ADD SWAP1 DUP2 MSTORE PUSH1 0x20 ADD PUSH1 0x0 KECCAK256 PUSH1 0x0 SWAP1 SLOAD SWAP1 PUSH2 0x100 EXP SWAP1 DIV PUSH20 0xFFFFFFFFFFFFFFFFFFFFFFFFFFFFFFFFFFFFFFFF AND PUSH20 0xFFFFFFFFFFFFFFFFFFFFFFFFFFFFFFFFFFFFFFFF AND EQ ISZERO SWAP1 POP SWAP2 SWAP1 POP JUMP JUMPDEST PUSH2 0x28E5 DUP4 DUP4 PUSH2 0x2E44 JUMP JUMPDEST PUSH2 0x28F2 PUSH1 0x0 DUP5 DUP5 DUP5 PUSH2 0x2CAD JUMP JUMPDEST PUSH2 0x2931 JUMPI PUSH1 0x40 MLOAD PUSH32 0x8C379A000000000000000000000000000000000000000000000000000000000 DUP2 MSTORE PUSH1 0x4 ADD PUSH2 0x2928 SWAP1 PUSH2 0x4B78 JUMP JUMPDEST PUSH1 0x40 MLOAD DUP1 SWAP2 SUB SWAP1 REVERT JUMPDEST POP POP POP JUMP JUMPDEST PUSH1 0x60 PUSH1 0x0 DUP3 EQ ISZERO PUSH2 0x297E JUMPI PUSH1 0x40 MLOAD DUP1 PUSH1 0x40 ADD PUSH1 0x40 MSTORE DUP1 PUSH1 0x1 DUP2 MSTORE PUSH1 0x20 ADD PUSH32 0x3000000000000000000000000000000000000000000000000000000000000000 DUP2 MSTORE POP SWAP1 POP PUSH2 0x2A92 JUMP JUMPDEST PUSH1 0x0 DUP3 SWAP1 POP PUSH1 0x0 JUMPDEST PUSH1 0x0 DUP3 EQ PUSH2 0x29B0 JUMPI DUP1 DUP1 PUSH2 0x2999 SWAP1 PUSH2 0x4245 JUMP JUMPDEST SWAP2 POP POP PUSH1 0xA DUP3 PUSH2 0x29A9 SWAP2 SWAP1 PUSH2 0x4B98 JUMP JUMPDEST SWAP2 POP PUSH2 0x2986 JUMP JUMPDEST PUSH1 0x0 DUP2 PUSH8 0xFFFFFFFFFFFFFFFF DUP2 GT ISZERO PUSH2 0x29CC JUMPI PUSH2 0x29CB PUSH2 0x3B9F JUMP JUMPDEST JUMPDEST PUSH1 0x40 MLOAD SWAP1 DUP1 DUP3 MSTORE DUP1 PUSH1 0x1F ADD PUSH1 0x1F NOT AND PUSH1 0x20 ADD DUP3 ADD PUSH1 0x40 MSTORE DUP1 ISZERO PUSH2 0x29FE JUMPI DUP2 PUSH1 0x20 ADD PUSH1 0x1 DUP3 MUL DUP1 CALLDATASIZE DUP4 CALLDATACOPY DUP1 DUP3 ADD SWAP2 POP POP SWAP1 POP JUMPDEST POP SWAP1 POP JUMPDEST PUSH1 0x0 DUP6 EQ PUSH2 0x2A8B JUMPI PUSH1 0x1 DUP3 PUSH2 0x2A17 SWAP2 SWAP1 PUSH2 0x428E JUMP JUMPDEST SWAP2 POP PUSH1 0xA DUP6 PUSH2 0x2A26 SWAP2 SWAP1 PUSH2 0x41E5 JUMP JUMPDEST PUSH1 0x30 PUSH2 0x2A32 SWAP2 SWAP1 PUSH2 0x431C JUMP JUMPDEST PUSH1 0xF8 SHL DUP2 DUP4 DUP2 MLOAD DUP2 LT PUSH2 0x2A48 JUMPI PUSH2 0x2A47 PUSH2 0x44C0 JUMP JUMPDEST JUMPDEST PUSH1 0x20 ADD ADD SWAP1 PUSH31 0xFFFFFFFFFFFFFFFFFFFFFFFFFFFFFFFFFFFFFFFFFFFFFFFFFFFFFFFFFFFFFF NOT AND SWAP1 DUP2 PUSH1 0x0 BYTE SWAP1 MSTORE8 POP PUSH1 0xA DUP6 PUSH2 0x2A84 SWAP2 SWAP1 PUSH2 0x4B98 JUMP JUMPDEST SWAP5 POP PUSH2 0x2A02 JUMP JUMPDEST DUP1 SWAP4 POP POP POP POP JUMPDEST SWAP2 SWAP1 POP JUMP JUMPDEST PUSH1 0x60 PUSH1 0x0 PUSH2 0x2AA8 DUP9 DUP9 DUP9 DUP9 DUP9 PUSH2 0x301E JUMP JUMPDEST SWAP1 POP DUP1 PUSH2 0x2AB4 DUP5 PUSH2 0x3079 JUMP JUMPDEST PUSH1 0x40 MLOAD PUSH1 0x20 ADD PUSH2 0x2AC5 SWAP3 SWAP2 SWAP1 PUSH2 0x4C61 JUMP JUMPDEST PUSH1 0x40 MLOAD PUSH1 0x20 DUP2 DUP4 SUB SUB DUP2 MSTORE SWAP1 PUSH1 0x40 MSTORE SWAP2 POP POP SWAP7 SWAP6 POP POP POP POP POP POP JUMP JUMPDEST PUSH1 0x60 PUSH2 0x2AEC DUP3 PUSH2 0x3165 JUMP JUMPDEST PUSH1 0x40 MLOAD PUSH1 0x20 ADD PUSH2 0x2AFC SWAP2 SWAP1 PUSH2 0x4CE7 JUMP JUMPDEST PUSH1 0x40 MLOAD PUSH1 0x20 DUP2 DUP4 SUB SUB DUP2 MSTORE SWAP1 PUSH1 0x40 MSTORE SWAP1 POP SWAP2 SWAP1 POP JUMP JUMPDEST PUSH2 0x2B1B DUP3 PUSH2 0x286F JUMP JUMPDEST PUSH2 0x2B5A JUMPI PUSH1 0x40 MLOAD PUSH32 0x8C379A000000000000000000000000000000000000000000000000000000000 DUP2 MSTORE PUSH1 0x4 ADD PUSH2 0x2B51 SWAP1 PUSH2 0x4D7B JUMP JUMPDEST PUSH1 0x40 MLOAD DUP1 SWAP2 SUB SWAP1 REVERT JUMPDEST DUP1 PUSH1 0x6 PUSH1 0x0 DUP5 DUP2 MSTORE PUSH1 0x20 ADD SWAP1 DUP2 MSTORE PUSH1 0x20 ADD PUSH1 0x0 KECCAK256 SWAP1 DUP1 MLOAD SWAP1 PUSH1 0x20 ADD SWAP1 PUSH2 0x2B81 SWAP3 SWAP2 SWAP1 PUSH2 0x3780 JUMP JUMPDEST POP POP POP JUMP JUMPDEST POP POP POP JUMP JUMPDEST POP POP POP JUMP JUMPDEST PUSH1 0x0 PUSH2 0x2B9B DUP3 PUSH2 0x13C2 JUMP JUMPDEST SWAP1 POP PUSH2 0x2BA9 DUP2 PUSH1 0x0 DUP5 PUSH2 0x2B86 JUMP JUMPDEST PUSH2 0x2BB4 PUSH1 0x0 DUP4 PUSH2 0x1D3D JUMP JUMPDEST PUSH1 0x1 PUSH1 0x3 PUSH1 0x0 DUP4 PUSH20 0xFFFFFFFFFFFFFFFFFFFFFFFFFFFFFFFFFFFFFFFF AND PUSH20 0xFFFFFFFFFFFFFFFFFFFFFFFFFFFFFFFFFFFFFFFF AND DUP2 MSTORE PUSH1 0x20 ADD SWAP1 DUP2 MSTORE PUSH1 0x20 ADD PUSH1 0x0 KECCAK256 PUSH1 0x0 DUP3 DUP3 SLOAD PUSH2 0x2C04 SWAP2 SWAP1 PUSH2 0x428E JUMP JUMPDEST SWAP3 POP POP DUP2 SWAP1 SSTORE POP PUSH1 0x2 PUSH1 0x0 DUP4 DUP2 MSTORE PUSH1 0x20 ADD SWAP1 DUP2 MSTORE PUSH1 0x20 ADD PUSH1 0x0 KECCAK256 PUSH1 0x0 PUSH2 0x100 EXP DUP2 SLOAD SWAP1 PUSH20 0xFFFFFFFFFFFFFFFFFFFFFFFFFFFFFFFFFFFFFFFF MUL NOT AND SWAP1 SSTORE DUP2 PUSH1 0x0 PUSH20 0xFFFFFFFFFFFFFFFFFFFFFFFFFFFFFFFFFFFFFFFF AND DUP3 PUSH20 0xFFFFFFFFFFFFFFFFFFFFFFFFFFFFFFFFFFFFFFFF AND PUSH32 0xDDF252AD1BE2C89B69C2B068FC378DAA952BA7F163C4A11628F55A4DF523B3EF PUSH1 0x40 MLOAD PUSH1 0x40 MLOAD DUP1 SWAP2 SUB SWAP1 LOG4 PUSH2 0x2CA9 DUP2 PUSH1 0x0 DUP5 PUSH2 0x2B8B JUMP JUMPDEST POP POP JUMP JUMPDEST PUSH1 0x0 PUSH2 0x2CCE DUP5 PUSH20 0xFFFFFFFFFFFFFFFFFFFFFFFFFFFFFFFFFFFFFFFF AND PUSH2 0x32C9 JUMP JUMPDEST ISZERO PUSH2 0x2E37 JUMPI DUP4 PUSH20 0xFFFFFFFFFFFFFFFFFFFFFFFFFFFFFFFFFFFFFFFF AND PUSH4 0x150B7A02 PUSH2 0x2CF7 PUSH2 0x1D35 JUMP JUMPDEST DUP8 DUP7 DUP7 PUSH1 0x40 MLOAD DUP6 PUSH4 0xFFFFFFFF AND PUSH1 0xE0 SHL DUP2 MSTORE PUSH1 0x4 ADD PUSH2 0x2D19 SWAP5 SWAP4 SWAP3 SWAP2 SWAP1 PUSH2 0x4DF0 JUMP JUMPDEST PUSH1 0x20 PUSH1 0x40 MLOAD DUP1 DUP4 SUB DUP2 PUSH1 0x0 DUP8 DUP1 EXTCODESIZE ISZERO DUP1 ISZERO PUSH2 0x2D33 JUMPI PUSH1 0x0 DUP1 REVERT JUMPDEST POP GAS CALL SWAP3 POP POP POP DUP1 ISZERO PUSH2 0x2D64 JUMPI POP PUSH1 0x40 MLOAD RETURNDATASIZE PUSH1 0x1F NOT PUSH1 0x1F DUP3 ADD AND DUP3 ADD DUP1 PUSH1 0x40 MSTORE POP DUP2 ADD SWAP1 PUSH2 0x2D61 SWAP2 SWAP1 PUSH2 0x4E51 JUMP JUMPDEST PUSH1 0x1 JUMPDEST PUSH2 0x2DE7 JUMPI RETURNDATASIZE DUP1 PUSH1 0x0 DUP2 EQ PUSH2 0x2D94 JUMPI PUSH1 0x40 MLOAD SWAP2 POP PUSH1 0x1F NOT PUSH1 0x3F RETURNDATASIZE ADD AND DUP3 ADD PUSH1 0x40 MSTORE RETURNDATASIZE DUP3 MSTORE RETURNDATASIZE PUSH1 0x0 PUSH1 0x20 DUP5 ADD RETURNDATACOPY PUSH2 0x2D99 JUMP JUMPDEST PUSH1 0x60 SWAP2 POP JUMPDEST POP PUSH1 0x0 DUP2 MLOAD EQ ISZERO PUSH2 0x2DDF JUMPI PUSH1 0x40 MLOAD PUSH32 0x8C379A000000000000000000000000000000000000000000000000000000000 DUP2 MSTORE PUSH1 0x4 ADD PUSH2 0x2DD6 SWAP1 PUSH2 0x4B78 JUMP JUMPDEST PUSH1 0x40 MLOAD DUP1 SWAP2 SUB SWAP1 REVERT JUMPDEST DUP1 MLOAD DUP2 PUSH1 0x20 ADD REVERT JUMPDEST PUSH4 0x150B7A02 PUSH1 0xE0 SHL PUSH28 0xFFFFFFFFFFFFFFFFFFFFFFFFFFFFFFFFFFFFFFFFFFFFFFFFFFFFFFFF NOT AND DUP2 PUSH28 0xFFFFFFFFFFFFFFFFFFFFFFFFFFFFFFFFFFFFFFFFFFFFFFFFFFFFFFFF NOT AND EQ SWAP2 POP POP PUSH2 0x2E3C JUMP JUMPDEST PUSH1 0x1 SWAP1 POP JUMPDEST SWAP5 SWAP4 POP POP POP POP JUMP JUMPDEST PUSH1 0x0 PUSH20 0xFFFFFFFFFFFFFFFFFFFFFFFFFFFFFFFFFFFFFFFF AND DUP3 PUSH20 0xFFFFFFFFFFFFFFFFFFFFFFFFFFFFFFFFFFFFFFFF AND EQ ISZERO PUSH2 0x2EB4 JUMPI PUSH1 0x40 MLOAD PUSH32 0x8C379A000000000000000000000000000000000000000000000000000000000 DUP2 MSTORE PUSH1 0x4 ADD PUSH2 0x2EAB SWAP1 PUSH2 0x4ECA JUMP JUMPDEST PUSH1 0x40 MLOAD DUP1 SWAP2 SUB SWAP1 REVERT JUMPDEST PUSH2 0x2EBD DUP2 PUSH2 0x286F JUMP JUMPDEST ISZERO PUSH2 0x2EFD JUMPI PUSH1 0x40 MLOAD PUSH32 0x8C379A000000000000000000000000000000000000000000000000000000000 DUP2 MSTORE PUSH1 0x4 ADD PUSH2 0x2EF4 SWAP1 PUSH2 0x4F36 JUMP JUMPDEST PUSH1 0x40 MLOAD DUP1 SWAP2 SUB SWAP1 REVERT JUMPDEST PUSH2 0x2F09 PUSH1 0x0 DUP4 DUP4 PUSH2 0x2B86 JUMP JUMPDEST PUSH1 0x1 PUSH1 0x3 PUSH1 0x0 DUP5 PUSH20 0xFFFFFFFFFFFFFFFFFFFFFFFFFFFFFFFFFFFFFFFF AND PUSH20 0xFFFFFFFFFFFFFFFFFFFFFFFFFFFFFFFFFFFFFFFF AND DUP2 MSTORE PUSH1 0x20 ADD SWAP1 DUP2 MSTORE PUSH1 0x20 ADD PUSH1 0x0 KECCAK256 PUSH1 0x0 DUP3 DUP3 SLOAD PUSH2 0x2F59 SWAP2 SWAP1 PUSH2 0x431C JUMP JUMPDEST SWAP3 POP POP DUP2 SWAP1 SSTORE POP DUP2 PUSH1 0x2 PUSH1 0x0 DUP4 DUP2 MSTORE PUSH1 0x20 ADD SWAP1 DUP2 MSTORE PUSH1 0x20 ADD PUSH1 0x0 KECCAK256 PUSH1 0x0 PUSH2 0x100 EXP DUP2 SLOAD DUP2 PUSH20 0xFFFFFFFFFFFFFFFFFFFFFFFFFFFFFFFFFFFFFFFF MUL NOT AND SWAP1 DUP4 PUSH20 0xFFFFFFFFFFFFFFFFFFFFFFFFFFFFFFFFFFFFFFFF AND MUL OR SWAP1 SSTORE POP DUP1 DUP3 PUSH20 0xFFFFFFFFFFFFFFFFFFFFFFFFFFFFFFFFFFFFFFFF AND PUSH1 0x0 PUSH20 0xFFFFFFFFFFFFFFFFFFFFFFFFFFFFFFFFFFFFFFFF AND PUSH32 0xDDF252AD1BE2C89B69C2B068FC378DAA952BA7F163C4A11628F55A4DF523B3EF PUSH1 0x40 MLOAD PUSH1 0x40 MLOAD DUP1 SWAP2 SUB SWAP1 LOG4 PUSH2 0x301A PUSH1 0x0 DUP4 DUP4 PUSH2 0x2B8B JUMP JUMPDEST POP POP JUMP JUMPDEST PUSH1 0x60 DUP4 PUSH2 0x302A DUP8 PUSH2 0x32EC JUMP JUMPDEST DUP4 DUP6 PUSH2 0x304B DUP10 PUSH20 0xFFFFFFFFFFFFFFFFFFFFFFFFFFFFFFFFFFFFFFFF AND PUSH2 0x33C4 JUMP JUMPDEST PUSH1 0x40 MLOAD PUSH1 0x20 ADD PUSH2 0x305F SWAP6 SWAP5 SWAP4 SWAP3 SWAP2 SWAP1 PUSH2 0x511E JUMP JUMPDEST PUSH1 0x40 MLOAD PUSH1 0x20 DUP2 DUP4 SUB SUB DUP2 MSTORE SWAP1 PUSH1 0x40 MSTORE SWAP1 POP SWAP6 SWAP5 POP POP POP POP POP JUMP JUMPDEST PUSH1 0x60 PUSH1 0x0 PUSH1 0x40 MLOAD DUP1 PUSH1 0x20 ADD PUSH1 0x40 MSTORE DUP1 PUSH1 0x0 DUP2 MSTORE POP SWAP1 POP PUSH1 0x0 DUP2 DUP5 PUSH1 0x0 ADD MLOAD PUSH2 0x30A4 DUP7 PUSH1 0x20 ADD MLOAD PUSH2 0x32EC JUMP JUMPDEST PUSH2 0x30B1 DUP8 PUSH1 0x40 ADD MLOAD PUSH2 0x32EC JUMP JUMPDEST PUSH2 0x30BE DUP9 PUSH1 0x60 ADD MLOAD PUSH2 0x32EC JUMP JUMPDEST PUSH2 0x30CB DUP10 PUSH1 0x80 ADD MLOAD PUSH2 0x32EC JUMP JUMPDEST PUSH2 0x30D8 DUP11 PUSH1 0xA0 ADD MLOAD PUSH2 0x32EC JUMP JUMPDEST PUSH2 0x30E5 DUP12 PUSH1 0xC0 ADD MLOAD PUSH2 0x32EC JUMP JUMPDEST PUSH2 0x30F2 DUP13 PUSH1 0xE0 ADD MLOAD PUSH2 0x32EC JUMP JUMPDEST PUSH2 0x3100 DUP14 PUSH2 0x100 ADD MLOAD PUSH2 0x32EC JUMP JUMPDEST PUSH2 0x310E DUP15 PUSH2 0x120 ADD MLOAD PUSH2 0x32EC JUMP JUMPDEST PUSH1 0x40 MLOAD PUSH1 0x20 ADD PUSH2 0x3128 SWAP12 SWAP11 SWAP10 SWAP9 SWAP8 SWAP7 SWAP6 SWAP5 SWAP4 SWAP3 SWAP2 SWAP1 PUSH2 0x551B JUMP JUMPDEST PUSH1 0x40 MLOAD PUSH1 0x20 DUP2 DUP4 SUB SUB DUP2 MSTORE SWAP1 PUSH1 0x40 MSTORE SWAP1 POP DUP1 SWAP2 POP DUP2 PUSH1 0x40 MLOAD PUSH1 0x20 ADD PUSH2 0x314D SWAP2 SWAP1 PUSH2 0x56DC JUMP JUMPDEST PUSH1 0x40 MLOAD PUSH1 0x20 DUP2 DUP4 SUB SUB DUP2 MSTORE SWAP1 PUSH1 0x40 MSTORE SWAP3 POP POP POP SWAP2 SWAP1 POP JUMP JUMPDEST PUSH1 0x60 PUSH1 0x0 DUP3 MLOAD EQ ISZERO PUSH2 0x3188 JUMPI PUSH1 0x40 MLOAD DUP1 PUSH1 0x20 ADD PUSH1 0x40 MSTORE DUP1 PUSH1 0x0 DUP2 MSTORE POP SWAP1 POP PUSH2 0x32C4 JUMP JUMPDEST PUSH1 0x0 PUSH1 0x40 MLOAD DUP1 PUSH1 0x60 ADD PUSH1 0x40 MSTORE DUP1 PUSH1 0x40 DUP2 MSTORE PUSH1 0x20 ADD PUSH2 0x576B PUSH1 0x40 SWAP2 CODECOPY SWAP1 POP PUSH1 0x0 PUSH1 0x3 PUSH1 0x2 DUP6 MLOAD PUSH2 0x31B7 SWAP2 SWAP1 PUSH2 0x431C JUMP JUMPDEST PUSH2 0x31C1 SWAP2 SWAP1 PUSH2 0x4B98 JUMP JUMPDEST PUSH1 0x4 PUSH2 0x31CD SWAP2 SWAP1 PUSH2 0x42C2 JUMP JUMPDEST PUSH8 0xFFFFFFFFFFFFFFFF DUP2 GT ISZERO PUSH2 0x31E6 JUMPI PUSH2 0x31E5 PUSH2 0x3B9F JUMP JUMPDEST JUMPDEST PUSH1 0x40 MLOAD SWAP1 DUP1 DUP3 MSTORE DUP1 PUSH1 0x1F ADD PUSH1 0x1F NOT AND PUSH1 0x20 ADD DUP3 ADD PUSH1 0x40 MSTORE DUP1 ISZERO PUSH2 0x3218 JUMPI DUP2 PUSH1 0x20 ADD PUSH1 0x1 DUP3 MUL DUP1 CALLDATASIZE DUP4 CALLDATACOPY DUP1 DUP3 ADD SWAP2 POP POP SWAP1 POP JUMPDEST POP SWAP1 POP PUSH1 0x1 DUP3 ADD PUSH1 0x20 DUP3 ADD DUP6 DUP7 MLOAD DUP8 ADD JUMPDEST DUP1 DUP3 LT ISZERO PUSH2 0x3284 JUMPI PUSH1 0x3 DUP3 ADD SWAP2 POP DUP2 MLOAD PUSH1 0x3F DUP2 PUSH1 0x12 SHR AND DUP6 ADD MLOAD DUP5 MSTORE8 PUSH1 0x1 DUP5 ADD SWAP4 POP PUSH1 0x3F DUP2 PUSH1 0xC SHR AND DUP6 ADD MLOAD DUP5 MSTORE8 PUSH1 0x1 DUP5 ADD SWAP4 POP PUSH1 0x3F DUP2 PUSH1 0x6 SHR AND DUP6 ADD MLOAD DUP5 MSTORE8 PUSH1 0x1 DUP5 ADD SWAP4 POP PUSH1 0x3F DUP2 AND DUP6 ADD MLOAD DUP5 MSTORE8 PUSH1 0x1 DUP5 ADD SWAP4 POP POP PUSH2 0x3229 JUMP JUMPDEST POP POP PUSH1 0x3 DUP7 MLOAD MOD PUSH1 0x1 DUP2 EQ PUSH2 0x32A0 JUMPI PUSH1 0x2 DUP2 EQ PUSH2 0x32B3 JUMPI PUSH2 0x32BB JUMP JUMPDEST PUSH1 0x3D PUSH1 0x1 DUP4 SUB MSTORE8 PUSH1 0x3D PUSH1 0x2 DUP4 SUB MSTORE8 PUSH2 0x32BB JUMP JUMPDEST PUSH1 0x3D PUSH1 0x1 DUP4 SUB MSTORE8 JUMPDEST POP POP POP DUP1 SWAP3 POP POP POP JUMPDEST SWAP2 SWAP1 POP JUMP JUMPDEST PUSH1 0x0 DUP1 DUP3 PUSH20 0xFFFFFFFFFFFFFFFFFFFFFFFFFFFFFFFFFFFFFFFF AND EXTCODESIZE GT SWAP1 POP SWAP2 SWAP1 POP JUMP JUMPDEST PUSH1 0x60 PUSH1 0x0 PUSH1 0x1 PUSH2 0x32FB DUP5 PUSH2 0x33F1 JUMP JUMPDEST ADD SWAP1 POP PUSH1 0x0 DUP2 PUSH8 0xFFFFFFFFFFFFFFFF DUP2 GT ISZERO PUSH2 0x331A JUMPI PUSH2 0x3319 PUSH2 0x3B9F JUMP JUMPDEST JUMPDEST PUSH1 0x40 MLOAD SWAP1 DUP1 DUP3 MSTORE DUP1 PUSH1 0x1F ADD PUSH1 0x1F NOT AND PUSH1 0x20 ADD DUP3 ADD PUSH1 0x40 MSTORE DUP1 ISZERO PUSH2 0x334C JUMPI DUP2 PUSH1 0x20 ADD PUSH1 0x1 DUP3 MUL DUP1 CALLDATASIZE DUP4 CALLDATACOPY DUP1 DUP3 ADD SWAP2 POP POP SWAP1 POP JUMPDEST POP SWAP1 POP PUSH1 0x0 DUP3 PUSH1 0x20 ADD DUP3 ADD SWAP1 POP JUMPDEST PUSH1 0x1 ISZERO PUSH2 0x33B9 JUMPI DUP1 DUP1 PUSH1 0x1 SWAP1 SUB SWAP2 POP POP PUSH32 0x3031323334353637383961626364656600000000000000000000000000000000 PUSH1 0xA DUP7 MOD BYTE DUP2 MSTORE8 PUSH1 0xA DUP6 DUP2 PUSH2 0x33A3 JUMPI PUSH2 0x33A2 PUSH2 0x41B6 JUMP JUMPDEST JUMPDEST DIV SWAP5 POP PUSH1 0x0 DUP6 EQ ISZERO PUSH2 0x33B4 JUMPI PUSH2 0x33B9 JUMP JUMPDEST PUSH2 0x335A JUMP JUMPDEST DUP2 SWAP4 POP POP POP POP SWAP2 SWAP1 POP JUMP JUMPDEST PUSH1 0x60 PUSH2 0x33EA DUP3 PUSH20 0xFFFFFFFFFFFFFFFFFFFFFFFFFFFFFFFFFFFFFFFF AND PUSH1 0x14 PUSH1 0xFF AND PUSH2 0x3544 JUMP JUMPDEST SWAP1 POP SWAP2 SWAP1 POP JUMP JUMPDEST PUSH1 0x0 DUP1 PUSH1 0x0 SWAP1 POP PUSH27 0x184F03E93FF9F4DAA797ED6E38ED64BF6A1F010000000000000000 DUP4 LT PUSH2 0x344F JUMPI PUSH27 0x184F03E93FF9F4DAA797ED6E38ED64BF6A1F010000000000000000 DUP4 DUP2 PUSH2 0x3445 JUMPI PUSH2 0x3444 PUSH2 0x41B6 JUMP JUMPDEST JUMPDEST DIV SWAP3 POP PUSH1 0x40 DUP2 ADD SWAP1 POP JUMPDEST PUSH14 0x4EE2D6D415B85ACEF8100000000 DUP4 LT PUSH2 0x348C JUMPI PUSH14 0x4EE2D6D415B85ACEF8100000000 DUP4 DUP2 PUSH2 0x3482 JUMPI PUSH2 0x3481 PUSH2 0x41B6 JUMP JUMPDEST JUMPDEST DIV SWAP3 POP PUSH1 0x20 DUP2 ADD SWAP1 POP JUMPDEST PUSH7 0x2386F26FC10000 DUP4 LT PUSH2 0x34BB JUMPI PUSH7 0x2386F26FC10000 DUP4 DUP2 PUSH2 0x34B1 JUMPI PUSH2 0x34B0 PUSH2 0x41B6 JUMP JUMPDEST JUMPDEST DIV SWAP3 POP PUSH1 0x10 DUP2 ADD SWAP1 POP JUMPDEST PUSH4 0x5F5E100 DUP4 LT PUSH2 0x34E4 JUMPI PUSH4 0x5F5E100 DUP4 DUP2 PUSH2 0x34DA JUMPI PUSH2 0x34D9 PUSH2 0x41B6 JUMP JUMPDEST JUMPDEST DIV SWAP3 POP PUSH1 0x8 DUP2 ADD SWAP1 POP JUMPDEST PUSH2 0x2710 DUP4 LT PUSH2 0x3509 JUMPI PUSH2 0x2710 DUP4 DUP2 PUSH2 0x34FF JUMPI PUSH2 0x34FE PUSH2 0x41B6 JUMP JUMPDEST JUMPDEST DIV SWAP3 POP PUSH1 0x4 DUP2 ADD SWAP1 POP JUMPDEST PUSH1 0x64 DUP4 LT PUSH2 0x352C JUMPI PUSH1 0x64 DUP4 DUP2 PUSH2 0x3522 JUMPI PUSH2 0x3521 PUSH2 0x41B6 JUMP JUMPDEST JUMPDEST DIV SWAP3 POP PUSH1 0x2 DUP2 ADD SWAP1 POP JUMPDEST PUSH1 0xA DUP4 LT PUSH2 0x353B JUMPI PUSH1 0x1 DUP2 ADD SWAP1 POP JUMPDEST DUP1 SWAP2 POP POP SWAP2 SWAP1 POP JUMP JUMPDEST PUSH1 0x60 PUSH1 0x0 PUSH1 0x2 DUP4 PUSH1 0x2 PUSH2 0x3557 SWAP2 SWAP1 PUSH2 0x42C2 JUMP JUMPDEST PUSH2 0x3561 SWAP2 SWAP1 PUSH2 0x431C JUMP JUMPDEST PUSH8 0xFFFFFFFFFFFFFFFF DUP2 GT ISZERO PUSH2 0x357A JUMPI PUSH2 0x3579 PUSH2 0x3B9F JUMP JUMPDEST JUMPDEST PUSH1 0x40 MLOAD SWAP1 DUP1 DUP3 MSTORE DUP1 PUSH1 0x1F ADD PUSH1 0x1F NOT AND PUSH1 0x20 ADD DUP3 ADD PUSH1 0x40 MSTORE DUP1 ISZERO PUSH2 0x35AC JUMPI DUP2 PUSH1 0x20 ADD PUSH1 0x1 DUP3 MUL DUP1 CALLDATASIZE DUP4 CALLDATACOPY DUP1 DUP3 ADD SWAP2 POP POP SWAP1 POP JUMPDEST POP SWAP1 POP PUSH32 0x3000000000000000000000000000000000000000000000000000000000000000 DUP2 PUSH1 0x0 DUP2 MLOAD DUP2 LT PUSH2 0x35E4 JUMPI PUSH2 0x35E3 PUSH2 0x44C0 JUMP JUMPDEST JUMPDEST PUSH1 0x20 ADD ADD SWAP1 PUSH31 0xFFFFFFFFFFFFFFFFFFFFFFFFFFFFFFFFFFFFFFFFFFFFFFFFFFFFFFFFFFFFFF NOT AND SWAP1 DUP2 PUSH1 0x0 BYTE SWAP1 MSTORE8 POP PUSH32 0x7800000000000000000000000000000000000000000000000000000000000000 DUP2 PUSH1 0x1 DUP2 MLOAD DUP2 LT PUSH2 0x3648 JUMPI PUSH2 0x3647 PUSH2 0x44C0 JUMP JUMPDEST JUMPDEST PUSH1 0x20 ADD ADD SWAP1 PUSH31 0xFFFFFFFFFFFFFFFFFFFFFFFFFFFFFFFFFFFFFFFFFFFFFFFFFFFFFFFFFFFFFF NOT AND SWAP1 DUP2 PUSH1 0x0 BYTE SWAP1 MSTORE8 POP PUSH1 0x0 PUSH1 0x1 DUP5 PUSH1 0x2 PUSH2 0x3688 SWAP2 SWAP1 PUSH2 0x42C2 JUMP JUMPDEST PUSH2 0x3692 SWAP2 SWAP1 PUSH2 0x431C JUMP JUMPDEST SWAP1 POP JUMPDEST PUSH1 0x1 DUP2 GT ISZERO PUSH2 0x3732 JUMPI PUSH32 0x3031323334353637383961626364656600000000000000000000000000000000 PUSH1 0xF DUP7 AND PUSH1 0x10 DUP2 LT PUSH2 0x36D4 JUMPI PUSH2 0x36D3 PUSH2 0x44C0 JUMP JUMPDEST JUMPDEST BYTE PUSH1 0xF8 SHL DUP3 DUP3 DUP2 MLOAD DUP2 LT PUSH2 0x36EB JUMPI PUSH2 0x36EA PUSH2 0x44C0 JUMP JUMPDEST JUMPDEST PUSH1 0x20 ADD ADD SWAP1 PUSH31 0xFFFFFFFFFFFFFFFFFFFFFFFFFFFFFFFFFFFFFFFFFFFFFFFFFFFFFFFFFFFFFF NOT AND SWAP1 DUP2 PUSH1 0x0 BYTE SWAP1 MSTORE8 POP PUSH1 0x4 DUP6 SWAP1 SHR SWAP5 POP DUP1 PUSH2 0x372B SWAP1 PUSH2 0x4372 JUMP JUMPDEST SWAP1 POP PUSH2 0x3695 JUMP JUMPDEST POP PUSH1 0x0 DUP5 EQ PUSH2 0x3776 JUMPI PUSH1 0x40 MLOAD PUSH32 0x8C379A000000000000000000000000000000000000000000000000000000000 DUP2 MSTORE PUSH1 0x4 ADD PUSH2 0x376D SWAP1 PUSH2 0x574A JUMP JUMPDEST PUSH1 0x40 MLOAD DUP1 SWAP2 SUB SWAP1 REVERT JUMPDEST DUP1 SWAP2 POP POP SWAP3 SWAP2 POP POP JUMP JUMPDEST DUP3 DUP1 SLOAD PUSH2 0x378C SWAP1 PUSH2 0x3FBA JUMP JUMPDEST SWAP1 PUSH1 0x0 MSTORE PUSH1 0x20 PUSH1 0x0 KECCAK256 SWAP1 PUSH1 0x1F ADD PUSH1 0x20 SWAP1 DIV DUP2 ADD SWAP3 DUP3 PUSH2 0x37AE JUMPI PUSH1 0x0 DUP6 SSTORE PUSH2 0x37F5 JUMP JUMPDEST DUP3 PUSH1 0x1F LT PUSH2 0x37C7 JUMPI DUP1 MLOAD PUSH1 0xFF NOT AND DUP4 DUP1 ADD OR DUP6 SSTORE PUSH2 0x37F5 JUMP JUMPDEST DUP3 DUP1 ADD PUSH1 0x1 ADD DUP6 SSTORE DUP3 ISZERO PUSH2 0x37F5 JUMPI SWAP2 DUP3 ADD JUMPDEST DUP3 DUP2 GT ISZERO PUSH2 0x37F4 JUMPI DUP3 MLOAD DUP3 SSTORE SWAP2 PUSH1 0x20 ADD SWAP2 SWAP1 PUSH1 0x1 ADD SWAP1 PUSH2 0x37D9 JUMP JUMPDEST JUMPDEST POP SWAP1 POP PUSH2 0x3802 SWAP2 SWAP1 PUSH2 0x3846 JUMP JUMPDEST POP SWAP1 JUMP JUMPDEST POP DUP1 SLOAD PUSH2 0x3812 SWAP1 PUSH2 0x3FBA JUMP JUMPDEST PUSH1 0x0 DUP3 SSTORE DUP1 PUSH1 0x1F LT PUSH2 0x3824 JUMPI POP PUSH2 0x3843 JUMP JUMPDEST PUSH1 0x1F ADD PUSH1 0x20 SWAP1 DIV SWAP1 PUSH1 0x0 MSTORE PUSH1 0x20 PUSH1 0x0 KECCAK256 SWAP1 DUP2 ADD SWAP1 PUSH2 0x3842 SWAP2 SWAP1 PUSH2 0x3846 JUMP JUMPDEST JUMPDEST POP JUMP JUMPDEST JUMPDEST DUP1 DUP3 GT ISZERO PUSH2 0x385F JUMPI PUSH1 0x0 DUP2 PUSH1 0x0 SWAP1 SSTORE POP PUSH1 0x1 ADD PUSH2 0x3847 JUMP JUMPDEST POP SWAP1 JUMP JUMPDEST PUSH1 0x0 PUSH1 0x40 MLOAD SWAP1 POP SWAP1 JUMP JUMPDEST PUSH1 0x0 DUP1 REVERT JUMPDEST PUSH1 0x0 DUP1 REVERT JUMPDEST PUSH1 0x0 PUSH32 0xFFFFFFFF00000000000000000000000000000000000000000000000000000000 DUP3 AND SWAP1 POP SWAP2 SWAP1 POP JUMP JUMPDEST PUSH2 0x38AC DUP2 PUSH2 0x3877 JUMP JUMPDEST DUP2 EQ PUSH2 0x38B7 JUMPI PUSH1 0x0 DUP1 REVERT JUMPDEST POP JUMP JUMPDEST PUSH1 0x0 DUP2 CALLDATALOAD SWAP1 POP PUSH2 0x38C9 DUP2 PUSH2 0x38A3 JUMP JUMPDEST SWAP3 SWAP2 POP POP JUMP JUMPDEST PUSH1 0x0 PUSH1 0x20 DUP3 DUP5 SUB SLT ISZERO PUSH2 0x38E5 JUMPI PUSH2 0x38E4 PUSH2 0x386D JUMP JUMPDEST JUMPDEST PUSH1 0x0 PUSH2 0x38F3 DUP5 DUP3 DUP6 ADD PUSH2 0x38BA JUMP JUMPDEST SWAP2 POP POP SWAP3 SWAP2 POP POP JUMP JUMPDEST PUSH1 0x0 DUP2 ISZERO ISZERO SWAP1 POP SWAP2 SWAP1 POP JUMP JUMPDEST PUSH2 0x3911 DUP2 PUSH2 0x38FC JUMP JUMPDEST DUP3 MSTORE POP POP JUMP JUMPDEST PUSH1 0x0 PUSH1 0x20 DUP3 ADD SWAP1 POP PUSH2 0x392C PUSH1 0x0 DUP4 ADD DUP5 PUSH2 0x3908 JUMP JUMPDEST SWAP3 SWAP2 POP POP JUMP JUMPDEST PUSH1 0x0 DUP2 MLOAD SWAP1 POP SWAP2 SWAP1 POP JUMP JUMPDEST PUSH1 0x0 DUP3 DUP3 MSTORE PUSH1 0x20 DUP3 ADD SWAP1 POP SWAP3 SWAP2 POP POP JUMP JUMPDEST PUSH1 0x0 JUMPDEST DUP4 DUP2 LT ISZERO PUSH2 0x396C JUMPI DUP1 DUP3 ADD MLOAD DUP2 DUP5 ADD MSTORE PUSH1 0x20 DUP2 ADD SWAP1 POP PUSH2 0x3951 JUMP JUMPDEST DUP4 DUP2 GT ISZERO PUSH2 0x397B JUMPI PUSH1 0x0 DUP5 DUP5 ADD MSTORE JUMPDEST POP POP POP POP JUMP JUMPDEST PUSH1 0x0 PUSH1 0x1F NOT PUSH1 0x1F DUP4 ADD AND SWAP1 POP SWAP2 SWAP1 POP JUMP JUMPDEST PUSH1 0x0 PUSH2 0x399D DUP3 PUSH2 0x3932 JUMP JUMPDEST PUSH2 0x39A7 DUP2 DUP6 PUSH2 0x393D JUMP JUMPDEST SWAP4 POP PUSH2 0x39B7 DUP2 DUP6 PUSH1 0x20 DUP7 ADD PUSH2 0x394E JUMP JUMPDEST PUSH2 0x39C0 DUP2 PUSH2 0x3981 JUMP JUMPDEST DUP5 ADD SWAP2 POP POP SWAP3 SWAP2 POP POP JUMP JUMPDEST PUSH1 0x0 PUSH1 0x20 DUP3 ADD SWAP1 POP DUP2 DUP2 SUB PUSH1 0x0 DUP4 ADD MSTORE PUSH2 0x39E5 DUP2 DUP5 PUSH2 0x3992 JUMP JUMPDEST SWAP1 POP SWAP3 SWAP2 POP POP JUMP JUMPDEST PUSH1 0x0 DUP2 SWAP1 POP SWAP2 SWAP1 POP JUMP JUMPDEST PUSH2 0x3A00 DUP2 PUSH2 0x39ED JUMP JUMPDEST DUP2 EQ PUSH2 0x3A0B JUMPI PUSH1 0x0 DUP1 REVERT JUMPDEST POP JUMP JUMPDEST PUSH1 0x0 DUP2 CALLDATALOAD SWAP1 POP PUSH2 0x3A1D DUP2 PUSH2 0x39F7 JUMP JUMPDEST SWAP3 SWAP2 POP POP JUMP JUMPDEST PUSH1 0x0 PUSH1 0x20 DUP3 DUP5 SUB SLT ISZERO PUSH2 0x3A39 JUMPI PUSH2 0x3A38 PUSH2 0x386D JUMP JUMPDEST JUMPDEST PUSH1 0x0 PUSH2 0x3A47 DUP5 DUP3 DUP6 ADD PUSH2 0x3A0E JUMP JUMPDEST SWAP2 POP POP SWAP3 SWAP2 POP POP JUMP JUMPDEST PUSH1 0x0 PUSH20 0xFFFFFFFFFFFFFFFFFFFFFFFFFFFFFFFFFFFFFFFF DUP3 AND SWAP1 POP SWAP2 SWAP1 POP JUMP JUMPDEST PUSH1 0x0 PUSH2 0x3A7B DUP3 PUSH2 0x3A50 JUMP JUMPDEST SWAP1 POP SWAP2 SWAP1 POP JUMP JUMPDEST PUSH2 0x3A8B DUP2 PUSH2 0x3A70 JUMP JUMPDEST DUP3 MSTORE POP POP JUMP JUMPDEST PUSH1 0x0 PUSH1 0x20 DUP3 ADD SWAP1 POP PUSH2 0x3AA6 PUSH1 0x0 DUP4 ADD DUP5 PUSH2 0x3A82 JUMP JUMPDEST SWAP3 SWAP2 POP POP JUMP JUMPDEST PUSH2 0x3AB5 DUP2 PUSH2 0x3A70 JUMP JUMPDEST DUP2 EQ PUSH2 0x3AC0 JUMPI PUSH1 0x0 DUP1 REVERT JUMPDEST POP JUMP JUMPDEST PUSH1 0x0 DUP2 CALLDATALOAD SWAP1 POP PUSH2 0x3AD2 DUP2 PUSH2 0x3AAC JUMP JUMPDEST SWAP3 SWAP2 POP POP JUMP JUMPDEST PUSH1 0x0 DUP1 PUSH1 0x40 DUP4 DUP6 SUB SLT ISZERO PUSH2 0x3AEF JUMPI PUSH2 0x3AEE PUSH2 0x386D JUMP JUMPDEST JUMPDEST PUSH1 0x0 PUSH2 0x3AFD DUP6 DUP3 DUP7 ADD PUSH2 0x3AC3 JUMP JUMPDEST SWAP3 POP POP PUSH1 0x20 PUSH2 0x3B0E DUP6 DUP3 DUP7 ADD PUSH2 0x3A0E JUMP JUMPDEST SWAP2 POP POP SWAP3 POP SWAP3 SWAP1 POP JUMP JUMPDEST PUSH2 0x3B21 DUP2 PUSH2 0x39ED JUMP JUMPDEST DUP3 MSTORE POP POP JUMP JUMPDEST PUSH1 0x0 PUSH1 0x20 DUP3 ADD SWAP1 POP PUSH2 0x3B3C PUSH1 0x0 DUP4 ADD DUP5 PUSH2 0x3B18 JUMP JUMPDEST SWAP3 SWAP2 POP POP JUMP JUMPDEST PUSH1 0x0 DUP1 PUSH1 0x0 PUSH1 0x60 DUP5 DUP7 SUB SLT ISZERO PUSH2 0x3B5B JUMPI PUSH2 0x3B5A PUSH2 0x386D JUMP JUMPDEST JUMPDEST PUSH1 0x0 PUSH2 0x3B69 DUP7 DUP3 DUP8 ADD PUSH2 0x3AC3 JUMP JUMPDEST SWAP4 POP POP PUSH1 0x20 PUSH2 0x3B7A DUP7 DUP3 DUP8 ADD PUSH2 0x3AC3 JUMP JUMPDEST SWAP3 POP POP PUSH1 0x40 PUSH2 0x3B8B DUP7 DUP3 DUP8 ADD PUSH2 0x3A0E JUMP JUMPDEST SWAP2 POP POP SWAP3 POP SWAP3 POP SWAP3 JUMP JUMPDEST PUSH1 0x0 DUP1 REVERT JUMPDEST PUSH1 0x0 DUP1 REVERT JUMPDEST PUSH32 0x4E487B7100000000000000000000000000000000000000000000000000000000 PUSH1 0x0 MSTORE PUSH1 0x41 PUSH1 0x4 MSTORE PUSH1 0x24 PUSH1 0x0 REVERT JUMPDEST PUSH2 0x3BD7 DUP3 PUSH2 0x3981 JUMP JUMPDEST DUP2 ADD DUP2 DUP2 LT PUSH8 0xFFFFFFFFFFFFFFFF DUP3 GT OR ISZERO PUSH2 0x3BF6 JUMPI PUSH2 0x3BF5 PUSH2 0x3B9F JUMP JUMPDEST JUMPDEST DUP1 PUSH1 0x40 MSTORE POP POP POP JUMP JUMPDEST PUSH1 0x0 PUSH2 0x3C09 PUSH2 0x3863 JUMP JUMPDEST SWAP1 POP PUSH2 0x3C15 DUP3 DUP3 PUSH2 0x3BCE JUMP JUMPDEST SWAP2 SWAP1 POP JUMP JUMPDEST PUSH1 0x0 PUSH8 0xFFFFFFFFFFFFFFFF DUP3 GT ISZERO PUSH2 0x3C35 JUMPI PUSH2 0x3C34 PUSH2 0x3B9F JUMP JUMPDEST JUMPDEST PUSH2 0x3C3E DUP3 PUSH2 0x3981 JUMP JUMPDEST SWAP1 POP PUSH1 0x20 DUP2 ADD SWAP1 POP SWAP2 SWAP1 POP JUMP JUMPDEST DUP3 DUP2 DUP4 CALLDATACOPY PUSH1 0x0 DUP4 DUP4 ADD MSTORE POP POP POP JUMP JUMPDEST PUSH1 0x0 PUSH2 0x3C6D PUSH2 0x3C68 DUP5 PUSH2 0x3C1A JUMP JUMPDEST PUSH2 0x3BFF JUMP JUMPDEST SWAP1 POP DUP3 DUP2 MSTORE PUSH1 0x20 DUP2 ADD DUP5 DUP5 DUP5 ADD GT ISZERO PUSH2 0x3C89 JUMPI PUSH2 0x3C88 PUSH2 0x3B9A JUMP JUMPDEST JUMPDEST PUSH2 0x3C94 DUP5 DUP3 DUP6 PUSH2 0x3C4B JUMP JUMPDEST POP SWAP4 SWAP3 POP POP POP JUMP JUMPDEST PUSH1 0x0 DUP3 PUSH1 0x1F DUP4 ADD SLT PUSH2 0x3CB1 JUMPI PUSH2 0x3CB0 PUSH2 0x3B95 JUMP JUMPDEST JUMPDEST DUP2 CALLDATALOAD PUSH2 0x3CC1 DUP5 DUP3 PUSH1 0x20 DUP7 ADD PUSH2 0x3C5A JUMP JUMPDEST SWAP2 POP POP SWAP3 SWAP2 POP POP JUMP JUMPDEST PUSH1 0x0 PUSH1 0x20 DUP3 DUP5 SUB SLT ISZERO PUSH2 0x3CE0 JUMPI PUSH2 0x3CDF PUSH2 0x386D JUMP JUMPDEST JUMPDEST PUSH1 0x0 DUP3 ADD CALLDATALOAD PUSH8 0xFFFFFFFFFFFFFFFF DUP2 GT ISZERO PUSH2 0x3CFE JUMPI PUSH2 0x3CFD PUSH2 0x3872 JUMP JUMPDEST JUMPDEST PUSH2 0x3D0A DUP5 DUP3 DUP6 ADD PUSH2 0x3C9C JUMP JUMPDEST SWAP2 POP POP SWAP3 SWAP2 POP POP JUMP JUMPDEST PUSH1 0x0 PUSH1 0x20 DUP3 DUP5 SUB SLT ISZERO PUSH2 0x3D29 JUMPI PUSH2 0x3D28 PUSH2 0x386D JUMP JUMPDEST JUMPDEST PUSH1 0x0 PUSH2 0x3D37 DUP5 DUP3 DUP6 ADD PUSH2 0x3AC3 JUMP JUMPDEST SWAP2 POP POP SWAP3 SWAP2 POP POP JUMP JUMPDEST PUSH2 0x3D49 DUP2 PUSH2 0x38FC JUMP JUMPDEST DUP2 EQ PUSH2 0x3D54 JUMPI PUSH1 0x0 DUP1 REVERT JUMPDEST POP JUMP JUMPDEST PUSH1 0x0 DUP2 CALLDATALOAD SWAP1 POP PUSH2 0x3D66 DUP2 PUSH2 0x3D40 JUMP JUMPDEST SWAP3 SWAP2 POP POP JUMP JUMPDEST PUSH1 0x0 DUP1 PUSH1 0x40 DUP4 DUP6 SUB SLT ISZERO PUSH2 0x3D83 JUMPI PUSH2 0x3D82 PUSH2 0x386D JUMP JUMPDEST JUMPDEST PUSH1 0x0 PUSH2 0x3D91 DUP6 DUP3 DUP7 ADD PUSH2 0x3AC3 JUMP JUMPDEST SWAP3 POP POP PUSH1 0x20 PUSH2 0x3DA2 DUP6 DUP3 DUP7 ADD PUSH2 0x3D57 JUMP JUMPDEST SWAP2 POP POP SWAP3 POP SWAP3 SWAP1 POP JUMP JUMPDEST PUSH1 0x0 PUSH8 0xFFFFFFFFFFFFFFFF DUP3 GT ISZERO PUSH2 0x3DC7 JUMPI PUSH2 0x3DC6 PUSH2 0x3B9F JUMP JUMPDEST JUMPDEST PUSH2 0x3DD0 DUP3 PUSH2 0x3981 JUMP JUMPDEST SWAP1 POP PUSH1 0x20 DUP2 ADD SWAP1 POP SWAP2 SWAP1 POP JUMP JUMPDEST PUSH1 0x0 PUSH2 0x3DF0 PUSH2 0x3DEB DUP5 PUSH2 0x3DAC JUMP JUMPDEST PUSH2 0x3BFF JUMP JUMPDEST SWAP1 POP DUP3 DUP2 MSTORE PUSH1 0x20 DUP2 ADD DUP5 DUP5 DUP5 ADD GT ISZERO PUSH2 0x3E0C JUMPI PUSH2 0x3E0B PUSH2 0x3B9A JUMP JUMPDEST JUMPDEST PUSH2 0x3E17 DUP5 DUP3 DUP6 PUSH2 0x3C4B JUMP JUMPDEST POP SWAP4 SWAP3 POP POP POP JUMP JUMPDEST PUSH1 0x0 DUP3 PUSH1 0x1F DUP4 ADD SLT PUSH2 0x3E34 JUMPI PUSH2 0x3E33 PUSH2 0x3B95 JUMP JUMPDEST JUMPDEST DUP2 CALLDATALOAD PUSH2 0x3E44 DUP5 DUP3 PUSH1 0x20 DUP7 ADD PUSH2 0x3DDD JUMP JUMPDEST SWAP2 POP POP SWAP3 SWAP2 POP POP JUMP JUMPDEST PUSH1 0x0 DUP1 PUSH1 0x0 DUP1 PUSH1 0x80 DUP6 DUP8 SUB SLT ISZERO PUSH2 0x3E67 JUMPI PUSH2 0x3E66 PUSH2 0x386D JUMP JUMPDEST JUMPDEST PUSH1 0x0 PUSH2 0x3E75 DUP8 DUP3 DUP9 ADD PUSH2 0x3AC3 JUMP JUMPDEST SWAP5 POP POP PUSH1 0x20 PUSH2 0x3E86 DUP8 DUP3 DUP9 ADD PUSH2 0x3AC3 JUMP JUMPDEST SWAP4 POP POP PUSH1 0x40 PUSH2 0x3E97 DUP8 DUP3 DUP9 ADD PUSH2 0x3A0E JUMP JUMPDEST SWAP3 POP POP PUSH1 0x60 DUP6 ADD CALLDATALOAD PUSH8 0xFFFFFFFFFFFFFFFF DUP2 GT ISZERO PUSH2 0x3EB8 JUMPI PUSH2 0x3EB7 PUSH2 0x3872 JUMP JUMPDEST JUMPDEST PUSH2 0x3EC4 DUP8 DUP3 DUP9 ADD PUSH2 0x3E1F JUMP JUMPDEST SWAP2 POP POP SWAP3 SWAP6 SWAP2 SWAP5 POP SWAP3 POP JUMP JUMPDEST PUSH1 0x0 DUP1 PUSH1 0x0 DUP1 PUSH1 0x0 PUSH1 0xA0 DUP7 DUP9 SUB SLT ISZERO PUSH2 0x3EEC JUMPI PUSH2 0x3EEB PUSH2 0x386D JUMP JUMPDEST JUMPDEST PUSH1 0x0 PUSH2 0x3EFA DUP9 DUP3 DUP10 ADD PUSH2 0x3A0E JUMP JUMPDEST SWAP6 POP POP PUSH1 0x20 PUSH2 0x3F0B DUP9 DUP3 DUP10 ADD PUSH2 0x3A0E JUMP JUMPDEST SWAP5 POP POP PUSH1 0x40 PUSH2 0x3F1C DUP9 DUP3 DUP10 ADD PUSH2 0x3A0E JUMP JUMPDEST SWAP4 POP POP PUSH1 0x60 PUSH2 0x3F2D DUP9 DUP3 DUP10 ADD PUSH2 0x3A0E JUMP JUMPDEST SWAP3 POP POP PUSH1 0x80 PUSH2 0x3F3E DUP9 DUP3 DUP10 ADD PUSH2 0x3A0E JUMP JUMPDEST SWAP2 POP POP SWAP3 SWAP6 POP SWAP3 SWAP6 SWAP1 SWAP4 POP JUMP JUMPDEST PUSH1 0x0 DUP1 PUSH1 0x40 DUP4 DUP6 SUB SLT ISZERO PUSH2 0x3F62 JUMPI PUSH2 0x3F61 PUSH2 0x386D JUMP JUMPDEST JUMPDEST PUSH1 0x0 PUSH2 0x3F70 DUP6 DUP3 DUP7 ADD PUSH2 0x3AC3 JUMP JUMPDEST SWAP3 POP POP PUSH1 0x20 PUSH2 0x3F81 DUP6 DUP3 DUP7 ADD PUSH2 0x3AC3 JUMP JUMPDEST SWAP2 POP POP SWAP3 POP SWAP3 SWAP1 POP JUMP JUMPDEST PUSH32 0x4E487B7100000000000000000000000000000000000000000000000000000000 PUSH1 0x0 MSTORE PUSH1 0x22 PUSH1 0x4 MSTORE PUSH1 0x24 PUSH1 0x0 REVERT JUMPDEST PUSH1 0x0 PUSH1 0x2 DUP3 DIV SWAP1 POP PUSH1 0x1 DUP3 AND DUP1 PUSH2 0x3FD2 JUMPI PUSH1 0x7F DUP3 AND SWAP2 POP JUMPDEST PUSH1 0x20 DUP3 LT DUP2 EQ ISZERO PUSH2 0x3FE6 JUMPI PUSH2 0x3FE5 PUSH2 0x3F8B JUMP JUMPDEST JUMPDEST POP SWAP2 SWAP1 POP JUMP JUMPDEST PUSH32 0x4552433732313A20617070726F76616C20746F2063757272656E74206F776E65 PUSH1 0x0 DUP3 ADD MSTORE PUSH32 0x7200000000000000000000000000000000000000000000000000000000000000 PUSH1 0x20 DUP3 ADD MSTORE POP JUMP JUMPDEST PUSH1 0x0 PUSH2 0x4048 PUSH1 0x21 DUP4 PUSH2 0x393D JUMP JUMPDEST SWAP2 POP PUSH2 0x4053 DUP3 PUSH2 0x3FEC JUMP JUMPDEST PUSH1 0x40 DUP3 ADD SWAP1 POP SWAP2 SWAP1 POP JUMP JUMPDEST PUSH1 0x0 PUSH1 0x20 DUP3 ADD SWAP1 POP DUP2 DUP2 SUB PUSH1 0x0 DUP4 ADD MSTORE PUSH2 0x4077 DUP2 PUSH2 0x403B JUMP JUMPDEST SWAP1 POP SWAP2 SWAP1 POP JUMP JUMPDEST PUSH32 0x4552433732313A20617070726F76652063616C6C6572206973206E6F7420746F PUSH1 0x0 DUP3 ADD MSTORE PUSH32 0x6B656E206F776E6572206E6F7220617070726F76656420666F7220616C6C0000 PUSH1 0x20 DUP3 ADD MSTORE POP JUMP JUMPDEST PUSH1 0x0 PUSH2 0x40DA PUSH1 0x3E DUP4 PUSH2 0x393D JUMP JUMPDEST SWAP2 POP PUSH2 0x40E5 DUP3 PUSH2 0x407E JUMP JUMPDEST PUSH1 0x40 DUP3 ADD SWAP1 POP SWAP2 SWAP1 POP JUMP JUMPDEST PUSH1 0x0 PUSH1 0x20 DUP3 ADD SWAP1 POP DUP2 DUP2 SUB PUSH1 0x0 DUP4 ADD MSTORE PUSH2 0x4109 DUP2 PUSH2 0x40CD JUMP JUMPDEST SWAP1 POP SWAP2 SWAP1 POP JUMP JUMPDEST PUSH1 0x0 DUP2 SWAP1 POP SWAP2 SWAP1 POP JUMP JUMPDEST PUSH2 0x412B PUSH2 0x4126 DUP3 PUSH2 0x39ED JUMP JUMPDEST PUSH2 0x4110 JUMP JUMPDEST DUP3 MSTORE POP POP JUMP JUMPDEST PUSH1 0x0 DUP2 PUSH1 0x60 SHL SWAP1 POP SWAP2 SWAP1 POP JUMP JUMPDEST PUSH1 0x0 PUSH2 0x4149 DUP3 PUSH2 0x4131 JUMP JUMPDEST SWAP1 POP SWAP2 SWAP1 POP JUMP JUMPDEST PUSH1 0x0 PUSH2 0x415B DUP3 PUSH2 0x413E JUMP JUMPDEST SWAP1 POP SWAP2 SWAP1 POP JUMP JUMPDEST PUSH2 0x4173 PUSH2 0x416E DUP3 PUSH2 0x3A70 JUMP JUMPDEST PUSH2 0x4150 JUMP JUMPDEST DUP3 MSTORE POP POP JUMP JUMPDEST PUSH1 0x0 PUSH2 0x4185 DUP3 DUP7 PUSH2 0x411A JUMP JUMPDEST PUSH1 0x20 DUP3 ADD SWAP2 POP PUSH2 0x4195 DUP3 DUP6 PUSH2 0x4162 JUMP JUMPDEST PUSH1 0x14 DUP3 ADD SWAP2 POP PUSH2 0x41A5 DUP3 DUP5 PUSH2 0x411A JUMP JUMPDEST PUSH1 0x20 DUP3 ADD SWAP2 POP DUP2 SWAP1 POP SWAP5 SWAP4 POP POP POP POP JUMP JUMPDEST PUSH32 0x4E487B7100000000000000000000000000000000000000000000000000000000 PUSH1 0x0 MSTORE PUSH1 0x12 PUSH1 0x4 MSTORE PUSH1 0x24 PUSH1 0x0 REVERT JUMPDEST PUSH1 0x0 PUSH2 0x41F0 DUP3 PUSH2 0x39ED JUMP JUMPDEST SWAP2 POP PUSH2 0x41FB DUP4 PUSH2 0x39ED JUMP JUMPDEST SWAP3 POP DUP3 PUSH2 0x420B JUMPI PUSH2 0x420A PUSH2 0x41B6 JUMP JUMPDEST JUMPDEST DUP3 DUP3 MOD SWAP1 POP SWAP3 SWAP2 POP POP JUMP JUMPDEST PUSH32 0x4E487B7100000000000000000000000000000000000000000000000000000000 PUSH1 0x0 MSTORE PUSH1 0x11 PUSH1 0x4 MSTORE PUSH1 0x24 PUSH1 0x0 REVERT JUMPDEST PUSH1 0x0 PUSH2 0x4250 DUP3 PUSH2 0x39ED JUMP JUMPDEST SWAP2 POP PUSH32 0xFFFFFFFFFFFFFFFFFFFFFFFFFFFFFFFFFFFFFFFFFFFFFFFFFFFFFFFFFFFFFFFF DUP3 EQ ISZERO PUSH2 0x4283 JUMPI PUSH2 0x4282 PUSH2 0x4216 JUMP JUMPDEST JUMPDEST PUSH1 0x1 DUP3 ADD SWAP1 POP SWAP2 SWAP1 POP JUMP JUMPDEST PUSH1 0x0 PUSH2 0x4299 DUP3 PUSH2 0x39ED JUMP JUMPDEST SWAP2 POP PUSH2 0x42A4 DUP4 PUSH2 0x39ED JUMP JUMPDEST SWAP3 POP DUP3 DUP3 LT ISZERO PUSH2 0x42B7 JUMPI PUSH2 0x42B6 PUSH2 0x4216 JUMP JUMPDEST JUMPDEST DUP3 DUP3 SUB SWAP1 POP SWAP3 SWAP2 POP POP JUMP JUMPDEST PUSH1 0x0 PUSH2 0x42CD DUP3 PUSH2 0x39ED JUMP JUMPDEST SWAP2 POP PUSH2 0x42D8 DUP4 PUSH2 0x39ED JUMP JUMPDEST SWAP3 POP DUP2 PUSH32 0xFFFFFFFFFFFFFFFFFFFFFFFFFFFFFFFFFFFFFFFFFFFFFFFFFFFFFFFFFFFFFFFF DIV DUP4 GT DUP3 ISZERO ISZERO AND ISZERO PUSH2 0x4311 JUMPI PUSH2 0x4310 PUSH2 0x4216 JUMP JUMPDEST JUMPDEST DUP3 DUP3 MUL SWAP1 POP SWAP3 SWAP2 POP POP JUMP JUMPDEST PUSH1 0x0 PUSH2 0x4327 DUP3 PUSH2 0x39ED JUMP JUMPDEST SWAP2 POP PUSH2 0x4332 DUP4 PUSH2 0x39ED JUMP JUMPDEST SWAP3 POP DUP3 PUSH32 0xFFFFFFFFFFFFFFFFFFFFFFFFFFFFFFFFFFFFFFFFFFFFFFFFFFFFFFFFFFFFFFFF SUB DUP3 GT ISZERO PUSH2 0x4367 JUMPI PUSH2 0x4366 PUSH2 0x4216 JUMP JUMPDEST JUMPDEST DUP3 DUP3 ADD SWAP1 POP SWAP3 SWAP2 POP POP JUMP JUMPDEST PUSH1 0x0 PUSH2 0x437D DUP3 PUSH2 0x39ED JUMP JUMPDEST SWAP2 POP PUSH1 0x0 DUP3 EQ ISZERO PUSH2 0x4391 JUMPI PUSH2 0x4390 PUSH2 0x4216 JUMP JUMPDEST JUMPDEST PUSH1 0x1 DUP3 SUB SWAP1 POP SWAP2 SWAP1 POP JUMP JUMPDEST PUSH32 0x4552433732313A2063616C6C6572206973206E6F7420746F6B656E206F776E65 PUSH1 0x0 DUP3 ADD MSTORE PUSH32 0x72206E6F7220617070726F766564000000000000000000000000000000000000 PUSH1 0x20 DUP3 ADD MSTORE POP JUMP JUMPDEST PUSH1 0x0 PUSH2 0x43F8 PUSH1 0x2E DUP4 PUSH2 0x393D JUMP JUMPDEST SWAP2 POP PUSH2 0x4403 DUP3 PUSH2 0x439C JUMP JUMPDEST PUSH1 0x40 DUP3 ADD SWAP1 POP SWAP2 SWAP1 POP JUMP JUMPDEST PUSH1 0x0 PUSH1 0x20 DUP3 ADD SWAP1 POP DUP2 DUP2 SUB PUSH1 0x0 DUP4 ADD MSTORE PUSH2 0x4427 DUP2 PUSH2 0x43EB JUMP JUMPDEST SWAP1 POP SWAP2 SWAP1 POP JUMP JUMPDEST PUSH32 0x4F6E6C7920746865206F776E6572206F66204E46542063616E207472616E7366 PUSH1 0x0 DUP3 ADD MSTORE PUSH32 0x6572206F722062756E7420697400000000000000000000000000000000000000 PUSH1 0x20 DUP3 ADD MSTORE POP JUMP JUMPDEST PUSH1 0x0 PUSH2 0x448A PUSH1 0x2D DUP4 PUSH2 0x393D JUMP JUMPDEST SWAP2 POP PUSH2 0x4495 DUP3 PUSH2 0x442E JUMP JUMPDEST PUSH1 0x40 DUP3 ADD SWAP1 POP SWAP2 SWAP1 POP JUMP JUMPDEST PUSH1 0x0 PUSH1 0x20 DUP3 ADD SWAP1 POP DUP2 DUP2 SUB PUSH1 0x0 DUP4 ADD MSTORE PUSH2 0x44B9 DUP2 PUSH2 0x447D JUMP JUMPDEST SWAP1 POP SWAP2 SWAP1 POP JUMP JUMPDEST PUSH32 0x4E487B7100000000000000000000000000000000000000000000000000000000 PUSH1 0x0 MSTORE PUSH1 0x32 PUSH1 0x4 MSTORE PUSH1 0x24 PUSH1 0x0 REVERT JUMPDEST PUSH32 0x4E487B7100000000000000000000000000000000000000000000000000000000 PUSH1 0x0 MSTORE PUSH1 0x31 PUSH1 0x4 MSTORE PUSH1 0x24 PUSH1 0x0 REVERT JUMPDEST PUSH1 0x0 DUP2 SWAP1 POP SWAP3 SWAP2 POP POP JUMP JUMPDEST POP JUMP JUMPDEST PUSH1 0x0 PUSH2 0x4539 PUSH1 0x0 DUP4 PUSH2 0x451E JUMP JUMPDEST SWAP2 POP PUSH2 0x4544 DUP3 PUSH2 0x4529 JUMP JUMPDEST PUSH1 0x0 DUP3 ADD SWAP1 POP SWAP2 SWAP1 POP JUMP JUMPDEST PUSH1 0x0 PUSH2 0x455A DUP3 PUSH2 0x452C JUMP JUMPDEST SWAP2 POP DUP2 SWAP1 POP SWAP2 SWAP1 POP JUMP JUMPDEST PUSH32 0x5769746864726177206661696C00000000000000000000000000000000000000 PUSH1 0x0 DUP3 ADD MSTORE POP JUMP JUMPDEST PUSH1 0x0 PUSH2 0x459A PUSH1 0xD DUP4 PUSH2 0x393D JUMP JUMPDEST SWAP2 POP PUSH2 0x45A5 DUP3 PUSH2 0x4564 JUMP JUMPDEST PUSH1 0x20 DUP3 ADD SWAP1 POP SWAP2 SWAP1 POP JUMP JUMPDEST PUSH1 0x0 PUSH1 0x20 DUP3 ADD SWAP1 POP DUP2 DUP2 SUB PUSH1 0x0 DUP4 ADD MSTORE PUSH2 0x45C9 DUP2 PUSH2 0x458D JUMP JUMPDEST SWAP1 POP SWAP2 SWAP1 POP JUMP JUMPDEST PUSH32 0x4552433732313A20696E76616C696420746F6B656E2049440000000000000000 PUSH1 0x0 DUP3 ADD MSTORE POP JUMP JUMPDEST PUSH1 0x0 PUSH2 0x4606 PUSH1 0x18 DUP4 PUSH2 0x393D JUMP JUMPDEST SWAP2 POP PUSH2 0x4611 DUP3 PUSH2 0x45D0 JUMP JUMPDEST PUSH1 0x20 DUP3 ADD SWAP1 POP SWAP2 SWAP1 POP JUMP JUMPDEST PUSH1 0x0 PUSH1 0x20 DUP3 ADD SWAP1 POP DUP2 DUP2 SUB PUSH1 0x0 DUP4 ADD MSTORE PUSH2 0x4635 DUP2 PUSH2 0x45F9 JUMP JUMPDEST SWAP1 POP SWAP2 SWAP1 POP JUMP JUMPDEST PUSH32 0x4552433732313A2061646472657373207A65726F206973206E6F742061207661 PUSH1 0x0 DUP3 ADD MSTORE PUSH32 0x6C6964206F776E65720000000000000000000000000000000000000000000000 PUSH1 0x20 DUP3 ADD MSTORE POP JUMP JUMPDEST PUSH1 0x0 PUSH2 0x4698 PUSH1 0x29 DUP4 PUSH2 0x393D JUMP JUMPDEST SWAP2 POP PUSH2 0x46A3 DUP3 PUSH2 0x463C JUMP JUMPDEST PUSH1 0x40 DUP3 ADD SWAP1 POP SWAP2 SWAP1 POP JUMP JUMPDEST PUSH1 0x0 PUSH1 0x20 DUP3 ADD SWAP1 POP DUP2 DUP2 SUB PUSH1 0x0 DUP4 ADD MSTORE PUSH2 0x46C7 DUP2 PUSH2 0x468B JUMP JUMPDEST SWAP1 POP SWAP2 SWAP1 POP JUMP JUMPDEST PUSH1 0x0 DUP2 SWAP1 POP SWAP3 SWAP2 POP POP JUMP JUMPDEST PUSH1 0x0 PUSH2 0x46E4 DUP3 PUSH2 0x3932 JUMP JUMPDEST PUSH2 0x46EE DUP2 DUP6 PUSH2 0x46CE JUMP JUMPDEST SWAP4 POP PUSH2 0x46FE DUP2 DUP6 PUSH1 0x20 DUP7 ADD PUSH2 0x394E JUMP JUMPDEST DUP1 DUP5 ADD SWAP2 POP POP SWAP3 SWAP2 POP POP JUMP JUMPDEST PUSH1 0x0 PUSH2 0x4716 DUP3 DUP6 PUSH2 0x46D9 JUMP JUMPDEST SWAP2 POP PUSH2 0x4722 DUP3 DUP5 PUSH2 0x46D9 JUMP JUMPDEST SWAP2 POP DUP2 SWAP1 POP SWAP4 SWAP3 POP POP POP JUMP JUMPDEST PUSH32 0x557067726164652076616C65206D757374206265206D6F7265207468616E2030 PUSH1 0x0 DUP3 ADD MSTORE PUSH32 0x20616E64206C657373207468616E206D61782076616C75650000000000000000 PUSH1 0x20 DUP3 ADD MSTORE POP JUMP JUMPDEST PUSH1 0x0 PUSH2 0x478A PUSH1 0x38 DUP4 PUSH2 0x393D JUMP JUMPDEST SWAP2 POP PUSH2 0x4795 DUP3 PUSH2 0x472E JUMP JUMPDEST PUSH1 0x40 DUP3 ADD SWAP1 POP SWAP2 SWAP1 POP JUMP JUMPDEST PUSH1 0x0 PUSH1 0x20 DUP3 ADD SWAP1 POP DUP2 DUP2 SUB PUSH1 0x0 DUP4 ADD MSTORE PUSH2 0x47B9 DUP2 PUSH2 0x477D JUMP JUMPDEST SWAP1 POP SWAP2 SWAP1 POP JUMP JUMPDEST PUSH32 0x4F776E61626C653A206E6577206F776E657220697320746865207A65726F2061 PUSH1 0x0 DUP3 ADD MSTORE PUSH32 0x6464726573730000000000000000000000000000000000000000000000000000 PUSH1 0x20 DUP3 ADD MSTORE POP JUMP JUMPDEST PUSH1 0x0 PUSH2 0x481C PUSH1 0x26 DUP4 PUSH2 0x393D JUMP JUMPDEST SWAP2 POP PUSH2 0x4827 DUP3 PUSH2 0x47C0 JUMP JUMPDEST PUSH1 0x40 DUP3 ADD SWAP1 POP SWAP2 SWAP1 POP JUMP JUMPDEST PUSH1 0x0 PUSH1 0x20 DUP3 ADD SWAP1 POP DUP2 DUP2 SUB PUSH1 0x0 DUP4 ADD MSTORE PUSH2 0x484B DUP2 PUSH2 0x480F JUMP JUMPDEST SWAP1 POP SWAP2 SWAP1 POP JUMP JUMPDEST PUSH1 0x0 DUP2 SWAP1 POP DUP2 PUSH1 0x0 MSTORE PUSH1 0x20 PUSH1 0x0 KECCAK256 SWAP1 POP SWAP2 SWAP1 POP JUMP JUMPDEST PUSH1 0x0 DUP2 SLOAD PUSH2 0x4874 DUP2 PUSH2 0x3FBA JUMP JUMPDEST PUSH2 0x487E DUP2 DUP7 PUSH2 0x46CE JUMP JUMPDEST SWAP5 POP PUSH1 0x1 DUP3 AND PUSH1 0x0 DUP2 EQ PUSH2 0x4899 JUMPI PUSH1 0x1 DUP2 EQ PUSH2 0x48AA JUMPI PUSH2 0x48DD JUMP JUMPDEST PUSH1 0xFF NOT DUP4 AND DUP7 MSTORE DUP2 DUP7 ADD SWAP4 POP PUSH2 0x48DD JUMP JUMPDEST PUSH2 0x48B3 DUP6 PUSH2 0x4852 JUMP JUMPDEST PUSH1 0x0 JUMPDEST DUP4 DUP2 LT ISZERO PUSH2 0x48D5 JUMPI DUP2 SLOAD DUP2 DUP10 ADD MSTORE PUSH1 0x1 DUP3 ADD SWAP2 POP PUSH1 0x20 DUP2 ADD SWAP1 POP PUSH2 0x48B6 JUMP JUMPDEST DUP4 DUP9 ADD SWAP6 POP POP POP JUMPDEST POP POP POP SWAP3 SWAP2 POP POP JUMP JUMPDEST PUSH1 0x0 PUSH2 0x48F2 DUP3 DUP6 PUSH2 0x4867 JUMP JUMPDEST SWAP2 POP PUSH2 0x48FE DUP3 DUP5 PUSH2 0x46D9 JUMP JUMPDEST SWAP2 POP DUP2 SWAP1 POP SWAP4 SWAP3 POP POP POP JUMP JUMPDEST PUSH32 0x4552433732313A207472616E736665722066726F6D20696E636F727265637420 PUSH1 0x0 DUP3 ADD MSTORE PUSH32 0x6F776E6572000000000000000000000000000000000000000000000000000000 PUSH1 0x20 DUP3 ADD MSTORE POP JUMP JUMPDEST PUSH1 0x0 PUSH2 0x4966 PUSH1 0x25 DUP4 PUSH2 0x393D JUMP JUMPDEST SWAP2 POP PUSH2 0x4971 DUP3 PUSH2 0x490A JUMP JUMPDEST PUSH1 0x40 DUP3 ADD SWAP1 POP SWAP2 SWAP1 POP JUMP JUMPDEST PUSH1 0x0 PUSH1 0x20 DUP3 ADD SWAP1 POP DUP2 DUP2 SUB PUSH1 0x0 DUP4 ADD MSTORE PUSH2 0x4995 DUP2 PUSH2 0x4959 JUMP JUMPDEST SWAP1 POP SWAP2 SWAP1 POP JUMP JUMPDEST PUSH32 0x4552433732313A207472616E7366657220746F20746865207A65726F20616464 PUSH1 0x0 DUP3 ADD MSTORE PUSH32 0x7265737300000000000000000000000000000000000000000000000000000000 PUSH1 0x20 DUP3 ADD MSTORE POP JUMP JUMPDEST PUSH1 0x0 PUSH2 0x49F8 PUSH1 0x24 DUP4 PUSH2 0x393D JUMP JUMPDEST SWAP2 POP PUSH2 0x4A03 DUP3 PUSH2 0x499C JUMP JUMPDEST PUSH1 0x40 DUP3 ADD SWAP1 POP SWAP2 SWAP1 POP JUMP JUMPDEST PUSH1 0x0 PUSH1 0x20 DUP3 ADD SWAP1 POP DUP2 DUP2 SUB PUSH1 0x0 DUP4 ADD MSTORE PUSH2 0x4A27 DUP2 PUSH2 0x49EB JUMP JUMPDEST SWAP1 POP SWAP2 SWAP1 POP JUMP JUMPDEST PUSH32 0x4F776E61626C653A2063616C6C6572206973206E6F7420746865206F776E6572 PUSH1 0x0 DUP3 ADD MSTORE POP JUMP JUMPDEST PUSH1 0x0 PUSH2 0x4A64 PUSH1 0x20 DUP4 PUSH2 0x393D JUMP JUMPDEST SWAP2 POP PUSH2 0x4A6F DUP3 PUSH2 0x4A2E JUMP JUMPDEST PUSH1 0x20 DUP3 ADD SWAP1 POP SWAP2 SWAP1 POP JUMP JUMPDEST PUSH1 0x0 PUSH1 0x20 DUP3 ADD SWAP1 POP DUP2 DUP2 SUB PUSH1 0x0 DUP4 ADD MSTORE PUSH2 0x4A93 DUP2 PUSH2 0x4A57 JUMP JUMPDEST SWAP1 POP SWAP2 SWAP1 POP JUMP JUMPDEST PUSH32 0x4552433732313A20617070726F766520746F2063616C6C657200000000000000 PUSH1 0x0 DUP3 ADD MSTORE POP JUMP JUMPDEST PUSH1 0x0 PUSH2 0x4AD0 PUSH1 0x19 DUP4 PUSH2 0x393D JUMP JUMPDEST SWAP2 POP PUSH2 0x4ADB DUP3 PUSH2 0x4A9A JUMP JUMPDEST PUSH1 0x20 DUP3 ADD SWAP1 POP SWAP2 SWAP1 POP JUMP JUMPDEST PUSH1 0x0 PUSH1 0x20 DUP3 ADD SWAP1 POP DUP2 DUP2 SUB PUSH1 0x0 DUP4 ADD MSTORE PUSH2 0x4AFF DUP2 PUSH2 0x4AC3 JUMP JUMPDEST SWAP1 POP SWAP2 SWAP1 POP JUMP JUMPDEST PUSH32 0x4552433732313A207472616E7366657220746F206E6F6E204552433732315265 PUSH1 0x0 DUP3 ADD MSTORE PUSH32 0x63656976657220696D706C656D656E7465720000000000000000000000000000 PUSH1 0x20 DUP3 ADD MSTORE POP JUMP JUMPDEST PUSH1 0x0 PUSH2 0x4B62 PUSH1 0x32 DUP4 PUSH2 0x393D JUMP JUMPDEST SWAP2 POP PUSH2 0x4B6D DUP3 PUSH2 0x4B06 JUMP JUMPDEST PUSH1 0x40 DUP3 ADD SWAP1 POP SWAP2 SWAP1 POP JUMP JUMPDEST PUSH1 0x0 PUSH1 0x20 DUP3 ADD SWAP1 POP DUP2 DUP2 SUB PUSH1 0x0 DUP4 ADD MSTORE PUSH2 0x4B91 DUP2 PUSH2 0x4B55 JUMP JUMPDEST SWAP1 POP SWAP2 SWAP1 POP JUMP JUMPDEST PUSH1 0x0 PUSH2 0x4BA3 DUP3 PUSH2 0x39ED JUMP JUMPDEST SWAP2 POP PUSH2 0x4BAE DUP4 PUSH2 0x39ED JUMP JUMPDEST SWAP3 POP DUP3 PUSH2 0x4BBE JUMPI PUSH2 0x4BBD PUSH2 0x41B6 JUMP JUMPDEST JUMPDEST DUP3 DUP3 DIV SWAP1 POP SWAP3 SWAP2 POP POP JUMP JUMPDEST PUSH32 0x7B00000000000000000000000000000000000000000000000000000000000000 PUSH1 0x0 DUP3 ADD MSTORE POP JUMP JUMPDEST PUSH1 0x0 PUSH2 0x4BFF PUSH1 0x1 DUP4 PUSH2 0x46CE JUMP JUMPDEST SWAP2 POP PUSH2 0x4C0A DUP3 PUSH2 0x4BC9 JUMP JUMPDEST PUSH1 0x1 DUP3 ADD SWAP1 POP SWAP2 SWAP1 POP JUMP JUMPDEST PUSH32 0x7D00000000000000000000000000000000000000000000000000000000000000 PUSH1 0x0 DUP3 ADD MSTORE POP JUMP JUMPDEST PUSH1 0x0 PUSH2 0x4C4B PUSH1 0x1 DUP4 PUSH2 0x46CE JUMP JUMPDEST SWAP2 POP PUSH2 0x4C56 DUP3 PUSH2 0x4C15 JUMP JUMPDEST PUSH1 0x1 DUP3 ADD SWAP1 POP SWAP2 SWAP1 POP JUMP JUMPDEST PUSH1 0x0 PUSH2 0x4C6C DUP3 PUSH2 0x4BF2 JUMP JUMPDEST SWAP2 POP PUSH2 0x4C78 DUP3 DUP6 PUSH2 0x46D9 JUMP JUMPDEST SWAP2 POP PUSH2 0x4C84 DUP3 DUP5 PUSH2 0x46D9 JUMP JUMPDEST SWAP2 POP PUSH2 0x4C8F DUP3 PUSH2 0x4C3E JUMP JUMPDEST SWAP2 POP DUP2 SWAP1 POP SWAP4 SWAP3 POP POP POP JUMP JUMPDEST PUSH32 0x646174613A6170706C69636174696F6E2F6A736F6E3B6261736536342C000000 PUSH1 0x0 DUP3 ADD MSTORE POP JUMP JUMPDEST PUSH1 0x0 PUSH2 0x4CD1 PUSH1 0x1D DUP4 PUSH2 0x46CE JUMP JUMPDEST SWAP2 POP PUSH2 0x4CDC DUP3 PUSH2 0x4C9B JUMP JUMPDEST PUSH1 0x1D DUP3 ADD SWAP1 POP SWAP2 SWAP1 POP JUMP JUMPDEST PUSH1 0x0 PUSH2 0x4CF2 DUP3 PUSH2 0x4CC4 JUMP JUMPDEST SWAP2 POP PUSH2 0x4CFE DUP3 DUP5 PUSH2 0x46D9 JUMP JUMPDEST SWAP2 POP DUP2 SWAP1 POP SWAP3 SWAP2 POP POP JUMP JUMPDEST PUSH32 0x45524337323155524953746F726167653A2055524920736574206F66206E6F6E PUSH1 0x0 DUP3 ADD MSTORE PUSH32 0x6578697374656E7420746F6B656E000000000000000000000000000000000000 PUSH1 0x20 DUP3 ADD MSTORE POP JUMP JUMPDEST PUSH1 0x0 PUSH2 0x4D65 PUSH1 0x2E DUP4 PUSH2 0x393D JUMP JUMPDEST SWAP2 POP PUSH2 0x4D70 DUP3 PUSH2 0x4D09 JUMP JUMPDEST PUSH1 0x40 DUP3 ADD SWAP1 POP SWAP2 SWAP1 POP JUMP JUMPDEST PUSH1 0x0 PUSH1 0x20 DUP3 ADD SWAP1 POP DUP2 DUP2 SUB PUSH1 0x0 DUP4 ADD MSTORE PUSH2 0x4D94 DUP2 PUSH2 0x4D58 JUMP JUMPDEST SWAP1 POP SWAP2 SWAP1 POP JUMP JUMPDEST PUSH1 0x0 DUP2 MLOAD SWAP1 POP SWAP2 SWAP1 POP JUMP JUMPDEST PUSH1 0x0 DUP3 DUP3 MSTORE PUSH1 0x20 DUP3 ADD SWAP1 POP SWAP3 SWAP2 POP POP JUMP JUMPDEST PUSH1 0x0 PUSH2 0x4DC2 DUP3 PUSH2 0x4D9B JUMP JUMPDEST PUSH2 0x4DCC DUP2 DUP6 PUSH2 0x4DA6 JUMP JUMPDEST SWAP4 POP PUSH2 0x4DDC DUP2 DUP6 PUSH1 0x20 DUP7 ADD PUSH2 0x394E JUMP JUMPDEST PUSH2 0x4DE5 DUP2 PUSH2 0x3981 JUMP JUMPDEST DUP5 ADD SWAP2 POP POP SWAP3 SWAP2 POP POP JUMP JUMPDEST PUSH1 0x0 PUSH1 0x80 DUP3 ADD SWAP1 POP PUSH2 0x4E05 PUSH1 0x0 DUP4 ADD DUP8 PUSH2 0x3A82 JUMP JUMPDEST PUSH2 0x4E12 PUSH1 0x20 DUP4 ADD DUP7 PUSH2 0x3A82 JUMP JUMPDEST PUSH2 0x4E1F PUSH1 0x40 DUP4 ADD DUP6 PUSH2 0x3B18 JUMP JUMPDEST DUP2 DUP2 SUB PUSH1 0x60 DUP4 ADD MSTORE PUSH2 0x4E31 DUP2 DUP5 PUSH2 0x4DB7 JUMP JUMPDEST SWAP1 POP SWAP6 SWAP5 POP POP POP POP POP JUMP JUMPDEST PUSH1 0x0 DUP2 MLOAD SWAP1 POP PUSH2 0x4E4B DUP2 PUSH2 0x38A3 JUMP JUMPDEST SWAP3 SWAP2 POP POP JUMP JUMPDEST PUSH1 0x0 PUSH1 0x20 DUP3 DUP5 SUB SLT ISZERO PUSH2 0x4E67 JUMPI PUSH2 0x4E66 PUSH2 0x386D JUMP JUMPDEST JUMPDEST PUSH1 0x0 PUSH2 0x4E75 DUP5 DUP3 DUP6 ADD PUSH2 0x4E3C JUMP JUMPDEST SWAP2 POP POP SWAP3 SWAP2 POP POP JUMP JUMPDEST PUSH32 0x4552433732313A206D696E7420746F20746865207A65726F2061646472657373 PUSH1 0x0 DUP3 ADD MSTORE POP JUMP JUMPDEST PUSH1 0x0 PUSH2 0x4EB4 PUSH1 0x20 DUP4 PUSH2 0x393D JUMP JUMPDEST SWAP2 POP PUSH2 0x4EBF DUP3 PUSH2 0x4E7E JUMP JUMPDEST PUSH1 0x20 DUP3 ADD SWAP1 POP SWAP2 SWAP1 POP JUMP JUMPDEST PUSH1 0x0 PUSH1 0x20 DUP3 ADD SWAP1 POP DUP2 DUP2 SUB PUSH1 0x0 DUP4 ADD MSTORE PUSH2 0x4EE3 DUP2 PUSH2 0x4EA7 JUMP JUMPDEST SWAP1 POP SWAP2 SWAP1 POP JUMP JUMPDEST PUSH32 0x4552433732313A20746F6B656E20616C7265616479206D696E74656400000000 PUSH1 0x0 DUP3 ADD MSTORE POP JUMP JUMPDEST PUSH1 0x0 PUSH2 0x4F20 PUSH1 0x1C DUP4 PUSH2 0x393D JUMP JUMPDEST SWAP2 POP PUSH2 0x4F2B DUP3 PUSH2 0x4EEA JUMP JUMPDEST PUSH1 0x20 DUP3 ADD SWAP1 POP SWAP2 SWAP1 POP JUMP JUMPDEST PUSH1 0x0 PUSH1 0x20 DUP3 ADD SWAP1 POP DUP2 DUP2 SUB PUSH1 0x0 DUP4 ADD MSTORE PUSH2 0x4F4F DUP2 PUSH2 0x4F13 JUMP JUMPDEST SWAP1 POP SWAP2 SWAP1 POP JUMP JUMPDEST PUSH32 0x226E616D65223A22000000000000000000000000000000000000000000000000 PUSH1 0x0 DUP3 ADD MSTORE POP JUMP JUMPDEST PUSH1 0x0 PUSH2 0x4F8C PUSH1 0x8 DUP4 PUSH2 0x46CE JUMP JUMPDEST SWAP2 POP PUSH2 0x4F97 DUP3 PUSH2 0x4F56 JUMP JUMPDEST PUSH1 0x8 DUP3 ADD SWAP1 POP SWAP2 SWAP1 POP JUMP JUMPDEST PUSH32 0x222C000000000000000000000000000000000000000000000000000000000000 PUSH1 0x0 DUP3 ADD MSTORE POP JUMP JUMPDEST PUSH1 0x0 PUSH2 0x4FD8 PUSH1 0x2 DUP4 PUSH2 0x46CE JUMP JUMPDEST SWAP2 POP PUSH2 0x4FE3 DUP3 PUSH2 0x4FA2 JUMP JUMPDEST PUSH1 0x2 DUP3 ADD SWAP1 POP SWAP2 SWAP1 POP JUMP JUMPDEST PUSH32 0x22746F6B656E4964223A22000000000000000000000000000000000000000000 PUSH1 0x0 DUP3 ADD MSTORE POP JUMP JUMPDEST PUSH1 0x0 PUSH2 0x5024 PUSH1 0xB DUP4 PUSH2 0x46CE JUMP JUMPDEST SWAP2 POP PUSH2 0x502F DUP3 PUSH2 0x4FEE JUMP JUMPDEST PUSH1 0xB DUP3 ADD SWAP1 POP SWAP2 SWAP1 POP JUMP JUMPDEST PUSH32 0x226465736372697074696F6E223A220000000000000000000000000000000000 PUSH1 0x0 DUP3 ADD MSTORE POP JUMP JUMPDEST PUSH1 0x0 PUSH2 0x5070 PUSH1 0xF DUP4 PUSH2 0x46CE JUMP JUMPDEST SWAP2 POP PUSH2 0x507B DUP3 PUSH2 0x503A JUMP JUMPDEST PUSH1 0xF DUP3 ADD SWAP1 POP SWAP2 SWAP1 POP JUMP JUMPDEST PUSH32 0x22696D616765223A220000000000000000000000000000000000000000000000 PUSH1 0x0 DUP3 ADD MSTORE POP JUMP JUMPDEST PUSH1 0x0 PUSH2 0x50BC PUSH1 0x9 DUP4 PUSH2 0x46CE JUMP JUMPDEST SWAP2 POP PUSH2 0x50C7 DUP3 PUSH2 0x5086 JUMP JUMPDEST PUSH1 0x9 DUP3 ADD SWAP1 POP SWAP2 SWAP1 POP JUMP JUMPDEST PUSH32 0x226F776E6572223A220000000000000000000000000000000000000000000000 PUSH1 0x0 DUP3 ADD MSTORE POP JUMP JUMPDEST PUSH1 0x0 PUSH2 0x5108 PUSH1 0x9 DUP4 PUSH2 0x46CE JUMP JUMPDEST SWAP2 POP PUSH2 0x5113 DUP3 PUSH2 0x50D2 JUMP JUMPDEST PUSH1 0x9 DUP3 ADD SWAP1 POP SWAP2 SWAP1 POP JUMP JUMPDEST PUSH1 0x0 PUSH2 0x5129 DUP3 PUSH2 0x4F7F JUMP JUMPDEST SWAP2 POP PUSH2 0x5135 DUP3 DUP9 PUSH2 0x46D9 JUMP JUMPDEST SWAP2 POP PUSH2 0x5140 DUP3 PUSH2 0x4FCB JUMP JUMPDEST SWAP2 POP PUSH2 0x514B DUP3 PUSH2 0x5017 JUMP JUMPDEST SWAP2 POP PUSH2 0x5157 DUP3 DUP8 PUSH2 0x46D9 JUMP JUMPDEST SWAP2 POP PUSH2 0x5162 DUP3 PUSH2 0x4FCB JUMP JUMPDEST SWAP2 POP PUSH2 0x516D DUP3 PUSH2 0x5063 JUMP JUMPDEST SWAP2 POP PUSH2 0x5179 DUP3 DUP7 PUSH2 0x46D9 JUMP JUMPDEST SWAP2 POP PUSH2 0x5184 DUP3 PUSH2 0x4FCB JUMP JUMPDEST SWAP2 POP PUSH2 0x518F DUP3 PUSH2 0x50AF JUMP JUMPDEST SWAP2 POP PUSH2 0x519B DUP3 DUP6 PUSH2 0x46D9 JUMP JUMPDEST SWAP2 POP PUSH2 0x51A6 DUP3 PUSH2 0x4FCB JUMP JUMPDEST SWAP2 POP PUSH2 0x51B1 DUP3 PUSH2 0x50FB JUMP JUMPDEST SWAP2 POP PUSH2 0x51BD DUP3 DUP5 PUSH2 0x46D9 JUMP JUMPDEST SWAP2 POP PUSH2 0x51C8 DUP3 PUSH2 0x4FCB JUMP JUMPDEST SWAP2 POP DUP2 SWAP1 POP SWAP7 SWAP6 POP POP POP POP POP POP JUMP JUMPDEST PUSH32 0x7B226D696E7454797065223A2200000000000000000000000000000000000000 PUSH1 0x0 DUP3 ADD MSTORE POP JUMP JUMPDEST PUSH1 0x0 PUSH2 0x520D PUSH1 0xD DUP4 PUSH2 0x46CE JUMP JUMPDEST SWAP2 POP PUSH2 0x5218 DUP3 PUSH2 0x51D7 JUMP JUMPDEST PUSH1 0xD DUP3 ADD SWAP1 POP SWAP2 SWAP1 POP JUMP JUMPDEST PUSH32 0x2263617465676F7279223A000000000000000000000000000000000000000000 PUSH1 0x0 DUP3 ADD MSTORE POP JUMP JUMPDEST PUSH1 0x0 PUSH2 0x5259 PUSH1 0xB DUP4 PUSH2 0x46CE JUMP JUMPDEST SWAP2 POP PUSH2 0x5264 DUP3 PUSH2 0x5223 JUMP JUMPDEST PUSH1 0xB DUP3 ADD SWAP1 POP SWAP2 SWAP1 POP JUMP JUMPDEST PUSH32 0x2C00000000000000000000000000000000000000000000000000000000000000 PUSH1 0x0 DUP3 ADD MSTORE POP JUMP JUMPDEST PUSH1 0x0 PUSH2 0x52A5 PUSH1 0x1 DUP4 PUSH2 0x46CE JUMP JUMPDEST SWAP2 POP PUSH2 0x52B0 DUP3 PUSH2 0x526F JUMP JUMPDEST PUSH1 0x1 DUP3 ADD SWAP1 POP SWAP2 SWAP1 POP JUMP JUMPDEST PUSH32 0x2263757272656E74506F7765724C766C223A0000000000000000000000000000 PUSH1 0x0 DUP3 ADD MSTORE POP JUMP JUMPDEST PUSH1 0x0 PUSH2 0x52F1 PUSH1 0x12 DUP4 PUSH2 0x46CE JUMP JUMPDEST SWAP2 POP PUSH2 0x52FC DUP3 PUSH2 0x52BB JUMP JUMPDEST PUSH1 0x12 DUP3 ADD SWAP1 POP SWAP2 SWAP1 POP JUMP JUMPDEST PUSH32 0x2263757272656E7441636375726163794C766C223A0000000000000000000000 PUSH1 0x0 DUP3 ADD MSTORE POP JUMP JUMPDEST PUSH1 0x0 PUSH2 0x533D PUSH1 0x15 DUP4 PUSH2 0x46CE JUMP JUMPDEST SWAP2 POP PUSH2 0x5348 DUP3 PUSH2 0x5307 JUMP JUMPDEST PUSH1 0x15 DUP3 ADD SWAP1 POP SWAP2 SWAP1 POP JUMP JUMPDEST PUSH32 0x2263757272656E745370696E4C766C223A000000000000000000000000000000 PUSH1 0x0 DUP3 ADD MSTORE POP JUMP JUMPDEST PUSH1 0x0 PUSH2 0x5389 PUSH1 0x11 DUP4 PUSH2 0x46CE JUMP JUMPDEST SWAP2 POP PUSH2 0x5394 DUP3 PUSH2 0x5353 JUMP JUMPDEST PUSH1 0x11 DUP3 ADD SWAP1 POP SWAP2 SWAP1 POP JUMP JUMPDEST PUSH32 0x2263757272656E7454696D654C766C223A000000000000000000000000000000 PUSH1 0x0 DUP3 ADD MSTORE POP JUMP JUMPDEST PUSH1 0x0 PUSH2 0x53D5 PUSH1 0x11 DUP4 PUSH2 0x46CE JUMP JUMPDEST SWAP2 POP PUSH2 0x53E0 DUP3 PUSH2 0x539F JUMP JUMPDEST PUSH1 0x11 DUP3 ADD SWAP1 POP SWAP2 SWAP1 POP JUMP JUMPDEST PUSH32 0x226D6178506F7765724C766C223A000000000000000000000000000000000000 PUSH1 0x0 DUP3 ADD MSTORE POP JUMP JUMPDEST PUSH1 0x0 PUSH2 0x5421 PUSH1 0xE DUP4 PUSH2 0x46CE JUMP JUMPDEST SWAP2 POP PUSH2 0x542C DUP3 PUSH2 0x53EB JUMP JUMPDEST PUSH1 0xE DUP3 ADD SWAP1 POP SWAP2 SWAP1 POP JUMP JUMPDEST PUSH32 0x226D617841636375726163794C766C223A000000000000000000000000000000 PUSH1 0x0 DUP3 ADD MSTORE POP JUMP JUMPDEST PUSH1 0x0 PUSH2 0x546D PUSH1 0x11 DUP4 PUSH2 0x46CE JUMP JUMPDEST SWAP2 POP PUSH2 0x5478 DUP3 PUSH2 0x5437 JUMP JUMPDEST PUSH1 0x11 DUP3 ADD SWAP1 POP SWAP2 SWAP1 POP JUMP JUMPDEST PUSH32 0x226D61785370696E4C766C223A00000000000000000000000000000000000000 PUSH1 0x0 DUP3 ADD MSTORE POP JUMP JUMPDEST PUSH1 0x0 PUSH2 0x54B9 PUSH1 0xD DUP4 PUSH2 0x46CE JUMP JUMPDEST SWAP2 POP PUSH2 0x54C4 DUP3 PUSH2 0x5483 JUMP JUMPDEST PUSH1 0xD DUP3 ADD SWAP1 POP SWAP2 SWAP1 POP JUMP JUMPDEST PUSH32 0x226D617854696D654C766C223A00000000000000000000000000000000000000 PUSH1 0x0 DUP3 ADD MSTORE POP JUMP JUMPDEST PUSH1 0x0 PUSH2 0x5505 PUSH1 0xD DUP4 PUSH2 0x46CE JUMP JUMPDEST SWAP2 POP PUSH2 0x5510 DUP3 PUSH2 0x54CF JUMP JUMPDEST PUSH1 0xD DUP3 ADD SWAP1 POP SWAP2 SWAP1 POP JUMP JUMPDEST PUSH1 0x0 PUSH2 0x5527 DUP3 DUP15 PUSH2 0x46D9 JUMP JUMPDEST SWAP2 POP PUSH2 0x5532 DUP3 PUSH2 0x5200 JUMP JUMPDEST SWAP2 POP PUSH2 0x553E DUP3 DUP14 PUSH2 0x46D9 JUMP JUMPDEST SWAP2 POP PUSH2 0x5549 DUP3 PUSH2 0x4FCB JUMP JUMPDEST SWAP2 POP PUSH2 0x5554 DUP3 PUSH2 0x524C JUMP JUMPDEST SWAP2 POP PUSH2 0x5560 DUP3 DUP13 PUSH2 0x46D9 JUMP JUMPDEST SWAP2 POP PUSH2 0x556B DUP3 PUSH2 0x5298 JUMP JUMPDEST SWAP2 POP PUSH2 0x5576 DUP3 PUSH2 0x52E4 JUMP JUMPDEST SWAP2 POP PUSH2 0x5582 DUP3 DUP12 PUSH2 0x46D9 JUMP JUMPDEST SWAP2 POP PUSH2 0x558D DUP3 PUSH2 0x5298 JUMP JUMPDEST SWAP2 POP PUSH2 0x5598 DUP3 PUSH2 0x5330 JUMP JUMPDEST SWAP2 POP PUSH2 0x55A4 DUP3 DUP11 PUSH2 0x46D9 JUMP JUMPDEST SWAP2 POP PUSH2 0x55AF DUP3 PUSH2 0x5298 JUMP JUMPDEST SWAP2 POP PUSH2 0x55BA DUP3 PUSH2 0x537C JUMP JUMPDEST SWAP2 POP PUSH2 0x55C6 DUP3 DUP10 PUSH2 0x46D9 JUMP JUMPDEST SWAP2 POP PUSH2 0x55D1 DUP3 PUSH2 0x5298 JUMP JUMPDEST SWAP2 POP PUSH2 0x55DC DUP3 PUSH2 0x53C8 JUMP JUMPDEST SWAP2 POP PUSH2 0x55E8 DUP3 DUP9 PUSH2 0x46D9 JUMP JUMPDEST SWAP2 POP PUSH2 0x55F3 DUP3 PUSH2 0x5298 JUMP JUMPDEST SWAP2 POP PUSH2 0x55FE DUP3 PUSH2 0x5414 JUMP JUMPDEST SWAP2 POP PUSH2 0x560A DUP3 DUP8 PUSH2 0x46D9 JUMP JUMPDEST SWAP2 POP PUSH2 0x5615 DUP3 PUSH2 0x5298 JUMP JUMPDEST SWAP2 POP PUSH2 0x5620 DUP3 PUSH2 0x5460 JUMP JUMPDEST SWAP2 POP PUSH2 0x562C DUP3 DUP7 PUSH2 0x46D9 JUMP JUMPDEST SWAP2 POP PUSH2 0x5637 DUP3 PUSH2 0x5298 JUMP JUMPDEST SWAP2 POP PUSH2 0x5642 DUP3 PUSH2 0x54AC JUMP JUMPDEST SWAP2 POP PUSH2 0x564E DUP3 DUP6 PUSH2 0x46D9 JUMP JUMPDEST SWAP2 POP PUSH2 0x5659 DUP3 PUSH2 0x5298 JUMP JUMPDEST SWAP2 POP PUSH2 0x5664 DUP3 PUSH2 0x54F8 JUMP JUMPDEST SWAP2 POP PUSH2 0x5670 DUP3 DUP5 PUSH2 0x46D9 JUMP JUMPDEST SWAP2 POP PUSH2 0x567B DUP3 PUSH2 0x4C3E JUMP JUMPDEST SWAP2 POP DUP2 SWAP1 POP SWAP13 SWAP12 POP POP POP POP POP POP POP POP POP POP POP POP JUMP JUMPDEST PUSH32 0x2261747472696275746573223A00000000000000000000000000000000000000 PUSH1 0x0 DUP3 ADD MSTORE POP JUMP JUMPDEST PUSH1 0x0 PUSH2 0x56C6 PUSH1 0xD DUP4 PUSH2 0x46CE JUMP JUMPDEST SWAP2 POP PUSH2 0x56D1 DUP3 PUSH2 0x5690 JUMP JUMPDEST PUSH1 0xD DUP3 ADD SWAP1 POP SWAP2 SWAP1 POP JUMP JUMPDEST PUSH1 0x0 PUSH2 0x56E7 DUP3 PUSH2 0x56B9 JUMP JUMPDEST SWAP2 POP PUSH2 0x56F3 DUP3 DUP5 PUSH2 0x46D9 JUMP JUMPDEST SWAP2 POP DUP2 SWAP1 POP SWAP3 SWAP2 POP POP JUMP JUMPDEST PUSH32 0x537472696E67733A20686578206C656E67746820696E73756666696369656E74 PUSH1 0x0 DUP3 ADD MSTORE POP JUMP JUMPDEST PUSH1 0x0 PUSH2 0x5734 PUSH1 0x20 DUP4 PUSH2 0x393D JUMP JUMPDEST SWAP2 POP PUSH2 0x573F DUP3 PUSH2 0x56FE JUMP JUMPDEST PUSH1 0x20 DUP3 ADD SWAP1 POP SWAP2 SWAP1 POP JUMP JUMPDEST PUSH1 0x0 PUSH1 0x20 DUP3 ADD SWAP1 POP DUP2 DUP2 SUB PUSH1 0x0 DUP4 ADD MSTORE PUSH2 0x5763 DUP2 PUSH2 0x5727 JUMP JUMPDEST SWAP1 POP SWAP2 SWAP1 POP JUMP INVALID COINBASE TIMESTAMP NUMBER DIFFICULTY GASLIMIT CHAINID SELFBALANCE BASEFEE 0x49 0x4A 0x4B 0x4C 0x4D 0x4E 0x4F POP MLOAD MSTORE MSTORE8 SLOAD SSTORE JUMP JUMPI PC MSIZE GAS PUSH2 0x6263 PUSH5 0x6566676869 PUSH11 0x6B6C6D6E6F707172737475 PUSH23 0x7778797A303132333435363738392B2FA2646970667358 0x22 SLT KECCAK256 CODESIZE 0xA5 RETURNDATACOPY EXTCODESIZE DUP15 0xDE 0xB6 0x4D 0xC8 MOD PUSH21 0x742B82CA94B1446F14AA7A2D36C43DA9C150E4A19E PUSH5 0x736F6C6343 STOP ADDMOD MULMOD STOP CALLER "},"methodIdentifiers":{"approve(address,uint256)":"095ea7b3","balanceOf(address)":"70a08231","burn(uint256)":"42966c68","category(uint256)":"253eca1f","currentAccuracyLvl(uint256)":"22ea00f9","currentPowerLvl(uint256)":"52a3302b","currentSpinLvl(uint256)":"b49f7e2d","currentTimeLvl(uint256)":"2603f287","getApproved(uint256)":"081812fc","imageBaseURI()":"77645839","isApprovedForAll(address,address)":"e985e9c5","maxAccuracyLvl(uint256)":"4fffbe0e","maxPowerLvl(uint256)":"8cc04784","maxSpinLvl(uint256)":"c9083cd9","maxTimeLvl(uint256)":"81a4b116","mint()":"1249c58b","name()":"06fdde03","owner()":"8da5cb5b","ownerOf(uint256)":"6352211e","ownerWithdraw()":"4311de8f","renounceOwnership()":"715018a6","safeTransferFrom(address,address,uint256)":"42842e0e","safeTransferFrom(address,address,uint256,bytes)":"b88d4fde","setApprovalForAll(address,bool)":"a22cb465","setImageBaseUri(string)":"39b92bbb","supportsInterface(bytes4)":"01ffc9a7","symbol()":"95d89b41","tokenCount()":"9f181b5e","tokenIdType(uint256)":"6f2829ba","tokenURI(uint256)":"c87b56dd","transferFrom(address,address,uint256)":"23b872dd","transferOwnership(address)":"f2fde38b","upgrade(uint256,uint256,uint256,uint256,uint256)":"d55cae27","userTokenIds(address,uint256)":"cc17e15d"}}}}}