{
  "_format": "hh-sol-artifact-1",
  "contractName": "BallMain",
  "sourceName": "contracts/BallMain.sol",
  "abi": [
    {
      "inputs": [],
      "stateMutability": "nonpayable",
      "type": "constructor"
    },
    {
      "anonymous": false,
      "inputs": [
        {
          "indexed": true,
          "internalType": "address",
          "name": "owner",
          "type": "address"
        },
        {
          "indexed": true,
          "internalType": "address",
          "name": "approved",
          "type": "address"
        },
        {
          "indexed": true,
          "internalType": "uint256",
          "name": "tokenId",
          "type": "uint256"
        }
      ],
      "name": "Approval",
      "type": "event"
    },
    {
      "anonymous": false,
      "inputs": [
        {
          "indexed": true,
          "internalType": "address",
          "name": "owner",
          "type": "address"
        },
        {
          "indexed": true,
          "internalType": "address",
          "name": "operator",
          "type": "address"
        },
        {
          "indexed": false,
          "internalType": "bool",
          "name": "approved",
          "type": "bool"
        }
      ],
      "name": "ApprovalForAll",
      "type": "event"
    },
    {
      "anonymous": false,
      "inputs": [
        {
          "indexed": true,
          "internalType": "address",
          "name": "previousOwner",
          "type": "address"
        },
        {
          "indexed": true,
          "internalType": "address",
          "name": "newOwner",
          "type": "address"
        }
      ],
      "name": "OwnershipTransferred",
      "type": "event"
    },
    {
      "anonymous": false,
      "inputs": [
        {
          "indexed": true,
          "internalType": "address",
          "name": "from",
          "type": "address"
        },
        {
          "indexed": true,
          "internalType": "address",
          "name": "to",
          "type": "address"
        },
        {
          "indexed": true,
          "internalType": "uint256",
          "name": "tokenId",
          "type": "uint256"
        }
      ],
      "name": "Transfer",
      "type": "event"
    },
    {
      "inputs": [
        {
          "internalType": "address",
          "name": "to",
          "type": "address"
        },
        {
          "internalType": "uint256",
          "name": "tokenId",
          "type": "uint256"
        }
      ],
      "name": "approve",
      "outputs": [],
      "stateMutability": "nonpayable",
      "type": "function"
    },
    {
      "inputs": [
        {
          "internalType": "address",
          "name": "owner",
          "type": "address"
        }
      ],
      "name": "balanceOf",
      "outputs": [
        {
          "internalType": "uint256",
          "name": "",
          "type": "uint256"
        }
      ],
      "stateMutability": "view",
      "type": "function"
    },
    {
      "inputs": [
        {
          "internalType": "uint256",
          "name": "_tokenId",
          "type": "uint256"
        }
      ],
      "name": "burn",
      "outputs": [],
      "stateMutability": "nonpayable",
      "type": "function"
    },
    {
      "inputs": [
        {
          "internalType": "uint256",
          "name": "",
          "type": "uint256"
        }
      ],
      "name": "category",
      "outputs": [
        {
          "internalType": "uint256",
          "name": "",
          "type": "uint256"
        }
      ],
      "stateMutability": "view",
      "type": "function"
    },
    {
      "inputs": [
        {
          "internalType": "uint256",
          "name": "",
          "type": "uint256"
        }
      ],
      "name": "currentAccuracyLvl",
      "outputs": [
        {
          "internalType": "uint256",
          "name": "",
          "type": "uint256"
        }
      ],
      "stateMutability": "view",
      "type": "function"
    },
    {
      "inputs": [
        {
          "internalType": "uint256",
          "name": "",
          "type": "uint256"
        }
      ],
      "name": "currentPowerLvl",
      "outputs": [
        {
          "internalType": "uint256",
          "name": "",
          "type": "uint256"
        }
      ],
      "stateMutability": "view",
      "type": "function"
    },
    {
      "inputs": [
        {
          "internalType": "uint256",
          "name": "",
          "type": "uint256"
        }
      ],
      "name": "currentSpinLvl",
      "outputs": [
        {
          "internalType": "uint256",
          "name": "",
          "type": "uint256"
        }
      ],
      "stateMutability": "view",
      "type": "function"
    },
    {
      "inputs": [
        {
          "internalType": "uint256",
          "name": "",
          "type": "uint256"
        }
      ],
      "name": "currentTimeLvl",
      "outputs": [
        {
          "internalType": "uint256",
          "name": "",
          "type": "uint256"
        }
      ],
      "stateMutability": "view",
      "type": "function"
    },
    {
      "inputs": [],
      "name": "currentTypeCount",
      "outputs": [
        {
          "internalType": "uint256",
          "name": "",
          "type": "uint256"
        }
      ],
      "stateMutability": "view",
      "type": "function"
    },
    {
      "inputs": [],
      "name": "currentUri",
      "outputs": [
        {
          "internalType": "string",
          "name": "",
          "type": "string"
        }
      ],
      "stateMutability": "view",
      "type": "function"
    },
    {
      "inputs": [
        {
          "internalType": "uint256",
          "name": "tokenId",
          "type": "uint256"
        }
      ],
      "name": "getApproved",
      "outputs": [
        {
          "internalType": "address",
          "name": "",
          "type": "address"
        }
      ],
      "stateMutability": "view",
      "type": "function"
    },
    {
      "inputs": [],
      "name": "imageBaseURI",
      "outputs": [
        {
          "internalType": "string",
          "name": "",
          "type": "string"
        }
      ],
      "stateMutability": "view",
      "type": "function"
    },
    {
      "inputs": [
        {
          "internalType": "address",
          "name": "owner",
          "type": "address"
        },
        {
          "internalType": "address",
          "name": "operator",
          "type": "address"
        }
      ],
      "name": "isApprovedForAll",
      "outputs": [
        {
          "internalType": "bool",
          "name": "",
          "type": "bool"
        }
      ],
      "stateMutability": "view",
      "type": "function"
    },
    {
      "inputs": [
        {
          "internalType": "uint256",
          "name": "",
          "type": "uint256"
        }
      ],
      "name": "maxAccuracyLvl",
      "outputs": [
        {
          "internalType": "uint256",
          "name": "",
          "type": "uint256"
        }
      ],
      "stateMutability": "view",
      "type": "function"
    },
    {
      "inputs": [
        {
          "internalType": "uint256",
          "name": "",
          "type": "uint256"
        }
      ],
      "name": "maxPowerLvl",
      "outputs": [
        {
          "internalType": "uint256",
          "name": "",
          "type": "uint256"
        }
      ],
      "stateMutability": "view",
      "type": "function"
    },
    {
      "inputs": [
        {
          "internalType": "uint256",
          "name": "",
          "type": "uint256"
        }
      ],
      "name": "maxSpinLvl",
      "outputs": [
        {
          "internalType": "uint256",
          "name": "",
          "type": "uint256"
        }
      ],
      "stateMutability": "view",
      "type": "function"
    },
    {
      "inputs": [
        {
          "internalType": "uint256",
          "name": "",
          "type": "uint256"
        }
      ],
      "name": "maxTimeLvl",
      "outputs": [
        {
          "internalType": "uint256",
          "name": "",
          "type": "uint256"
        }
      ],
      "stateMutability": "view",
      "type": "function"
    },
    {
      "inputs": [],
      "name": "mint",
      "outputs": [],
      "stateMutability": "payable",
      "type": "function"
    },
    {
      "inputs": [],
      "name": "name",
      "outputs": [
        {
          "internalType": "string",
          "name": "",
          "type": "string"
        }
      ],
      "stateMutability": "view",
      "type": "function"
    },
    {
      "inputs": [],
      "name": "owner",
      "outputs": [
        {
          "internalType": "address",
          "name": "",
          "type": "address"
        }
      ],
      "stateMutability": "view",
      "type": "function"
    },
    {
      "inputs": [
        {
          "internalType": "uint256",
          "name": "tokenId",
          "type": "uint256"
        }
      ],
      "name": "ownerOf",
      "outputs": [
        {
          "internalType": "address",
          "name": "",
          "type": "address"
        }
      ],
      "stateMutability": "view",
      "type": "function"
    },
    {
      "inputs": [],
      "name": "ownerWithdraw",
      "outputs": [],
      "stateMutability": "nonpayable",
      "type": "function"
    },
    {
      "inputs": [],
      "name": "randNumber",
      "outputs": [
        {
          "internalType": "uint256",
          "name": "",
          "type": "uint256"
        }
      ],
      "stateMutability": "view",
      "type": "function"
    },
    {
      "inputs": [],
      "name": "renounceOwnership",
      "outputs": [],
      "stateMutability": "nonpayable",
      "type": "function"
    },
    {
      "inputs": [
        {
          "internalType": "address",
          "name": "from",
          "type": "address"
        },
        {
          "internalType": "address",
          "name": "to",
          "type": "address"
        },
        {
          "internalType": "uint256",
          "name": "tokenId",
          "type": "uint256"
        }
      ],
      "name": "safeTransferFrom",
      "outputs": [],
      "stateMutability": "nonpayable",
      "type": "function"
    },
    {
      "inputs": [
        {
          "internalType": "address",
          "name": "from",
          "type": "address"
        },
        {
          "internalType": "address",
          "name": "to",
          "type": "address"
        },
        {
          "internalType": "uint256",
          "name": "tokenId",
          "type": "uint256"
        },
        {
          "internalType": "bytes",
          "name": "data",
          "type": "bytes"
        }
      ],
      "name": "safeTransferFrom",
      "outputs": [],
      "stateMutability": "nonpayable",
      "type": "function"
    },
    {
      "inputs": [
        {
          "internalType": "address",
          "name": "operator",
          "type": "address"
        },
        {
          "internalType": "bool",
          "name": "approved",
          "type": "bool"
        }
      ],
      "name": "setApprovalForAll",
      "outputs": [],
      "stateMutability": "nonpayable",
      "type": "function"
    },
    {
      "inputs": [
        {
          "internalType": "string",
          "name": "_imageBaseURI",
          "type": "string"
        }
      ],
      "name": "setImageBaseUri",
      "outputs": [],
      "stateMutability": "nonpayable",
      "type": "function"
    },
    {
      "inputs": [
        {
          "internalType": "bytes4",
          "name": "interfaceId",
          "type": "bytes4"
        }
      ],
      "name": "supportsInterface",
      "outputs": [
        {
          "internalType": "bool",
          "name": "",
          "type": "bool"
        }
      ],
      "stateMutability": "view",
      "type": "function"
    },
    {
      "inputs": [],
      "name": "symbol",
      "outputs": [
        {
          "internalType": "string",
          "name": "",
          "type": "string"
        }
      ],
      "stateMutability": "view",
      "type": "function"
    },
    {
      "inputs": [],
      "name": "tokenCount",
      "outputs": [
        {
          "internalType": "uint256",
          "name": "",
          "type": "uint256"
        }
      ],
      "stateMutability": "view",
      "type": "function"
    },
    {
      "inputs": [
        {
          "internalType": "uint256",
          "name": "",
          "type": "uint256"
        }
      ],
      "name": "tokenIdType",
      "outputs": [
        {
          "internalType": "uint256",
          "name": "",
          "type": "uint256"
        }
      ],
      "stateMutability": "view",
      "type": "function"
    },
    {
      "inputs": [
        {
          "internalType": "uint256",
          "name": "tokenId",
          "type": "uint256"
        }
      ],
      "name": "tokenURI",
      "outputs": [
        {
          "internalType": "string",
          "name": "",
          "type": "string"
        }
      ],
      "stateMutability": "view",
      "type": "function"
    },
    {
      "inputs": [
        {
          "internalType": "address",
          "name": "from",
          "type": "address"
        },
        {
          "internalType": "address",
          "name": "to",
          "type": "address"
        },
        {
          "internalType": "uint256",
          "name": "tokenId",
          "type": "uint256"
        }
      ],
      "name": "transferFrom",
      "outputs": [],
      "stateMutability": "nonpayable",
      "type": "function"
    },
    {
      "inputs": [
        {
          "internalType": "address",
          "name": "newOwner",
          "type": "address"
        }
      ],
      "name": "transferOwnership",
      "outputs": [],
      "stateMutability": "nonpayable",
      "type": "function"
    },
    {
      "inputs": [],
      "name": "typeCount",
      "outputs": [
        {
          "internalType": "uint256",
          "name": "",
          "type": "uint256"
        }
      ],
      "stateMutability": "view",
      "type": "function"
    },
    {
      "inputs": [
        {
          "internalType": "uint256",
          "name": "_tokenId",
          "type": "uint256"
        },
        {
          "internalType": "uint256",
          "name": "_upgradePowerLvl",
          "type": "uint256"
        },
        {
          "internalType": "uint256",
          "name": "_upgradeAccuracyLvl",
          "type": "uint256"
        },
        {
          "internalType": "uint256",
          "name": "_upgradeSpinLvl",
          "type": "uint256"
        },
        {
          "internalType": "uint256",
          "name": "_upgradeTimeLvl",
          "type": "uint256"
        }
      ],
      "name": "upgrade",
      "outputs": [],
      "stateMutability": "payable",
      "type": "function"
    },
    {
      "inputs": [
        {
          "internalType": "address",
          "name": "",
          "type": "address"
        },
        {
          "internalType": "uint256",
          "name": "",
          "type": "uint256"
        }
      ],
      "name": "userTokenIds",
      "outputs": [
        {
          "internalType": "uint256",
          "name": "",
          "type": "uint256"
        }
      ],
      "stateMutability": "view",
      "type": "function"
    }
  ],
  "bytecode": "0x60806040523480156200001157600080fd5b506040518060400160405280600881526020017f42616c6c4d61696e0000000000000000000000000000000000000000000000008152506040518060400160405280600381526020017f42414d000000000000000000000000000000000000000000000000000000000081525081600090805190602001906200009692919062000289565b508060019080519060200190620000af92919062000289565b505050620000d2620000c6620001bb60201b60201c565b620001c360201b60201c565b60005b601e811015620001245760c8600b6000838152602001908152602001600020819055600a60008381526020019081526020016000208190555080806200011b9062000372565b915050620000d5565b5060005b603c81101562000193576064600b6000601e84620001479190620003c0565b8152602001908152602001600020819055600a6000601e846200016b9190620003c0565b81526020019081526020016000208190555080806200018a9062000372565b91505062000128565b506000602481905550612ee0602581905550605a602781905550605a60268190555062000482565b600033905090565b6000600760009054906101000a900473ffffffffffffffffffffffffffffffffffffffff16905081600760006101000a81548173ffffffffffffffffffffffffffffffffffffffff021916908373ffffffffffffffffffffffffffffffffffffffff1602179055508173ffffffffffffffffffffffffffffffffffffffff168173ffffffffffffffffffffffffffffffffffffffff167f8be0079c531659141344cd1fd0a4f28419497f9722a3daafe3b4186f6b6457e060405160405180910390a35050565b82805462000297906200044c565b90600052602060002090601f016020900481019282620002bb576000855562000307565b82601f10620002d657805160ff191683800117855562000307565b8280016001018555821562000307579182015b8281111562000306578251825591602001919060010190620002e9565b5b5090506200031691906200031a565b5090565b5b80821115620003355760008160009055506001016200031b565b5090565b7f4e487b7100000000000000000000000000000000000000000000000000000000600052601160045260246000fd5b6000819050919050565b60006200037f8262000368565b91507fffffffffffffffffffffffffffffffffffffffffffffffffffffffffffffffff821415620003b557620003b462000339565b5b600182019050919050565b6000620003cd8262000368565b9150620003da8362000368565b9250827fffffffffffffffffffffffffffffffffffffffffffffffffffffffffffffffff0382111562000412576200041162000339565b5b828201905092915050565b7f4e487b7100000000000000000000000000000000000000000000000000000000600052602260045260246000fd5b600060028204905060018216806200046557607f821691505b602082108114156200047c576200047b6200041d565b5b50919050565b615a6880620004926000396000f3fe6080604052600436106102255760003560e01c806370a0823111610123578063a22cb465116100ab578063cc17e15d1161006f578063cc17e15d1461086c578063d55cae27146108a9578063e4d2c94e146108c5578063e985e9c5146108f0578063f2fde38b1461092d57610225565b8063a22cb46514610763578063b49f7e2d1461078c578063b88d4fde146107c9578063c87b56dd146107f2578063c9083cd91461082f57610225565b806381a4b116116100f257806381a4b116146106685780638cc04784146106a55780638da5cb5b146106e257806395d89b411461070d5780639f181b5e1461073857610225565b806370a08231146105be578063715018a6146105fb578063776458391461061257806379d97a1c1461063d57610225565b80632603f287116101b15780634fffbe0e116101755780634fffbe0e1461049f57806352a3302b146104dc578063602d7fe6146105195780636352211e146105445780636f2829ba1461058157610225565b80632603f287146103d057806339b92bbb1461040d57806342842e0e1461043657806342966c681461045f5780634311de8f1461048857610225565b8063095ea7b3116101f8578063095ea7b3146102fa5780631249c58b1461032357806322ea00f91461032d57806323b872dd1461036a578063253eca1f1461039357610225565b806301ffc9a71461022a5780630653d1621461026757806306fdde0314610292578063081812fc146102bd575b600080fd5b34801561023657600080fd5b50610251600480360381019061024c9190613b57565b610956565b60405161025e9190613b9f565b60405180910390f35b34801561027357600080fd5b5061027c610a38565b6040516102899190613bd3565b60405180910390f35b34801561029e57600080fd5b506102a7610a3e565b6040516102b49190613c87565b60405180910390f35b3480156102c957600080fd5b506102e460048036038101906102df9190613cd5565b610ad0565b6040516102f19190613d43565b60405180910390f35b34801561030657600080fd5b50610321600480360381019061031c9190613d8a565b610b16565b005b61032b610c2e565b005b34801561033957600080fd5b50610354600480360381019061034f9190613cd5565b6110de565b6040516103619190613bd3565b60405180910390f35b34801561037657600080fd5b50610391600480360381019061038c9190613dca565b6110f6565b005b34801561039f57600080fd5b506103ba60048036038101906103b59190613cd5565b611156565b6040516103c79190613bd3565b60405180910390f35b3480156103dc57600080fd5b506103f760048036038101906103f29190613cd5565b61116e565b6040516104049190613bd3565b60405180910390f35b34801561041957600080fd5b50610434600480360381019061042f9190613f52565b611186565b005b34801561044257600080fd5b5061045d60048036038101906104589190613dca565b6111a8565b005b34801561046b57600080fd5b5061048660048036038101906104819190613cd5565b6111c8565b005b34801561049457600080fd5b5061049d6114ad565b005b3480156104ab57600080fd5b506104c660048036038101906104c19190613cd5565b61156a565b6040516104d39190613bd3565b60405180910390f35b3480156104e857600080fd5b5061050360048036038101906104fe9190613cd5565b611581565b6040516105109190613bd3565b60405180910390f35b34801561052557600080fd5b5061052e611599565b60405161053b9190613bd3565b60405180910390f35b34801561055057600080fd5b5061056b60048036038101906105669190613cd5565b61159f565b6040516105789190613d43565b60405180910390f35b34801561058d57600080fd5b506105a860048036038101906105a39190613cd5565b611651565b6040516105b59190613bd3565b60405180910390f35b3480156105ca57600080fd5b506105e560048036038101906105e09190613f9b565b611669565b6040516105f29190613bd3565b60405180910390f35b34801561060757600080fd5b50610610611721565b005b34801561061e57600080fd5b50610627611735565b6040516106349190613c87565b60405180910390f35b34801561064957600080fd5b506106526117c3565b60405161065f9190613bd3565b60405180910390f35b34801561067457600080fd5b5061068f600480360381019061068a9190613cd5565b6117c9565b60405161069c9190613bd3565b60405180910390f35b3480156106b157600080fd5b506106cc60048036038101906106c79190613cd5565b6117e1565b6040516106d99190613bd3565b60405180910390f35b3480156106ee57600080fd5b506106f76117f9565b6040516107049190613d43565b60405180910390f35b34801561071957600080fd5b50610722611823565b60405161072f9190613c87565b60405180910390f35b34801561074457600080fd5b5061074d6118b5565b60405161075a9190613bd3565b60405180910390f35b34801561076f57600080fd5b5061078a60048036038101906107859190613ff4565b6118bb565b005b34801561079857600080fd5b506107b360048036038101906107ae9190613cd5565b6118d1565b6040516107c09190613bd3565b60405180910390f35b3480156107d557600080fd5b506107f060048036038101906107eb91906140d5565b6118e9565b005b3480156107fe57600080fd5b5061081960048036038101906108149190613cd5565b61194b565b6040516108269190613c87565b60405180910390f35b34801561083b57600080fd5b5061085660048036038101906108519190613cd5565b611a5e565b6040516108639190613bd3565b60405180910390f35b34801561087857600080fd5b50610893600480360381019061088e9190613d8a565b611a76565b6040516108a09190613bd3565b60405180910390f35b6108c360048036038101906108be9190614158565b611aa7565b005b3480156108d157600080fd5b506108da611d4b565b6040516108e79190613c87565b60405180910390f35b3480156108fc57600080fd5b50610917600480360381019061091291906141d3565b611dd9565b6040516109249190613b9f565b60405180910390f35b34801561093957600080fd5b50610954600480360381019061094f9190613f9b565b611e6d565b005b60007f80ac58cd000000000000000000000000000000000000000000000000000000007bffffffffffffffffffffffffffffffffffffffffffffffffffffffff1916827bffffffffffffffffffffffffffffffffffffffffffffffffffffffff19161480610a2157507f5b5e139f000000000000000000000000000000000000000000000000000000007bffffffffffffffffffffffffffffffffffffffffffffffffffffffff1916827bffffffffffffffffffffffffffffffffffffffffffffffffffffffff1916145b80610a315750610a3082611ef1565b5b9050919050565b60275481565b606060008054610a4d90614242565b80601f0160208091040260200160405190810160405280929190818152602001828054610a7990614242565b8015610ac65780601f10610a9b57610100808354040283529160200191610ac6565b820191906000526020600020905b815481529060010190602001808311610aa957829003601f168201915b5050505050905090565b6000610adb82611f5b565b6004600083815260200190815260200160002060009054906101000a900473ffffffffffffffffffffffffffffffffffffffff169050919050565b6000610b218261159f565b90508073ffffffffffffffffffffffffffffffffffffffff168373ffffffffffffffffffffffffffffffffffffffff161415610b92576040517f08c379a0000000000000000000000000000000000000000000000000000000008152600401610b89906142e6565b60405180910390fd5b8073ffffffffffffffffffffffffffffffffffffffff16610bb1611fa6565b73ffffffffffffffffffffffffffffffffffffffff161480610be05750610bdf81610bda611fa6565b611dd9565b5b610c1f576040517f08c379a0000000000000000000000000000000000000000000000000000000008152600401610c1690614378565b60405180910390fd5b610c298383611fae565b505050565b600060255411610c3d57600080fd5b6001341015610c4b57600080fd5b6000806027544233602454604051602001610c6893929190614401565b6040516020818303038152906040528051906020012060001c610c8b919061446d565b905060246000815480929190610ca0906144cd565b91905055506000805b605a811015610d115760001515600d600083815260200190815260200160002060009054906101000a900460ff1615151415610cfe5782821415610cef57809150610d11565b8180610cfa906144cd565b9250505b8080610d09906144cd565b915050610ca9565b506000600b6000838152602001908152602001600020544233602454604051602001610d3f93929190614401565b6040516020818303038152906040528051906020012060001c610d62919061446d565b905080600f819055506000805b600a600085815260200190815260200160002054811015610eb15760001515600c6000868152602001908152602001600020600083815260200190815260200160002060009054906101000a900460ff1615151415610e9e5782821415610e8f578091506001600c6000868152602001908152602001600020600083815260200190815260200160002060006101000a81548160ff021916908315150217905550600b60008581526020019081526020016000206000815480929190610e3490614516565b91905055506000600b6000868152602001908152602001600020541415610e8a5760006027819055506001600d600084815260200190815260200160002060006101000a81548160ff0219169083151502179055505b610eb1565b8180610e9a906144cd565b9250505b8080610ea9906144cd565b915050610d6f565b50601e831015610ee6576001818460c8610ecb9190614540565b610ed5919061459a565b610edf919061459a565b9450610f26565b600181601e85610ef691906145f0565b6064610f029190614540565b611770610f0f919061459a565b610f19919061459a565b610f23919061459a565b94505b60256000815480929190610f3990614516565b919050555084600f81905550600183610f52919061459a565b6009600087815260200190815260200160002081905550600860003373ffffffffffffffffffffffffffffffffffffffff1673ffffffffffffffffffffffffffffffffffffffff168152602001908152602001600020600f5490806001815401808255809150506001900390600052602060002001600090919091909150556009600086815260200190815260200160002054601a6000878152602001908152602001600020819055506001601b6000878152602001908152602001600020819055506001601c6000878152602001908152602001600020819055506001601d6000878152602001908152602001600020819055506001601e6000878152602001908152602001600020819055506005601f6000878152602001908152602001600020819055506005602060008781526020019081526020016000208190555060056021600087815260200190815260200160002081905550600560226000878152602001908152602001600020819055506110ce3386612067565b6110d785612085565b5050505050565b601c6020528060005260406000206000915090505481565b611107611101611fa6565b8261241c565b611146576040517f08c379a000000000000000000000000000000000000000000000000000000000815260040161113d90614696565b60405180910390fd5b6111518383836124b1565b505050565b601a6020528060005260406000206000915090505481565b601e6020528060005260406000206000915090505481565b61118e612718565b80602390805190602001906111a4929190613a08565b5050565b6111c3838383604051806020016040528060008152506118e9565b505050565b6111d18161159f565b73ffffffffffffffffffffffffffffffffffffffff163373ffffffffffffffffffffffffffffffffffffffff161461123e576040517f08c379a000000000000000000000000000000000000000000000000000000000815260040161123590614728565b60405180910390fd5b60005b6008600061124e8461159f565b73ffffffffffffffffffffffffffffffffffffffff1673ffffffffffffffffffffffffffffffffffffffff168152602001908152602001600020805490508110156114a05781600860006112a18561159f565b73ffffffffffffffffffffffffffffffffffffffff1673ffffffffffffffffffffffffffffffffffffffff16815260200190815260200160002082815481106112ed576112ec614748565b5b9060005260206000200154141561148d576008600061130b8461159f565b73ffffffffffffffffffffffffffffffffffffffff1673ffffffffffffffffffffffffffffffffffffffff1681526020019081526020016000206001600860006113548661159f565b73ffffffffffffffffffffffffffffffffffffffff1673ffffffffffffffffffffffffffffffffffffffff1681526020019081526020016000208054905061139c91906145f0565b815481106113ad576113ac614748565b5b9060005260206000200154600860006113c58561159f565b73ffffffffffffffffffffffffffffffffffffffff1673ffffffffffffffffffffffffffffffffffffffff168152602001908152602001600020828154811061141157611410614748565b5b90600052602060002001819055506008600061142c8461159f565b73ffffffffffffffffffffffffffffffffffffffff1673ffffffffffffffffffffffffffffffffffffffff16815260200190815260200160002080548061147657611475614777565b5b600190038181906000526020600020016000905590555b8080611498906144cd565b915050611241565b506114aa81612796565b50565b6114b5612718565b600033905060008173ffffffffffffffffffffffffffffffffffffffff16476040516114e0906147d7565b60006040518083038185875af1925050503d806000811461151d576040519150601f19603f3d011682016040523d82523d6000602084013e611522565b606091505b5050905080611566576040517f08c379a000000000000000000000000000000000000000000000000000000000815260040161155d90614838565b60405180910390fd5b5050565b602080528060005260406000206000915090505481565b601b6020528060005260406000206000915090505481565b60265481565b6000806002600084815260200190815260200160002060009054906101000a900473ffffffffffffffffffffffffffffffffffffffff169050600073ffffffffffffffffffffffffffffffffffffffff168173ffffffffffffffffffffffffffffffffffffffff161415611648576040517f08c379a000000000000000000000000000000000000000000000000000000000815260040161163f906148a4565b60405180910390fd5b80915050919050565b60096020528060005260406000206000915090505481565b60008073ffffffffffffffffffffffffffffffffffffffff168273ffffffffffffffffffffffffffffffffffffffff1614156116da576040517f08c379a00000000000000000000000000000000000000000000000000000000081526004016116d190614936565b60405180910390fd5b600360008373ffffffffffffffffffffffffffffffffffffffff1673ffffffffffffffffffffffffffffffffffffffff168152602001908152602001600020549050919050565b611729612718565b61173360006127e9565b565b6023805461174290614242565b80601f016020809104026020016040519081016040528092919081815260200182805461176e90614242565b80156117bb5780601f10611790576101008083540402835291602001916117bb565b820191906000526020600020905b81548152906001019060200180831161179e57829003601f168201915b505050505081565b600f5481565b60226020528060005260406000206000915090505481565b601f6020528060005260406000206000915090505481565b6000600760009054906101000a900473ffffffffffffffffffffffffffffffffffffffff16905090565b60606001805461183290614242565b80601f016020809104026020016040519081016040528092919081815260200182805461185e90614242565b80156118ab5780601f10611880576101008083540402835291602001916118ab565b820191906000526020600020905b81548152906001019060200180831161188e57829003601f168201915b5050505050905090565b60255481565b6118cd6118c6611fa6565b83836128af565b5050565b601d6020528060005260406000206000915090505481565b6118fa6118f4611fa6565b8361241c565b611939576040517f08c379a000000000000000000000000000000000000000000000000000000000815260040161193090614696565b60405180910390fd5b61194584848484612a1c565b50505050565b606061195682611f5b565b600060066000848152602001908152602001600020805461197690614242565b80601f01602080910402602001604051908101604052809291908181526020018280546119a290614242565b80156119ef5780601f106119c4576101008083540402835291602001916119ef565b820191906000526020600020905b8154815290600101906020018083116119d257829003601f168201915b505050505090506000611a00612a78565b9050600081511415611a16578192505050611a59565b600082511115611a4b578082604051602001611a33929190614992565b60405160208183030381529060405292505050611a59565b611a5484612a8f565b925050505b919050565b60216020528060005260406000206000915090505481565b60086020528160005260406000208181548110611a9257600080fd5b90600052602060002001600091509150505481565b611ab08561159f565b73ffffffffffffffffffffffffffffffffffffffff163373ffffffffffffffffffffffffffffffffffffffff1614611ae757600080fd5b60008410158015611af9575060008310155b8015611b06575060008210155b8015611b13575060008110155b8015611b505750601f600086815260200190815260200160002054601b60008781526020019081526020016000205485611b4d919061459a565b11155b8015611b8d57506020600086815260200190815260200160002054601c60008781526020019081526020016000205484611b8a919061459a565b11155b8015611bca57506021600086815260200190815260200160002054601d60008781526020019081526020016000205483611bc7919061459a565b11155b8015611c0757506022600086815260200190815260200160002054601e60008781526020019081526020016000205482611c04919061459a565b11155b611c46576040517f08c379a0000000000000000000000000000000000000000000000000000000008152600401611c3d90614a28565b60405180910390fd5b67016345785d8a0000600582848688611c5f919061459a565b611c69919061459a565b611c73919061459a565b611c7d9190614540565b611c879190614540565b341015611c9357600080fd5b83601b60008781526020019081526020016000206000828254611cb6919061459a565b9250508190555082601c60008781526020019081526020016000206000828254611ce0919061459a565b9250508190555081601d60008781526020019081526020016000206000828254611d0a919061459a565b9250508190555080601e60008781526020019081526020016000206000828254611d34919061459a565b92505081905550611d4485612085565b5050505050565b600e8054611d5890614242565b80601f0160208091040260200160405190810160405280929190818152602001828054611d8490614242565b8015611dd15780601f10611da657610100808354040283529160200191611dd1565b820191906000526020600020905b815481529060010190602001808311611db457829003601f168201915b505050505081565b6000600560008473ffffffffffffffffffffffffffffffffffffffff1673ffffffffffffffffffffffffffffffffffffffff16815260200190815260200160002060008373ffffffffffffffffffffffffffffffffffffffff1673ffffffffffffffffffffffffffffffffffffffff16815260200190815260200160002060009054906101000a900460ff16905092915050565b611e75612718565b600073ffffffffffffffffffffffffffffffffffffffff168173ffffffffffffffffffffffffffffffffffffffff161415611ee5576040517f08c379a0000000000000000000000000000000000000000000000000000000008152600401611edc90614aba565b60405180910390fd5b611eee816127e9565b50565b60007f01ffc9a7000000000000000000000000000000000000000000000000000000007bffffffffffffffffffffffffffffffffffffffffffffffffffffffff1916827bffffffffffffffffffffffffffffffffffffffffffffffffffffffff1916149050919050565b611f6481612af7565b611fa3576040517f08c379a0000000000000000000000000000000000000000000000000000000008152600401611f9a906148a4565b60405180910390fd5b50565b600033905090565b816004600083815260200190815260200160002060006101000a81548173ffffffffffffffffffffffffffffffffffffffff021916908373ffffffffffffffffffffffffffffffffffffffff160217905550808273ffffffffffffffffffffffffffffffffffffffff166120218361159f565b73ffffffffffffffffffffffffffffffffffffffff167f8c5be1e5ebec7d5bd14f71427d1e84f3dd0314c0f7b2291e5b200ac8c7c3b92560405160405180910390a45050565b612081828260405180602001604052806000815250612b63565b5050565b6040518061014001604052806040518060400160405280600881526020017f42616c6c4d61696e0000000000000000000000000000000000000000000000008152508152602001601a6000848152602001908152602001600020548152602001601b6000848152602001908152602001600020548152602001601c6000848152602001908152602001600020548152602001601d6000848152602001908152602001600020548152602001601e6000848152602001908152602001600020548152602001601f600084815260200190815260200160002054815260200160206000848152602001908152602001600020548152602001602160008481526020019081526020016000205481526020016022600084815260200190815260200160002054815250601060008201518160000190805190602001906121c9929190613a08565b506020820151816001015560408201518160020155606082015181600301556080820151816004015560a0820151816005015560c0820151816006015560e0820151816007015561010082015181600801556101208201518160090155905050600060236122496009600085815260200190815260200160002054612bbe565b60405160200161225a929190614b6e565b604051602081830303815290604052905060006123e68361227a8561159f565b6040518060400160405280600581526020017f3842616c6c000000000000000000000000000000000000000000000000000000815250856040518060400160405280601781526020017f3842616c6c2069732066616e7461737469632067616d6500000000000000000081525060106040518061014001604052908160008201805461230590614242565b80601f016020809104026020016040519081016040528092919081815260200182805461233190614242565b801561237e5780601f106123535761010080835404028352916020019161237e565b820191906000526020600020905b81548152906001019060200180831161236157829003601f168201915b505050505081526020016001820154815260200160028201548152602001600382015481526020016004820154815260200160058201548152602001600682015481526020016007820154815260200160088201548152602001600982015481525050612d1f565b905060006123f382612d69565b905080600e908051906020019061240b929190613a08565b506124168482612d9a565b50505050565b6000806124288361159f565b90508073ffffffffffffffffffffffffffffffffffffffff168473ffffffffffffffffffffffffffffffffffffffff16148061246a57506124698185611dd9565b5b806124a857508373ffffffffffffffffffffffffffffffffffffffff1661249084610ad0565b73ffffffffffffffffffffffffffffffffffffffff16145b91505092915050565b8273ffffffffffffffffffffffffffffffffffffffff166124d18261159f565b73ffffffffffffffffffffffffffffffffffffffff1614612527576040517f08c379a000000000000000000000000000000000000000000000000000000000815260040161251e90614c04565b60405180910390fd5b600073ffffffffffffffffffffffffffffffffffffffff168273ffffffffffffffffffffffffffffffffffffffff161415612597576040517f08c379a000000000000000000000000000000000000000000000000000000000815260040161258e90614c96565b60405180910390fd5b6125a2838383612e0e565b6125ad600082611fae565b6001600360008573ffffffffffffffffffffffffffffffffffffffff1673ffffffffffffffffffffffffffffffffffffffff16815260200190815260200160002060008282546125fd91906145f0565b925050819055506001600360008473ffffffffffffffffffffffffffffffffffffffff1673ffffffffffffffffffffffffffffffffffffffff1681526020019081526020016000206000828254612654919061459a565b92505081905550816002600083815260200190815260200160002060006101000a81548173ffffffffffffffffffffffffffffffffffffffff021916908373ffffffffffffffffffffffffffffffffffffffff160217905550808273ffffffffffffffffffffffffffffffffffffffff168473ffffffffffffffffffffffffffffffffffffffff167fddf252ad1be2c89b69c2b068fc378daa952ba7f163c4a11628f55a4df523b3ef60405160405180910390a4612713838383612e13565b505050565b612720611fa6565b73ffffffffffffffffffffffffffffffffffffffff1661273e6117f9565b73ffffffffffffffffffffffffffffffffffffffff1614612794576040517f08c379a000000000000000000000000000000000000000000000000000000000815260040161278b90614d02565b60405180910390fd5b565b61279f81612e18565b60006006600083815260200190815260200160002080546127bf90614242565b9050146127e6576006600082815260200190815260200160002060006127e59190613a8e565b5b50565b6000600760009054906101000a900473ffffffffffffffffffffffffffffffffffffffff16905081600760006101000a81548173ffffffffffffffffffffffffffffffffffffffff021916908373ffffffffffffffffffffffffffffffffffffffff1602179055508173ffffffffffffffffffffffffffffffffffffffff168173ffffffffffffffffffffffffffffffffffffffff167f8be0079c531659141344cd1fd0a4f28419497f9722a3daafe3b4186f6b6457e060405160405180910390a35050565b8173ffffffffffffffffffffffffffffffffffffffff168373ffffffffffffffffffffffffffffffffffffffff16141561291e576040517f08c379a000000000000000000000000000000000000000000000000000000000815260040161291590614d6e565b60405180910390fd5b80600560008573ffffffffffffffffffffffffffffffffffffffff1673ffffffffffffffffffffffffffffffffffffffff16815260200190815260200160002060008473ffffffffffffffffffffffffffffffffffffffff1673ffffffffffffffffffffffffffffffffffffffff16815260200190815260200160002060006101000a81548160ff0219169083151502179055508173ffffffffffffffffffffffffffffffffffffffff168373ffffffffffffffffffffffffffffffffffffffff167f17307eab39ab6107e8899845ad3d59bd9653f200f220920489ca2b5937696c3183604051612a0f9190613b9f565b60405180910390a3505050565b612a278484846124b1565b612a3384848484612f35565b612a72576040517f08c379a0000000000000000000000000000000000000000000000000000000008152600401612a6990614e00565b60405180910390fd5b50505050565b606060405180602001604052806000815250905090565b6060612a9a82611f5b565b6000612aa4612a78565b90506000815111612ac45760405180602001604052806000815250612aef565b80612ace84612bbe565b604051602001612adf929190614992565b6040516020818303038152906040525b915050919050565b60008073ffffffffffffffffffffffffffffffffffffffff166002600084815260200190815260200160002060009054906101000a900473ffffffffffffffffffffffffffffffffffffffff1673ffffffffffffffffffffffffffffffffffffffff1614159050919050565b612b6d83836130cc565b612b7a6000848484612f35565b612bb9576040517f08c379a0000000000000000000000000000000000000000000000000000000008152600401612bb090614e00565b60405180910390fd5b505050565b60606000821415612c06576040518060400160405280600181526020017f30000000000000000000000000000000000000000000000000000000000000008152509050612d1a565b600082905060005b60008214612c38578080612c21906144cd565b915050600a82612c319190614e20565b9150612c0e565b60008167ffffffffffffffff811115612c5457612c53613e27565b5b6040519080825280601f01601f191660200182016040528015612c865781602001600182028036833780820191505090505b5090505b60008514612d1357600182612c9f91906145f0565b9150600a85612cae919061446d565b6030612cba919061459a565b60f81b818381518110612cd057612ccf614748565b5b60200101907effffffffffffffffffffffffffffffffffffffffffffffffffffffffffffff1916908160001a905350600a85612d0c9190614e20565b9450612c8a565b8093505050505b919050565b60606000612d3088888888886132a6565b905080612d3c84613301565b604051602001612d4d929190614ee9565b6040516020818303038152906040529150509695505050505050565b6060612d74826133ed565b604051602001612d849190614f6f565b6040516020818303038152906040529050919050565b612da382612af7565b612de2576040517f08c379a0000000000000000000000000000000000000000000000000000000008152600401612dd990615003565b60405180910390fd5b80600660008481526020019081526020016000209080519060200190612e09929190613a08565b505050565b505050565b505050565b6000612e238261159f565b9050612e3181600084612e0e565b612e3c600083611fae565b6001600360008373ffffffffffffffffffffffffffffffffffffffff1673ffffffffffffffffffffffffffffffffffffffff1681526020019081526020016000206000828254612e8c91906145f0565b925050819055506002600083815260200190815260200160002060006101000a81549073ffffffffffffffffffffffffffffffffffffffff021916905581600073ffffffffffffffffffffffffffffffffffffffff168273ffffffffffffffffffffffffffffffffffffffff167fddf252ad1be2c89b69c2b068fc378daa952ba7f163c4a11628f55a4df523b3ef60405160405180910390a4612f3181600084612e13565b5050565b6000612f568473ffffffffffffffffffffffffffffffffffffffff16613551565b156130bf578373ffffffffffffffffffffffffffffffffffffffff1663150b7a02612f7f611fa6565b8786866040518563ffffffff1660e01b8152600401612fa19493929190615078565b602060405180830381600087803b158015612fbb57600080fd5b505af1925050508015612fec57506040513d601f19601f82011682018060405250810190612fe991906150d9565b60015b61306f573d806000811461301c576040519150601f19603f3d011682016040523d82523d6000602084013e613021565b606091505b50600081511415613067576040517f08c379a000000000000000000000000000000000000000000000000000000000815260040161305e90614e00565b60405180910390fd5b805181602001fd5b63150b7a0260e01b7bffffffffffffffffffffffffffffffffffffffffffffffffffffffff1916817bffffffffffffffffffffffffffffffffffffffffffffffffffffffff1916149150506130c4565b600190505b949350505050565b600073ffffffffffffffffffffffffffffffffffffffff168273ffffffffffffffffffffffffffffffffffffffff16141561313c576040517f08c379a000000000000000000000000000000000000000000000000000000000815260040161313390615152565b60405180910390fd5b61314581612af7565b15613185576040517f08c379a000000000000000000000000000000000000000000000000000000000815260040161317c906151be565b60405180910390fd5b61319160008383612e0e565b6001600360008473ffffffffffffffffffffffffffffffffffffffff1673ffffffffffffffffffffffffffffffffffffffff16815260200190815260200160002060008282546131e1919061459a565b92505081905550816002600083815260200190815260200160002060006101000a81548173ffffffffffffffffffffffffffffffffffffffff021916908373ffffffffffffffffffffffffffffffffffffffff160217905550808273ffffffffffffffffffffffffffffffffffffffff16600073ffffffffffffffffffffffffffffffffffffffff167fddf252ad1be2c89b69c2b068fc378daa952ba7f163c4a11628f55a4df523b3ef60405160405180910390a46132a260008383612e13565b5050565b6060836132b287613574565b83856132d38973ffffffffffffffffffffffffffffffffffffffff1661364c565b6040516020016132e79594939291906153a6565b604051602081830303815290604052905095945050505050565b60606000604051806020016040528060008152509050600081846000015161332c8660200151613574565b6133398760400151613574565b6133468860600151613574565b6133538960800151613574565b6133608a60a00151613574565b61336d8b60c00151613574565b61337a8c60e00151613574565b6133888d6101000151613574565b6133968e6101200151613574565b6040516020016133b09b9a999897969594939291906157a3565b6040516020818303038152906040529050809150816040516020016133d59190615964565b60405160208183030381529060405292505050919050565b60606000825114156134105760405180602001604052806000815250905061354c565b60006040518060600160405280604081526020016159f3604091399050600060036002855161343f919061459a565b6134499190614e20565b60046134559190614540565b67ffffffffffffffff81111561346e5761346d613e27565b5b6040519080825280601f01601f1916602001820160405280156134a05781602001600182028036833780820191505090505b509050600182016020820185865187015b8082101561350c576003820191508151603f8160121c168501518453600184019350603f81600c1c168501518453600184019350603f8160061c168501518453600184019350603f81168501518453600184019350506134b1565b5050600386510660018114613528576002811461353b57613543565b603d6001830353603d6002830353613543565b603d60018303535b50505080925050505b919050565b6000808273ffffffffffffffffffffffffffffffffffffffff163b119050919050565b60606000600161358384613679565b01905060008167ffffffffffffffff8111156135a2576135a1613e27565b5b6040519080825280601f01601f1916602001820160405280156135d45781602001600182028036833780820191505090505b509050600082602001820190505b600115613641578080600190039150507f3031323334353637383961626364656600000000000000000000000000000000600a86061a8153600a858161362b5761362a61443e565b5b049450600085141561363c57613641565b6135e2565b819350505050919050565b60606136728273ffffffffffffffffffffffffffffffffffffffff16601460ff166137cc565b9050919050565b600080600090507a184f03e93ff9f4daa797ed6e38ed64bf6a1f01000000000000000083106136d7577a184f03e93ff9f4daa797ed6e38ed64bf6a1f01000000000000000083816136cd576136cc61443e565b5b0492506040810190505b6d04ee2d6d415b85acef81000000008310613714576d04ee2d6d415b85acef8100000000838161370a5761370961443e565b5b0492506020810190505b662386f26fc10000831061374357662386f26fc1000083816137395761373861443e565b5b0492506010810190505b6305f5e100831061376c576305f5e10083816137625761376161443e565b5b0492506008810190505b61271083106137915761271083816137875761378661443e565b5b0492506004810190505b606483106137b457606483816137aa576137a961443e565b5b0492506002810190505b600a83106137c3576001810190505b80915050919050565b6060600060028360026137df9190614540565b6137e9919061459a565b67ffffffffffffffff81111561380257613801613e27565b5b6040519080825280601f01601f1916602001820160405280156138345781602001600182028036833780820191505090505b5090507f30000000000000000000000000000000000000000000000000000000000000008160008151811061386c5761386b614748565b5b60200101907effffffffffffffffffffffffffffffffffffffffffffffffffffffffffffff1916908160001a9053507f7800000000000000000000000000000000000000000000000000000000000000816001815181106138d0576138cf614748565b5b60200101907effffffffffffffffffffffffffffffffffffffffffffffffffffffffffffff1916908160001a905350600060018460026139109190614540565b61391a919061459a565b90505b60018111156139ba577f3031323334353637383961626364656600000000000000000000000000000000600f86166010811061395c5761395b614748565b5b1a60f81b82828151811061397357613972614748565b5b60200101907effffffffffffffffffffffffffffffffffffffffffffffffffffffffffffff1916908160001a905350600485901c9450806139b390614516565b905061391d565b50600084146139fe576040517f08c379a00000000000000000000000000000000000000000000000000000000081526004016139f5906159d2565b60405180910390fd5b8091505092915050565b828054613a1490614242565b90600052602060002090601f016020900481019282613a365760008555613a7d565b82601f10613a4f57805160ff1916838001178555613a7d565b82800160010185558215613a7d579182015b82811115613a7c578251825591602001919060010190613a61565b5b509050613a8a9190613ace565b5090565b508054613a9a90614242565b6000825580601f10613aac5750613acb565b601f016020900490600052602060002090810190613aca9190613ace565b5b50565b5b80821115613ae7576000816000905550600101613acf565b5090565b6000604051905090565b600080fd5b600080fd5b60007fffffffff0000000000000000000000000000000000000000000000000000000082169050919050565b613b3481613aff565b8114613b3f57600080fd5b50565b600081359050613b5181613b2b565b92915050565b600060208284031215613b6d57613b6c613af5565b5b6000613b7b84828501613b42565b91505092915050565b60008115159050919050565b613b9981613b84565b82525050565b6000602082019050613bb46000830184613b90565b92915050565b6000819050919050565b613bcd81613bba565b82525050565b6000602082019050613be86000830184613bc4565b92915050565b600081519050919050565b600082825260208201905092915050565b60005b83811015613c28578082015181840152602081019050613c0d565b83811115613c37576000848401525b50505050565b6000601f19601f8301169050919050565b6000613c5982613bee565b613c638185613bf9565b9350613c73818560208601613c0a565b613c7c81613c3d565b840191505092915050565b60006020820190508181036000830152613ca18184613c4e565b905092915050565b613cb281613bba565b8114613cbd57600080fd5b50565b600081359050613ccf81613ca9565b92915050565b600060208284031215613ceb57613cea613af5565b5b6000613cf984828501613cc0565b91505092915050565b600073ffffffffffffffffffffffffffffffffffffffff82169050919050565b6000613d2d82613d02565b9050919050565b613d3d81613d22565b82525050565b6000602082019050613d586000830184613d34565b92915050565b613d6781613d22565b8114613d7257600080fd5b50565b600081359050613d8481613d5e565b92915050565b60008060408385031215613da157613da0613af5565b5b6000613daf85828601613d75565b9250506020613dc085828601613cc0565b9150509250929050565b600080600060608486031215613de357613de2613af5565b5b6000613df186828701613d75565b9350506020613e0286828701613d75565b9250506040613e1386828701613cc0565b9150509250925092565b600080fd5b600080fd5b7f4e487b7100000000000000000000000000000000000000000000000000000000600052604160045260246000fd5b613e5f82613c3d565b810181811067ffffffffffffffff82111715613e7e57613e7d613e27565b5b80604052505050565b6000613e91613aeb565b9050613e9d8282613e56565b919050565b600067ffffffffffffffff821115613ebd57613ebc613e27565b5b613ec682613c3d565b9050602081019050919050565b82818337600083830152505050565b6000613ef5613ef084613ea2565b613e87565b905082815260208101848484011115613f1157613f10613e22565b5b613f1c848285613ed3565b509392505050565b600082601f830112613f3957613f38613e1d565b5b8135613f49848260208601613ee2565b91505092915050565b600060208284031215613f6857613f67613af5565b5b600082013567ffffffffffffffff811115613f8657613f85613afa565b5b613f9284828501613f24565b91505092915050565b600060208284031215613fb157613fb0613af5565b5b6000613fbf84828501613d75565b91505092915050565b613fd181613b84565b8114613fdc57600080fd5b50565b600081359050613fee81613fc8565b92915050565b6000806040838503121561400b5761400a613af5565b5b600061401985828601613d75565b925050602061402a85828601613fdf565b9150509250929050565b600067ffffffffffffffff82111561404f5761404e613e27565b5b61405882613c3d565b9050602081019050919050565b600061407861407384614034565b613e87565b90508281526020810184848401111561409457614093613e22565b5b61409f848285613ed3565b509392505050565b600082601f8301126140bc576140bb613e1d565b5b81356140cc848260208601614065565b91505092915050565b600080600080608085870312156140ef576140ee613af5565b5b60006140fd87828801613d75565b945050602061410e87828801613d75565b935050604061411f87828801613cc0565b925050606085013567ffffffffffffffff8111156141405761413f613afa565b5b61414c878288016140a7565b91505092959194509250565b600080600080600060a0868803121561417457614173613af5565b5b600061418288828901613cc0565b955050602061419388828901613cc0565b94505060406141a488828901613cc0565b93505060606141b588828901613cc0565b92505060806141c688828901613cc0565b9150509295509295909350565b600080604083850312156141ea576141e9613af5565b5b60006141f885828601613d75565b925050602061420985828601613d75565b9150509250929050565b7f4e487b7100000000000000000000000000000000000000000000000000000000600052602260045260246000fd5b6000600282049050600182168061425a57607f821691505b6020821081141561426e5761426d614213565b5b50919050565b7f4552433732313a20617070726f76616c20746f2063757272656e74206f776e6560008201527f7200000000000000000000000000000000000000000000000000000000000000602082015250565b60006142d0602183613bf9565b91506142db82614274565b604082019050919050565b600060208201905081810360008301526142ff816142c3565b9050919050565b7f4552433732313a20617070726f76652063616c6c6572206973206e6f7420746f60008201527f6b656e206f776e6572206e6f7220617070726f76656420666f7220616c6c0000602082015250565b6000614362603e83613bf9565b915061436d82614306565b604082019050919050565b6000602082019050818103600083015261439181614355565b9050919050565b6000819050919050565b6143b36143ae82613bba565b614398565b82525050565b60008160601b9050919050565b60006143d1826143b9565b9050919050565b60006143e3826143c6565b9050919050565b6143fb6143f682613d22565b6143d8565b82525050565b600061440d82866143a2565b60208201915061441d82856143ea565b60148201915061442d82846143a2565b602082019150819050949350505050565b7f4e487b7100000000000000000000000000000000000000000000000000000000600052601260045260246000fd5b600061447882613bba565b915061448383613bba565b9250826144935761449261443e565b5b828206905092915050565b7f4e487b7100000000000000000000000000000000000000000000000000000000600052601160045260246000fd5b60006144d882613bba565b91507fffffffffffffffffffffffffffffffffffffffffffffffffffffffffffffffff82141561450b5761450a61449e565b5b600182019050919050565b600061452182613bba565b915060008214156145355761453461449e565b5b600182039050919050565b600061454b82613bba565b915061455683613bba565b9250817fffffffffffffffffffffffffffffffffffffffffffffffffffffffffffffffff048311821515161561458f5761458e61449e565b5b828202905092915050565b60006145a582613bba565b91506145b083613bba565b9250827fffffffffffffffffffffffffffffffffffffffffffffffffffffffffffffffff038211156145e5576145e461449e565b5b828201905092915050565b60006145fb82613bba565b915061460683613bba565b9250828210156146195761461861449e565b5b828203905092915050565b7f4552433732313a2063616c6c6572206973206e6f7420746f6b656e206f776e6560008201527f72206e6f7220617070726f766564000000000000000000000000000000000000602082015250565b6000614680602e83613bf9565b915061468b82614624565b604082019050919050565b600060208201905081810360008301526146af81614673565b9050919050565b7f4f6e6c7920746865206f776e6572206f66204e46542063616e207472616e736660008201527f6572206f722062756e7420697400000000000000000000000000000000000000602082015250565b6000614712602d83613bf9565b915061471d826146b6565b604082019050919050565b6000602082019050818103600083015261474181614705565b9050919050565b7f4e487b7100000000000000000000000000000000000000000000000000000000600052603260045260246000fd5b7f4e487b7100000000000000000000000000000000000000000000000000000000600052603160045260246000fd5b600081905092915050565b50565b60006147c16000836147a6565b91506147cc826147b1565b600082019050919050565b60006147e2826147b4565b9150819050919050565b7f5769746864726177206661696c00000000000000000000000000000000000000600082015250565b6000614822600d83613bf9565b915061482d826147ec565b602082019050919050565b6000602082019050818103600083015261485181614815565b9050919050565b7f4552433732313a20696e76616c696420746f6b656e2049440000000000000000600082015250565b600061488e601883613bf9565b915061489982614858565b602082019050919050565b600060208201905081810360008301526148bd81614881565b9050919050565b7f4552433732313a2061646472657373207a65726f206973206e6f74206120766160008201527f6c6964206f776e65720000000000000000000000000000000000000000000000602082015250565b6000614920602983613bf9565b915061492b826148c4565b604082019050919050565b6000602082019050818103600083015261494f81614913565b9050919050565b600081905092915050565b600061496c82613bee565b6149768185614956565b9350614986818560208601613c0a565b80840191505092915050565b600061499e8285614961565b91506149aa8284614961565b91508190509392505050565b7f557067726164652076616c65206d757374206265206d6f7265207468616e203060008201527f20616e64206c657373207468616e206d61782076616c75650000000000000000602082015250565b6000614a12603883613bf9565b9150614a1d826149b6565b604082019050919050565b60006020820190508181036000830152614a4181614a05565b9050919050565b7f4f776e61626c653a206e6577206f776e657220697320746865207a65726f206160008201527f6464726573730000000000000000000000000000000000000000000000000000602082015250565b6000614aa4602683613bf9565b9150614aaf82614a48565b604082019050919050565b60006020820190508181036000830152614ad381614a97565b9050919050565b60008190508160005260206000209050919050565b60008154614afc81614242565b614b068186614956565b94506001821660008114614b215760018114614b3257614b65565b60ff19831686528186019350614b65565b614b3b85614ada565b60005b83811015614b5d57815481890152600182019150602081019050614b3e565b838801955050505b50505092915050565b6000614b7a8285614aef565b9150614b868284614961565b91508190509392505050565b7f4552433732313a207472616e736665722066726f6d20696e636f72726563742060008201527f6f776e6572000000000000000000000000000000000000000000000000000000602082015250565b6000614bee602583613bf9565b9150614bf982614b92565b604082019050919050565b60006020820190508181036000830152614c1d81614be1565b9050919050565b7f4552433732313a207472616e7366657220746f20746865207a65726f2061646460008201527f7265737300000000000000000000000000000000000000000000000000000000602082015250565b6000614c80602483613bf9565b9150614c8b82614c24565b604082019050919050565b60006020820190508181036000830152614caf81614c73565b9050919050565b7f4f776e61626c653a2063616c6c6572206973206e6f7420746865206f776e6572600082015250565b6000614cec602083613bf9565b9150614cf782614cb6565b602082019050919050565b60006020820190508181036000830152614d1b81614cdf565b9050919050565b7f4552433732313a20617070726f766520746f2063616c6c657200000000000000600082015250565b6000614d58601983613bf9565b9150614d6382614d22565b602082019050919050565b60006020820190508181036000830152614d8781614d4b565b9050919050565b7f4552433732313a207472616e7366657220746f206e6f6e20455243373231526560008201527f63656976657220696d706c656d656e7465720000000000000000000000000000602082015250565b6000614dea603283613bf9565b9150614df582614d8e565b604082019050919050565b60006020820190508181036000830152614e1981614ddd565b9050919050565b6000614e2b82613bba565b9150614e3683613bba565b925082614e4657614e4561443e565b5b828204905092915050565b7f7b00000000000000000000000000000000000000000000000000000000000000600082015250565b6000614e87600183614956565b9150614e9282614e51565b600182019050919050565b7f7d00000000000000000000000000000000000000000000000000000000000000600082015250565b6000614ed3600183614956565b9150614ede82614e9d565b600182019050919050565b6000614ef482614e7a565b9150614f008285614961565b9150614f0c8284614961565b9150614f1782614ec6565b91508190509392505050565b7f646174613a6170706c69636174696f6e2f6a736f6e3b6261736536342c000000600082015250565b6000614f59601d83614956565b9150614f6482614f23565b601d82019050919050565b6000614f7a82614f4c565b9150614f868284614961565b915081905092915050565b7f45524337323155524953746f726167653a2055524920736574206f66206e6f6e60008201527f6578697374656e7420746f6b656e000000000000000000000000000000000000602082015250565b6000614fed602e83613bf9565b9150614ff882614f91565b604082019050919050565b6000602082019050818103600083015261501c81614fe0565b9050919050565b600081519050919050565b600082825260208201905092915050565b600061504a82615023565b615054818561502e565b9350615064818560208601613c0a565b61506d81613c3d565b840191505092915050565b600060808201905061508d6000830187613d34565b61509a6020830186613d34565b6150a76040830185613bc4565b81810360608301526150b9818461503f565b905095945050505050565b6000815190506150d381613b2b565b92915050565b6000602082840312156150ef576150ee613af5565b5b60006150fd848285016150c4565b91505092915050565b7f4552433732313a206d696e7420746f20746865207a65726f2061646472657373600082015250565b600061513c602083613bf9565b915061514782615106565b602082019050919050565b6000602082019050818103600083015261516b8161512f565b9050919050565b7f4552433732313a20746f6b656e20616c7265616479206d696e74656400000000600082015250565b60006151a8601c83613bf9565b91506151b382615172565b602082019050919050565b600060208201905081810360008301526151d78161519b565b9050919050565b7f226e616d65223a22000000000000000000000000000000000000000000000000600082015250565b6000615214600883614956565b915061521f826151de565b600882019050919050565b7f222c000000000000000000000000000000000000000000000000000000000000600082015250565b6000615260600283614956565b915061526b8261522a565b600282019050919050565b7f22746f6b656e4964223a22000000000000000000000000000000000000000000600082015250565b60006152ac600b83614956565b91506152b782615276565b600b82019050919050565b7f226465736372697074696f6e223a220000000000000000000000000000000000600082015250565b60006152f8600f83614956565b9150615303826152c2565b600f82019050919050565b7f22696d616765223a220000000000000000000000000000000000000000000000600082015250565b6000615344600983614956565b915061534f8261530e565b600982019050919050565b7f226f776e6572223a220000000000000000000000000000000000000000000000600082015250565b6000615390600983614956565b915061539b8261535a565b600982019050919050565b60006153b182615207565b91506153bd8288614961565b91506153c882615253565b91506153d38261529f565b91506153df8287614961565b91506153ea82615253565b91506153f5826152eb565b91506154018286614961565b915061540c82615253565b915061541782615337565b91506154238285614961565b915061542e82615253565b915061543982615383565b91506154458284614961565b915061545082615253565b91508190509695505050505050565b7f7b226d696e7454797065223a2200000000000000000000000000000000000000600082015250565b6000615495600d83614956565b91506154a08261545f565b600d82019050919050565b7f2263617465676f7279223a000000000000000000000000000000000000000000600082015250565b60006154e1600b83614956565b91506154ec826154ab565b600b82019050919050565b7f2c00000000000000000000000000000000000000000000000000000000000000600082015250565b600061552d600183614956565b9150615538826154f7565b600182019050919050565b7f2263757272656e74506f7765724c766c223a0000000000000000000000000000600082015250565b6000615579601283614956565b915061558482615543565b601282019050919050565b7f2263757272656e7441636375726163794c766c223a0000000000000000000000600082015250565b60006155c5601583614956565b91506155d08261558f565b601582019050919050565b7f2263757272656e745370696e4c766c223a000000000000000000000000000000600082015250565b6000615611601183614956565b915061561c826155db565b601182019050919050565b7f2263757272656e7454696d654c766c223a000000000000000000000000000000600082015250565b600061565d601183614956565b915061566882615627565b601182019050919050565b7f226d6178506f7765724c766c223a000000000000000000000000000000000000600082015250565b60006156a9600e83614956565b91506156b482615673565b600e82019050919050565b7f226d617841636375726163794c766c223a000000000000000000000000000000600082015250565b60006156f5601183614956565b9150615700826156bf565b601182019050919050565b7f226d61785370696e4c766c223a00000000000000000000000000000000000000600082015250565b6000615741600d83614956565b915061574c8261570b565b600d82019050919050565b7f226d617854696d654c766c223a00000000000000000000000000000000000000600082015250565b600061578d600d83614956565b915061579882615757565b600d82019050919050565b60006157af828e614961565b91506157ba82615488565b91506157c6828d614961565b91506157d182615253565b91506157dc826154d4565b91506157e8828c614961565b91506157f382615520565b91506157fe8261556c565b915061580a828b614961565b915061581582615520565b9150615820826155b8565b915061582c828a614961565b915061583782615520565b915061584282615604565b915061584e8289614961565b915061585982615520565b915061586482615650565b91506158708288614961565b915061587b82615520565b91506158868261569c565b91506158928287614961565b915061589d82615520565b91506158a8826156e8565b91506158b48286614961565b91506158bf82615520565b91506158ca82615734565b91506158d68285614961565b91506158e182615520565b91506158ec82615780565b91506158f88284614961565b915061590382614ec6565b91508190509c9b505050505050505050505050565b7f2261747472696275746573223a00000000000000000000000000000000000000600082015250565b600061594e600d83614956565b915061595982615918565b600d82019050919050565b600061596f82615941565b915061597b8284614961565b915081905092915050565b7f537472696e67733a20686578206c656e67746820696e73756666696369656e74600082015250565b60006159bc602083613bf9565b91506159c782615986565b602082019050919050565b600060208201905081810360008301526159eb816159af565b905091905056fe4142434445464748494a4b4c4d4e4f505152535455565758595a6162636465666768696a6b6c6d6e6f707172737475767778797a303132333435363738392b2fa2646970667358221220998c962adb9b75421bbbc410928526f4e26eec89d5bdcca6780cf3be9e5c8b2f64736f6c63430008090033",
  "linkReferences": {},
  "deployedLinkReferences": {}
}